:020000040800F2
:1000000018070020AD020008D7380008E12E0008CC
:10001000D538000807050008E14C00080000000082
:10002000000000000000000000000000DD3B0008B0
:100030000905000800000000D9380008DF3B00086F
:10004000C7020008C7020008C7020008C70200086C
:10005000C7020008C7020008C7020008C70200085C
:10006000C7020008C7020008C7020008C70200084C
:10007000C7020008C7020008C7020008C70200083C
:10008000C7020008C7020008C7020008C70200082C
:10009000C7020008C7020008C7020008C70200081C
:1000A000C7020008C7020008C7020008C70200080C
:1000B0001D3D0008C7020008C7020008C70200086B
:1000C000C7020008C7020008C7020008C7020008EC
:1000D000C7020008C7020008C7020008D94C000880
:1000E000C7020008C702000800000000C70200089D
:1000F000C7020008C7020008C7020008C7020008BC
:10010000C7020008C7020008C7020008C7020008AB
:10011000C7020008A9410008C7020008C70200087A
:10012000C7020008C7020008C7020008C70200088B
:10013000C7020008C7020008C7020008C70200087B
:1001400000000000000000000000000000000000AF
:10015000C7020008C7020008C7020008C70200085B
:10016000C7020008C7020008C7020008C70200084B
:10017000C7020008C7020008C7020008000000000C
:10018000C7020008C7020008C7020008C70200082B
:10019000C7020008C7020008C7020008C70200081B
:1001A000C7020008C7020008C7020008C70200080B
:1001B000C7020008C7020008C7020008C7020008FB
:1001C000C7020008C7020008C7020008C7020008EB
:1001D000C7020008C7020008C7020008C7020008DB
:1001E000C7020008C7020008C7020008C7020008CB
:1001F000C7020008C7020008C7020008C7020008BB
:10020000C7020008C7020008C7020008C7020008AA
:10021000C7020008C7020008C7020008C70200089A
:10022000C7020008C7020008C7020008000000005B
:10023000C7020008C702000800000000C70200084B
:10024000C7020008C7020008C7020008C70200086A
:10025000C7020008C7020008C7020008C70200085A
:10026000C7020008C7020008C7020008C70200084A
:10027000C7020008C7020008C7020008000000000B
:10028000C7020008C7020008C702000800000000FB
:1002900000000000C7020008DFF80CD000F0C0F832
:1002A00000480047894E000818070020064880478C
:1002B00006480047FEE7FEE7FEE7FEE7FEE7FEE74B
:1002C000FEE7FEE7FEE7FEE7A93C0008990200080A
:1002D0002DE9F05F0546002092469B46884606467B
:1002E000814640241BE0284641464746224600F00E
:1002F0004EF853465A46C01A914110D3114618463B
:10030000224600F035F82D1A67EB01084F462246C9
:100310000120002100F02CF817EB00094E41201EAF
:10032000A4F10104DFDC484631462A464346BDE8D5
:10033000F09FD2B201E000F8012B491EFBD27047BA
:100340000022F6E710B513460A4604461946FFF7A1
:10035000F0FF204610BD70B5064604F0B3FD0468FA
:1003600005460A220021304600F021F82C6070BDBD
:10037000202A04DB203A00FA02F100207047914065
:10038000C2F1200320FA03F3194390407047202A5A
:1003900004DB203A21FA02F00021704721FA02F32F
:1003A000D040C2F1200291400843194670472DE920
:1003B000F04791460F4680460446002614F8015B3C
:1003C0002DB100F03FF80068405DC007F6D12B2D3D
:1003D00002D02D2D18D0641E4A463946204600F022
:1003E00035F827B13968A14201D1C7F800807105FD
:1003F0004FF002040BD54042002803DD04F062FDFB
:100400000460A007BDE8F08746F48066E4E70028B2
:10041000F8DA04F057FD04606FF00040F2E70000E6
:10042000064C074D06E0E06840F0010394E8070041
:1004300098471034AC42F6D3FFF732FF68570008F4
:100440008857000800487047944F00082DE9F05F76
:1004500082460078002715468B460AF10104B9460A
:10046000302801D09DB113E014F8010B0127782842
:1004700003D0582801D045B10AE00DB1102D07D1A5
:100480000027102514F8010B02E0082500E00A25DA
:100490000026B0460EE005FB080005FB06F101272B
:1004A00001EB10461FFA80F8B6F5803F00D3B9463D
:1004B00014F8010B294600F018F80028EBDABBF11C
:1004C000000F05D00FB1641E00E05446CBF8004089
:1004D000B9F1000F06D004F0F5FC02210160C81E3E
:1004E000BDE8F09F48EA0640FAE73A2800D23038E3
:1004F00020F02002412A01D3A2F13700884201D323
:100500004FF0FF307047FEE7704770472DE9F04F1E
:1005100085B00E9F1C46214E154606EBC717029765
:1005200000268027CDE9000133E002984FF0000952
:1005300000EB8600CDE90360019806EB0008DDF8CA
:1005400000A021E00498002610F809B016E027FA70
:1005500006F010EA0B0F06D00AEB060080B21FFA75
:1005600088F12A4607E0A54207D00AEB060080B2D0
:100570001FFA88F1224600F013F80136082EE6D162
:1005800009F101090AF1080AB9F1040FDAD1039E51
:100590000136202EC9D105B0BDE8F08FE44F000828
:1005A00010B5144602F086FE2046BDE8104002F069
:1005B000B1BE000010B5002841D090F835100229D6
:1005C0003BD101684C4A914223D04C4B99421CBF0D
:1005D0004B4B99421DD04B4B99421CBF4A4B994201
:1005E00017D04A4B99421CBF494B994211D0494BF5
:1005F00099421CBF484B99420BD0484B99421CBFB3
:10060000474B994205D0474B99421CBF464B9942F4
:100610003CD10423914280F835301CBF37488142D9
:1006200005D0374881421CBF364881420AD108684C
:1006300020F001000860002102E0802141650121D5
:10064000084610BD30488142F1D030488142EED09A
:100650002F488142EBD02F4881421CBF2E48814257
:10066000E5D02E4881421CBF2D488142DFD02D4865
:1006700081421CBF2C488142D9D02C488142D6D01F
:100680002B488142D3D02B488142D0E7274B994257
:10069000BFD0274B9942BCD0264B9942B9D00A68AB
:1006A00022F00E020A600A6822F001020A60D0E914
:1006B00016C2D0E9183E196802F01F0421F48071B7
:1006C0000122196002FA04F1CCF80410816ECEF810
:1006D0000410C16E31B10B6823F480730B60D0E954
:1006E0001C134B60002180F8341080F83520026D17
:1006F000002AA5D090479EE7100002402800024043
:100700004000024058000240700002408800024051
:10071000A0000240B8000240100402402804024039
:100720004004024058040240700402408804024021
:10073000B8040240A0040240B0B5044600F0D6F868
:10074000944905460978621C18BF0C4400F0CEF8A5
:10075000401BA042FAD3B0BD2DE9FC4F5A4A0A27EC
:100760005A4C02444FEAB223A04208BF09274FF077
:10077000000A4FF0010B4FF000090024092B38BF8D
:100780004FEAB227009795E00BFA04F215EA020C43
:1007900000F08B80D1F804E04EF01006122E11D13B
:1007A0006FF0030303EA5406064409F01C07336A9A
:1007B0000F25BD40AB430D6905FA07F73B43336294
:1007C000D1F804E00325036805FA0AF50EF00306E4
:1007D000AB4306FA0AF63343BEF1120F03606FEA29
:1007E000050815D80BFA0EF313F0061F10D0836816
:1007F000CD6803EA080305FA0AF52B4383604368D2
:10080000CEF3001523EA020205FA04F31A4342600C
:10081000C2688B6802EA080203FA0AF31A435FEA25
:10082000CE03C26041D5634A1346294D12680F2694
:1008300042F002021A604FF0B04E1A6802F0020253
:10084000019224F00302019B09F00C0357599E40CA
:10085000B743009E06FA03F33B435351194A15462A
:10086000D26F4B6842EA0C07DE0358BF22EA0C073E
:10087000EF679E03D5F8802042EA0C0758BF22EAB2
:100880000C07C5F88070DEF80020DE0242EA0C0793
:1008900058BF22EA0C07CEF800702A689B0242EA91
:1008A0000C0758BF22EA0C072F60013409F1040934
:1008B0000AF1020A0D6835FA04F27FF465AFBDE86B
:1008C000FC8F00BF040000580000FEA7002402585F
:1008D00008040058002A08BF09048161704700001D
:1008E00001480068000C70470010005C0548006873
:1008F000704700BF2748007802490A681044086022
:10090000704700BF1403002080B5032000F082F878
:1009100000F086FF61490A68C2F30322694B9A5CC2
:1009200002F01F02D0405E4A1060096801F00F011A
:10093000595C01F01F01C84005490860002000F023
:1009400009F808B1012080BD00F026F8002080BD24
:100950001400002070B50F4E3178C1B104464FF439
:100960007A70B0FBF1F04E490968B1FBF0F001F08C
:100970000DFC0F2C4FF001050AD848B94FF0FF309D
:1009800000222146002500F025F8746000E00125D2
:10099000284670BD0800002081B00648016841F07B
:1009A00002010160006800F002000090009801B0B0
:1009B000704700BFF4440258002808DB00F01F0114
:1009C000012202FA01F1024A400942F82010704760
:1009D00000E100E080B5154B1B68C3F3022C8CF0DE
:1009E000070EBEF1040F28BF4FF0040EBCF1030345
:1009F0004FF0FF3C38BF00230CFA0EFE21EA0E0137
:100A000099400CFA03F39A431143BDE8804004F087
:100A10001BBA00BF05490A684FF6FF031A4060F38E
:100A20000A22034810430860704700BF0CED00E045
:100A30000000FA05B0B5104D2968490704D42968AB
:100A400001F00701814215D1296821F0070108430F
:100A50002860FFF74BFF044655F8080C800407D4C4
:100A6000FFF744FF001BB0F57A7FF5D90320B0BD36
:100A70000020B0BD0120B0BD0C48025880B500F088
:100A8000CFFE06490F4A0968C1F30321515C01F00A
:100A90001F01C8400249086080BD00BF18440258C9
:100AA0001000002080B500F087FE0549054A09685E
:100AB000C1F30211515C01F01F01C84080BD00BFAD
:100AC00020440258C44F000810B53C4CA36AA26AE7
:100AD000C2F3053CE26AE16B02F01002C1F3CC0103
:100AE000BCF1000F02FB01F100EE101AB8EE400A53
:100AF0000AD003F00303022B0AD063B921688906E8
:100B00000CD49FED311A13E00021C0E9001153E02D
:100B10009FED2C1A0CE09FED2A1A09E021682B4A60
:100B2000C1F3C10122FA01F101EE101AB8EE411A27
:100B300002EE10CA9FED263AB8EE422AA16B6FF37F
:100B40005F2181EE021A02EE101AB8EE422AA16B62
:100B5000C1F3462100EE032AB7EE000A03EE101A95
:100B600032EE002AB8EE433A21EE021A33EE002AA2
:100B700081EE022ABCEEC22A80ED002AA16BC1F3ED
:100B8000064102EE101AB8EE422A32EE002A81EE39
:100B9000022ABCEEC22A80ED012AA16BC1F30661D4
:100BA00002EE101AB8EE422A32EE000A81EE000A76
:100BB000BCEEC00A10EE101A816010BD004402584D
:100BC0000024744A0024F44A0024744C0090D0039A
:100BD0000000003910B53C4CA36AA26AC2F3055C60
:100BE000E26A616C02F48072C1F3CC01BCF1000FC7
:100BF00002FB01F100EE101AB8EE400A0AD003F031
:100C00000303022B0AD063B9216889060CD49FED37
:100C1000311A13E00021C0E9001153E09FED2C1AB6
:100C20000CE09FED2A1A09E021682B4AC1F3C101AB
:100C300022FA01F101EE101AB8EE411A02EE10CAC2
:100C40009FED263AB8EE422A216C6FF35F2181EEC8
:100C5000021A02EE101AB8EE422A216CC1F34621A4
:100C600000EE032AB7EE000A03EE101A32EE002A55
:100C7000B8EE433A21EE021A33EE002A81EE022A40
:100C8000BCEEC22A80ED002A216CC1F3064102EEBF
:100C9000101AB8EE422A32EE002A81EE022ABCEE89
:100CA000C22A80ED012A216CC1F3066102EE101AFE
:100CB000B8EE422A32EE000A81EE000ABCEEC00A0B
:100CC00010EE101A816010BD004402580024744ACE
:100CD0000024F44A0024744C0090D0030000003932
:100CE0002DE9F0470446C078AC4F000721D5606E6F
:100CF0004FEA3051032908D8DFE801F002090E1647
:100D0000F96941F40031F9610EE0012612E0201D7D
:100D1000022102F0E3FD04E004F12400022102F0CC
:100D20005DFE064630B9606E396C21F4401108430F
:100D3000386400266078BA46C00701D1354629E0FC
:100D4000606D04280BD83546DFE800F0030C11175E
:100D50001700F869354640F40030F8610DE00125D0
:100D6000012718E0201D002102F0B8FD04E004F185
:100D70002400002102F032FE0546002D2F460AD144
:100D8000DAF84000002520F00700616D0843524664
:100D9000CAF840003746607880072CD5A06D4FEA2E
:100DA000B01004280CD8DFE800F0030E1319190066
:100DB000DAF81C00514640F40030CAF81C000DE07F
:100DC0000125012618E0201D002102F087FD04E026
:100DD00004F12400002102F001FE0546002D2E46FC
:100DE0000AD1DAF84000002520F4E070A16D084334
:100DF0005246CAF840003E466078400702D4B046EA
:100E000057462BE0D4F8A40057464FEA7050042808
:100E100009D8DFE800F0030C11171700F86940F457
:100E20000030F8610EE001254FF0010816E0201DAA
:100E3000002102F053FD04E004F12400002102F03F
:100E4000CDFD0546002DA84608D1B86C002520F43C
:100E50006000D4F8A4100843B046B8646078000776
:100E60002BD5D4F8A8004FEA3060042809D8DFE871
:100E700000F0030B10161600F86940F40030F8611A
:100E80000DE00125012719E0201D002102F026FDBB
:100E900004E004F12400002102F0A0FD0546002D2D
:100EA0002F460BD1DAF84800002520F0E060D4F896
:100EB000A81008435246CAF848004746E078800721
:100EC00025D5A06C4FEA301003280BD8DFE800F0DE
:100ED00012020D12DAF81C00514640F40030CAF834
:100EE0001C0007E00125012612E0201D022102F06E
:100EF000F5FC0546002D2E460AD1DAF83C00002507
:100F000020F03000A16C08435246CAF83C003E462F
:100F10006078C0062CD5E06D4FEA303004280CD83C
:100F2000DFE800F0030E13191900DAF81C0051462F
:100F300040F40030CAF81C000DE00125012718E03C
:100F4000201D002102F0CAFC04E004F1240000216D
:100F500002F044FD0546002D2F460AD1DAF8400084
:100F6000002520F4E040E16D08435246CAF84000F5
:100F700037466078800626D5206E4FEA3040052837
:100F800009D8DFE800F013030D131313201D01210E
:100F900002F0A4FC09E00125012615E010440258E6
:100FA00004F12400012102F019FD0546002D2E4612
:100FB0000AD1DAF84000002520F4E020216E084331
:100FC0005246CAF840003E466078400626D5D4F81E
:100FD000AC004FEA3070052809D8DFE800F01103B3
:100FE0000B111111201D012102F078FC07E00125F1
:100FF000012714E004F12400012102F0EFFC054672
:10100000002D2F460BD1DAF84800002520F0E040F3
:10101000D4F8AC1008435246CAF848003746607806
:10102000000621D5E06E90B1B0F1005F0AD0B0F1BA
:10103000805F2DD1DAF81C00514640F40030CAF828
:101040001C0004E0201D012102F048FC0546002D93
:101050002E460AD1DAF84000002520F04050E16E1B
:1010600008435246CAF840003E46E078C00702D125
:10107000B046574623E0606C574603280BD8DFE89C
:1010800000F013020E13F86940F40030F8610BE031
:1010900001250126E9E701254FF001080FE0201D99
:1010A000022102F01BFC0546002DA84607D1F86B73
:1010B000002520F00300616C0843B046F863A07877
:1010C000400601D4474617E0D7F8F00340F480709B
:1010D000C7F8F003FFF70AFC0646D7F8F003C0058F
:1010E00007D4FFF703FC801B6428F6D903250327E8
:1010F00002E0002D2F4611D02078C0074FD0A06FFE
:101100004FEAF000052834D8DFE800F03C03363C15
:101110003C3C201D012102F0E1FB32E0DAF86010D6
:101120005346D4F8B000414011F4407F0BD0196E03
:101130001A6E21F4407142F480321A661A6E22F45B
:1011400080321A661966B0F5807F40F01882FFF78A
:10115000CDFB064641F2883903250327DAF8600003
:10116000800700F10982FFF7C1FB801B4845F5D9D4
:10117000C2E70125012613E004F12400012102F059
:101180002DFC0546002D2E460AD1DAF84400002534
:1011900020F03800A16F08435246CAF844003E468A
:1011A0002078800722D5606F052809D8DFE800F095
:1011B00011030B111111201D012102F08FFB07E01B
:1011C0000125012713E004F12400012102F006FCAF
:1011D0000546002D2F460AD1DAF84400002520F0FC
:1011E0000700616F08435246CAF84400374620782A
:1011F000400724D5D4F89000052809D8DFE800F08E
:1012000011030B111111201D012102F067FB07E0F2
:101210000125012614E004F12400012102F0DEFB87
:101220000546002D2E460BD1DAF84800002520F0A7
:101230000700D4F8901008435246CAF848003E46CA
:101240002078800626D5D4F88C004FEA3070052827
:1012500009D8DFE800F011030B111111201D002146
:1012600002F03CFB07E00125012714E004F1240013
:10127000022102F0B3FB0546002D2F460BD1DAF810
:101280004400002520F0E040D4F88C10084352467A
:10129000CAF8440037462078400626D5D4F898008E
:1012A0004FEAB020052809D8DFE800F011030B1140
:1012B0001111201D002102F011FB07E0012501267C
:1012C00014E004F12400022102F088FB0546002D01
:1012D0002E460BD1DAF84800002520F4E050D4F86F
:1012E000981008435246CAF848003E462078000647
:1012F00026D5D4F89C004FEA7030052809D8DFE8DD
:1013000000F011030B111111201D002102F0E6FA6B
:1013100007E00125012714E004F12400022102F076
:101320005DFB0546002D2F460BD1DAF8480000255D
:1013300020F46040D4F89C1008435246CAF8480094
:1013400037462068010716D5D4F88010B1F5805FC4
:1013500009D104F12400022102F040FB002818BF4B
:101360000127206807E0DAF84420534622F440526F
:101370001143CAF84410C10616D5D4F89410B1F53B
:10138000807F09D104F12400022102F027FB00280C
:1013900018BF0127206807E0DAF84820534622F4F6
:1013A00040721143CAF84810000321D5D4F8A000B8
:1013B000B0F5003F0ED0B0F5803F05D080BB201DBA
:1013C000002102F08BFA04E004F12400022102F073
:1013D00005FB0546002D2E460BD1DAF84800002506
:1013E00020F44030D4F8A01008435246CAF8480010
:1013F0003E46A07840072AD5D4F88400B0F5401FB7
:1014000017D0B0F5001F0ED0B0F5801F40F0AF80B0
:10141000DAF81C00514640F40030CAF81C0008E01D
:1014200001250126E5E704F12400012102F0D6FAA6
:101430000546002D2F460BD1DAF84400002520F494
:101440004010D4F8841008435246CAF84400374686
:10145000A078C00701D13E4621E0E06CB0F5803FA6
:1014600008D0D0B9DAF81C00514640F40030CAF870
:101470001C0004E0201D022102F030FA0546002D78
:101480002E460CD1DAF83C00002520F48030E16CC7
:1014900008435246CAF83C00DDE7012501262068D2
:1014A000810008D504F12400022102F097FA0028F7
:1014B00018BF01262068810319D5E16F6FF0010282
:1014C00002EB3122022A0AD34FEA31223AB1012A31
:1014D00050D1DAF81C2042F40032CAF81C203DB981
:1014E000DAF8442022F440721143CAF84410354619
:1014F000C10207D5DAF8401021F00041226F1143F4
:10150000CAF84010C10008D5DAF8001021F4804173
:10151000D4F8B4201143CAF80010810207D5DAF8D4
:10152000401021F08071A26E1143CAF840104100B2
:101530000CD5DAF8001021F40041CAF80010D4F8F4
:10154000B810DAF800201143CAF80010B0F1FF3FDC
:1015500007DCDAF83C0020F04050216D0843CAF85F
:101560003C00002D18BF01252846BDE8F087012565
:1015700001276DE70125BBE75346D4F8B00000F41E
:1015800040711A68B1F5407F22F47C5103D1064ABC
:1015900002EA1012114319606FF31F30196E002513
:1015A000084318668EE500BFCFFFFF002DE9F84322
:1015B000002800F0F68004467C4D286800F00F00FB
:1015C000884688420BD2286820F00F0040EA0800C5
:1015D0002860286800F00F00404540F0E280206855
:1015E000C64F41070AD52169BA6902F070029142DB
:1015F00004D9BA6922F070021143B96101070AD512
:101600006169FA6902F07002914204D9FA6922F024
:1016100070021143F961C1060AD5A169FA6902F4A1
:10162000E062914204D9FA6922F4E0621143F9615F
:1016300081060AD5E1693A6A02F07002914204D942
:101640003A6A22F070021143396210F002010AD0A6
:10165000E268BB6903F00F039A4204D9BB6923F027
:101660000F031A43BA61C20738D0B86920F4706119
:10167000D4E9010211430328B96105D0022807D13A
:10168000396889030DD48CE03968890109D488E070
:101690000128396802D1C90503D482E0490740F125
:1016A00080803969A94621F0070108433861FFF7B6
:1016B0001DF9064641F28835386900F03800616846
:1016C000B0EBC10F06D0FFF711F9801BA842F3D988
:1016D000032067E020684D4600F0020151B1E16847
:1016E000BA6902F00F02914204D2BA6922F00F02E5
:1016F0001143B961296801F00F0141450AD92968F0
:1017000021F00F0141EA08012960296801F00F0169
:10171000414546D141070AD52169BA6902F07002F4
:10172000914204D2BA6922F070021143B9610107F3
:101730000AD56169FA6902F07002914204D2FA692D
:1017400022F070021143F961C1060AD5A169FA6954
:1017500002F4E062914204D2FA6922F4E062114399
:10176000F96180060AD5E069396A01F070018842A2
:1017700004D2396A21F070010843386200F050F851
:10178000B969C1F30321254A0A4B515C084A01F0AB
:101790001F0120FA01F118681160BDE8F843FFF756
:1017A000D9B8012001B0BDE8F08300BF002000528D
:1017B000100000200C00002080B5FFF75FF90649FB
:1017C000164A096801F00F01515C01F01F01C84081
:1017D0000249086080BD00BF184402581400002070
:1017E00080B5FFF7E9FF0C490C4A0968C1F3021103
:1017F000515C01F01F01C84080BD00BF80B5FFF7FC
:10180000DBFF0549054A0968C1F30221515C01F07B
:101810001F01C84080BD00BF1C440258C44F0008CF
:1018200036490869C0F3C20003280CD0022828D02A
:1018300048BB08688006374858BF70470968C1F33D
:10184000C101C84070478A6A886AC0F3051CCB6A28
:10185000486B03F00103C0F3CC00BCF1000F03FBA5
:1018600000F000EE100AB8EE400A0ED002F00302BB
:10187000022A0CD072B9086880060ED49FED241A93
:1018800015E0204870471E487047002070479FEDC4
:101890001F1A0CE09FED1C1A09E008681D4AC0F3EE
:1018A000C10022FA00F001EE100AB8EE411A02EE71
:1018B00010CA9FED193AB8EE422A086B6FF35F2009
:1018C00081EE021A02EE100AB8EE422A086BC0F34B
:1018D000462000EE032AB7EE000A013032EE000A7D
:1018E00021EE000A01EE100AB8EE411A80EE010A5C
:1018F000BCEEC00A10EE100A704700BF0044025848
:1019000000093D0000127A000024744A0024F44AC1
:101910000024744C0090D00300000039F8B5002872
:1019200000F05B8104460078CF4EC0074AD0306992
:1019300000F03801B06A102905D0182909D100F04B
:101940000300022805D1306880033BD56068C8BB1E
:1019500043E1606868B1B0F5803F06D0B0F5A02FD4
:1019600030681CD140F480203060306840F4803012
:101970001BE0306820F480303060306820F4802034
:101980003060FEF7B3FF0546306880031AD5FEF7D6
:10199000ADFF401B64284FF00300F5D932E120F47D
:1019A00080303060306820F480203060FEF79EFF89
:1019B00005463068800305D4FEF798FF401B642875
:1019C000F7D91EE1207880075BD5306910F0380127
:1019D000B06A18D0182908BF5FEA807013D0E06899
:1019E0000028316836D021F0190108433060FEF735
:1019F0007DFF0546306840071FD4FEF777FF401B88
:101A00000228F7D9FDE030684007E06802D50028D9
:101A100000F0E380316821F0190108433060FEF7DF
:101A200065FF05463068400707D4FEF75FFF401B9F
:101A300002284FF00300F5D9E4E0FEF751FF41F230
:101A400003018842706816D820F47C30216940EA8E
:101A5000013015E021F001003060FEF747FF054638
:101A6000306840070DD5FEF741FF401B02284FF0BC
:101A70000300F5D9C6E020F0FE40216940EA01608C
:101A800070602078C0064ED5306900F03801B06A29
:101A9000082905D018290AD100F00300012806D131
:101AA0003068C00518D5E069802815D095E0E06958
:101AB0000028306826D040F080003060FEF716FF26
:101AC00005463068C00507D4FEF710FF401B02280A
:101AD0004FF00300F5D995E0FEF702FF41F2030154
:101AE000884207D8706820F0F840216A40EA816097
:101AF000706018E0F06820F07C50216A40EA0160D4
:101B0000F06010E020F080003060FEF7EFFE054648
:101B10003068C00507D5FEF7E9FE401B02284FF0EC
:101B20000300F5D96EE02078000723D5606900280E
:101B3000706F0ED040F001007067FEF7D7FE0546CB
:101B4000706F800716D4FEF7D1FE401B0228F7D92C
:101B500057E020F001007067FEF7C8FE0546706F81
:101B6000800707D5FEF7C2FE401B02284FF0030096
:101B7000F5D947E02078800623D5A0690028306891
:101B80000ED040F480503060FEF7B0FE054630685D
:101B9000800416D4FEF7AAFE401B0228F7D930E0D5
:101BA00020F480503060FEF7A1FE054630688004C6
:101BB00007D5FEF79BFE401B02284FF00300F5D926
:101BC00020E0207840070AD4656A002D00F0C68026
:101BD000306900F03800182825D1012012E0D6F82D
:101BE000000440F48070C6F80004FEF77FFE05464E
:101BF000D6F80004C00507D4FEF778FE401B642821
:101C0000F6D9032001B0F0BDA06878B3012806D052
:101C10000528306F40F0A48040F004003067306F3A
:101C200040F00100A2E0306820F080703060FEF7E4
:101C30005DFE022D05460AD1306880012ED5FEF7E3
:101C400055FE401B02284FF00300F5D9DAE7306853
:101C5000800140F18380FEF749FE401B03284FF0CE
:101C60000300F4D3CEE700BF00440258306F20F0E9
:101C700001003067306F20F004003067FEF736FE59
:101C8000054641F28837306F80079DD5FEF72EFE5E
:101C9000401BB8424FF00300F5D9B3E7B06A40F2F9
:101CA000F3318843A16A226B0843511E626B4FF4E3
:101CB0007E4303EB4222E36A6FF35F2192B240EA74
:101CC0000310B0625018A16B4FF4FE0202EB014109
:101CD00001F4FE010844E16B4FF0FE4202EB0161AA
:101CE00001F0FE41084430634FF6F871F06A20F0CD
:101CF0000100F062706B8843A16C40EAC100706320
:101D0000F06A20F00C00216C0843F062F06A20F0C9
:101D10000200616C0843F062F06A40F48030F062C7
:101D2000F06A40F40030F062F06A40F48020F06223
:101D3000F06A40F00100F062306840F0807030607E
:101D4000FEF7D4FD04463068800107D4FEF7CEFDCF
:101D5000001B02284FF00300F5D953E7002051E79C
:101D600020F001003067306F20F004003067FEF78C
:101D7000BDFD054641F28837306F80073FF524AF3F
:101D8000FEF7B4FD401BB8424FF00300F4D939E729
:101D9000F8B538B30446006800224D4DA842A2624F
:101DA00008D0724A904205D04A4A904202D0E26876
:101DB0000F2A17D8E1680123E26B083103EB5212B6
:101DC000C9084A43A8420BD04249884208D0674B11
:101DD000984218BF082A05D8884218BF984203D1F4
:101DE000102A01D9012071E094F8811031B9002046
:101DF00084F88000204600F06FF82068022184F803
:101E00008110016821F001010160D4F818C0BCF113
:101E1000806F616808BFB1F5800F07D1A16B19B958
:101E2000016841F4805101604FF48001E3690029A9
:101E3000A56AE26B43EA0503E56842EA030242EA67
:101E40000502D4F808E0D4E904768260626B656A22
:101E500042EA0C02A36B42EA050242EA0302236A49
:101E600042EA0702A76D42EA060242EA0302E36C75
:101E700042EA010242EA0302A36C42EA0E0242EA8B
:101E8000030242EA0702C2600CD0026D490222F04E
:101E90000102026514D5C16821F00041626D114351
:101EA000C1600DE08168012262F3CC2102228160D1
:101EB000816862F34A218160016D21F001010165B1
:101EC00000200121C4F8840084F8811001B0F0BD25
:101ED00000380040003001402DE9F04186B0044652
:101EE00001A81421FEF72CFA2068204988423AD133
:101EF0001F4881684FF0020841F400411D4D816088
:101F000000278168032601F40041009101AC00998B
:101F1000016841F002010160016801F002010091D5
:101F20000099016841F0040101602146006800F059
:101F3000040000900098042001900720CDF808804C
:101F40000397049605902846FEF706FC4FF4406080
:101F5000CDE901080620CDE90376059005F58060FE
:101F60002146FEF7F9FB06B0BDE8F081003C0040D9
:101F7000E0440258000402582DE9F843044690F862
:101F8000800001285FD001201D4684F8800017469C
:101F90000E46FEF7ABFC94F88110012950D1002EBB
:101FA00055D0002F53D08046032084F881000020B4
:101FB000C4F88400E665A4F86070A4F862706066F6
:101FC000A4F86800A4F86A002067A1686067B1F50A
:101FD000C02F206803D1016841F4006101604168AD
:101FE0004FF6FF72914339444160016841F00101AD
:101FF00001606168B1F5800F03D1016841F400719F
:102000000160E068102827D36E1C14E02068416945
:10201000890707D4FEF76AFC6EB1A0EB0800A8425E
:1020200009D3A2E0E16D04C90262E165B4F862007F
:102030000138A4F86200B4F862000028E6D179E023
:10204000002084F88000022001B0BDE8F083002069
:1020500084F880000120F7E707282DD94FF6FC709F
:102060006E1C00F10209C71C21E020684169890744
:1020700007D4FEF73BFCD6B1A0EB0800A84216D36C
:1020800073E0B4F86210022906D3E16B21B1E16D6F
:1020900004C90262484604E0E16D31F8022B028473
:1020A0003846E165B4F862100844A4F86200B4F858
:1020B00062000028D9D13DE04FF6FC706E1C00F1A3
:1020C0000209C71C32E020684169890707D4FEF77E
:1020D0000DFC5EB3A0EB0800A84227D345E0B4F89E
:1020E0006210042908D3E16B412905D3E16D04C9CD
:1020F00002624FF6FC700AE0B4F86210022908D3BD
:10210000E16B31B1E16D31F8022B02844846E165A3
:1021100007E0E16D097880F82010E06D0130E0659E
:102120003846B4F862100844A4F86200B4F86200BB
:102130000028C8D1204641462A4601F02CFD28B18E
:10214000D4F8840040F02000C4F88400204601F058
:10215000C7FC002084F88000012084F88100D4F8B6
:102160008400002818BF01206EE7204601F0B8FC6B
:10217000002084F88000D4F8840040F48070C4F813
:102180008400012084F881005EE70000411E0020E9
:10219000B0EB116F01D001207047044A5160F0216B
:1021A000034B1970072190601160704710E000E048
:1021B00023ED00E0704770477047000090F83C2026
:1021C000012A01D1022145E010B5D0F800C03B4CF6
:1021D0004CF48063CA68A3428B6822F47C524C683A
:1021E00023F4705342EA03021B4B03EA040342EA5E
:1021F00003020B6823F4772342EA03020B6923F4FA
:10220000762342EA03024B6942EA03028B6A22F414
:10221000742223F4702342EA03028B694FF0010415
:1022200042EA034380F83C400DD123F07C724B6AB4
:102230000A4C04EA0353CC691A4324F00073096A78
:102240001A4342EA01030021CCF8443080F83C10E4
:10225000BDE8104008467047FF87F0FF0000F0FC23
:1022600090F83C20012A4FF0020224D010B54FF024
:10227000010C124C80F83CC080F83D20026842F40A
:10228000806E5368A645D2F808E002BF23F47003BD
:102290004C68234323F070030C68234389682EF0B5
:1022A0008004536021439160002280F83DC080F893
:1022B0003C20BDE810401046704700BF00040140BC
:1022C000B0B110B5044690F83D0028B9002084F85C
:1022D0003C00204600F00EF8022084F83D00211D4D
:1022E000206801F021FD012084F83D00002010BD90
:1022F00001207047F8B50068B0F1804F10D0FD495B
:10230000884222D0FC49884229D11548816841F091
:1023100001018160806800F00100039003988FBD87
:102320000F480168002241F00101016000210068AE
:1023300000F00100029002981C20FEF74BFB1C20CD
:1023400004B0BDE88040FEF737BB0548016841F0A6
:1023500004010160006800F00400019001988FBD45
:10236000E844025802220A4B80F83D2001460068EA
:1023700082681A40062A18BFB2F5803F03D002686F
:1023800042F0010202600122002081F83D207047E6
:1023900007000100B0B5044690F83C0001284FF05A
:1023A000020032D001223E4D84F83C2084F83D00EA
:1023B0002068024652F8083F2B4013600B68BBB1FF
:1023C000102B15D0202B18BF302B11D0402B34D020
:1023D000502B3ED0602B48D03248834208D0B3F512
:1023E000005F4ED0B3F5801F18BFB3F1101F0DD1A1
:1023F00010682F490840184340F007001060012082
:1024000084F83D00002084F83C00B0BD264883429B
:10241000EED026488342EBD0702BF0D1D1E90103F6
:10242000C9681843156840EA012025F47F45284310
:102430001060106840F07700E0E74B68CA68194602
:1024400001F08EFE22681A4952F8080F0840473002
:10245000D4E74B68CA68194601F082FE2268144925
:1024600052F8080F08405730C8E74B68CA68194649
:1024700001F087FE22680E4952F8080F08406730C5
:10248000BCE7D1E90103C9681843156840EA012097
:1024900025F47F4528431060106840F48040ADE784
:1024A0008800CEFF40001000200010003000100017
:1024B00088FFCFFF704710B504460068016989079F
:1024C00044BFC1685FEA81713FD40169490744BFD5
:1024D000C1685FEA417144D40169090744BFC1681A
:1024E0005FEA01714AD40169C90644BFC1685FEA65
:1024F000C1614FD40169C9071CBFC1685FEAC171DE
:1025000055D10169090644BFC1685FEA016156D42B
:102510000169C90544BFC1685FEA016157D4016917
:10252000490644BFC1685FEA416158D40169890620
:1025300046BFC1685FEA816110BD6FF02001016193
:102540002046BDE81040FFF737BE6FF00201016181
:10255000012121778069800749D02046FFF7AAFF33
:102560004BE06FF00401016102212177806910F4D2
:10257000407F46D02046FFF79DFF48E06FF00801FE
:10258000016104212177C069800744D02046FFF70C
:1025900091FF46E06FF01001016108212177C069C9
:1025A00010F4407F41D02046FFF784FF43E06FF0F6
:1025B00001010161204600F059F92068A1E76FF0A0
:1025C000800101612046FFF7F6FD2068A0E76FF467
:1025D000807101612046FFF7EDFD20689FE76FF0F5
:1025E00040010161204600F066F920689EE7204620
:1025F00000F088F8204600F002F9002020772068DB
:1026000063E7204600F07EF8204600F0F8F800204E
:102610002077206860E7204600F074F8204600F03C
:10262000EEF80020207720685DE7204600F06AF889
:10263000204600F0E4F80020207720685AE70000E8
:1026400010B586B0044601A81421FDF779FE206874
:10265000B0F1804F1DD0274988422FD07D49884254
:1026600045D12648016841F010010160006800F082
:102670001000009000984FF400700190022002902A
:102680000020CDE90300012005901D4800F5805091
:102690002AE01A48016841F0010101600221006846
:1026A00000F00100009000980120019002910021AB
:1026B000CDE90311059001A9114816E00F48016802
:1026C00041F0080101600021006800F0080000905E
:1026D00000984FF40050019002200290CDE90311C0
:1026E0000590074800F5406001A9FEF735F806B0EF
:1026F00010BD00BF0008004000000140E044025847
:10270000000002587047000070B5044690F83C0085
:1027100001284FF0020056D00D464FEAB2010126C3
:10272000052984F83C6084F83D0047D8DFE801F0D3
:10273000030B131B23332068294601F077FB206825
:1027400050F8181F1EE02068294601F0ABFB2068F6
:1027500050F8181F26E02068294601F0E1FB2068A8
:1027600050F81C1F0EE02068294601F015FC206877
:1027700050F81C1F16E02068294601F03DFC206837
:1027800050F8541F41F008010160016821F0040174
:10279000016029690FE02068294601F05FFC20688C
:1027A00050F8541F41F400610160016821F4806118
:1027B000016029690902026811430160002084F860
:1027C0003D6084F83C0070BDB0B110B5044690F88F
:1027D0003D0028B9002084F83C00204600F00EF8A7
:1027E000022084F83D00211D206801F09DFA01209F
:1027F00084F83D00002010BD0120704770477047ED
:1028000010B504460068012201F000FB2068114960
:1028100088421CBF104988420DD1416C41F40041EF
:1028200041648168104A1140062918BFB1F5803F04
:102830000BD1002010BD09498842EED008498842DA
:10284000EBD008498842E8D0EBE7016841F001018C
:102850000160EEE70000014000040140004001403B
:102860000048014000440140070001007047B0B536
:10287000044690F83C0001284FF002001AD00125D0
:1028800084F83C5084F83D00204601F021FC0028EB
:102890004FF0010009D12068C16821F04001C160FA
:1028A000C16821F48041C1600020002184F83D50BE
:1028B00084F83C10B0BD704790F87C10012901D11C
:1028C000022112E02421C0F8801002681368116808
:1028D00023F0005321F001011160002141661360D3
:1028E0002022C0F8802080F87C100846704770478E
:1028F000B0B5044690F87C00012801D10220B0BD9B
:10290000012084F87C002420C4F880002068056839
:10291000026822F001020260826822F060621143C4
:102920008160204601F046FC206805602020C4F844
:102930008000002084F87C00B0BDB0B5044690F85B
:102940007C00012801D10220B0BD012084F87C0068
:102950002420C4F8800020680568026822F0010283
:102960000260826822F0604211438160204601F0DB
:1029700021FC206805602020C4F88000002084F835
:102980007C00B0BD7047704770470000B0B504468A
:102990000068C26940F60F01D0F800E00A4283687F
:1029A00000F07F806B4903EA010C6B4901EA0E01DC
:1029B00011EB0C0100F08080D10718BF1EF480716C
:1029C00007D001210162D4F8881041F00101C4F858
:1029D0008810910703F0010108D539B1022505627D
:1029E000D4F8885045F00405C4F88850550708D538
:1029F00039B104210162D4F8881041F00201C4F811
:102A0000881011070CD50EF0200151EA0C0107D0F7
:102A100008210162D4F8881041F00801C4F8881038
:102A200011050BD51EF0806108D04FF400610162E2
:102A3000D4F8881041F02001C4F88810D4F8881028
:102A4000002971D091060AD50EF0200103F08052C2
:102A5000891804D0E16E11B1204688472068D4F867
:102A60008810806801F0280100F04000401855D01F
:102A7000204601F067FC20688168490649D58168D5
:102A800021F040018160A06F002842D033490165E8
:102A9000FDF790FD002847D0A06F016DBDE8B04064
:102AA0000847910608D50EF0200C03F0805111EB79
:102AB0000C0101D0E16E15E0D1020AD513F48001BA
:102AC00007D04FF4801101622046BDE8B040FFF707
:102AD0005ABF11060BD50EF0800103F40003C9188C
:102AE00005D0216F01B32046BDE8B040084702EA97
:102AF0000E01490619D5016821F04001016020202E
:102B0000C4F88000002020672046BDE8B04000F0F7
:102B1000E6B92046BDE8B040FFF736BF2046FFF7D4
:102B200033FF0020C4F88800B0BD100207D51EF0A6
:102B3000804004D02046BDE8B040FFF723BFD0015D
:102B4000F2D5BEF1FF3FEFDC2046BDE8B040FFF715
:102B5000CEBE00BF01000010200100043343000876
:102B600010B5B0B10446D0F8800028B9002084F830
:102B70007C00204600F026F82420C4F8800020685D
:102B8000016821F001010160204601F0E7FC012805
:102B900001D1012010BDA06A10B1204601F034FB24
:102BA0002068416821F490414160816821F02A0148
:102BB0008160016841F0010101602046BDE81040DC
:102BC00001F085BB10B586B0044601A81421FDF7BD
:102BD000B7FB20688F4988422DD03F49884256D0A4
:102BE0003E49884275D13E48816841F48011816038
:102BF000816801F4801100910099016841F002019F
:102C0000016001A9006800F00200009000984FF4F4
:102C100040500190022002900020CDE903000E20D8
:102C200005903048FDF798FD352000210022FDF782
:102C3000D1FE352028E02A48816841F48021816056
:102C4000816801F4802100910099016841F0080138
:102C5000016001A9006800F00800009000984FF49E
:102C600040700190022002900020CDE9030007206F
:102C700005901C4800F50060FDF76EFD272001213E
:102C80000022FDF7A7FE2720FDF796FE21E014485D
:102C9000016941F020010161016901F02001009109
:102CA0000099016841F00401016001A9006800F089
:102CB000040000900098C0200190022002900020A3
:102CC000CDE9030007200590064800F58060FDF778
:102CD00043FD06B010BD00BF00140140005000408D
:102CE000E04402580004025880B5D0F88430202B0C
:102CF00009D100294FF0010318BF002A04D090F831
:102D00007C30012B02D10223184680BD012380F8BC
:102D10007C3081650021A0F85C20A0F85E20D0F80E
:102D200008C0BCF1000FC1660AD0BCF1805F0BD0B7
:102D3000BCF5805F0CD1016921B940F2FF110AE0B6
:102D4000016939B9FF2106E0016919B13F2102E0AB
:102D5000002100E07F21A0F860100021C0F8881059
:102D60002221C0F88410D0F800E0436EDEF808108D
:102D7000B3F1005F41F00101CEF8081003D1B0F8C3
:102D80006810914210D9BCF5805F01D1016991B101
:102D9000164A0023C26680F87C30DEF8000040F45A
:102DA0009070CEF80000AFE7BCF5805F01D10169FB
:102DB00019B10C4A02E00C4AEBE7094A0023C2664B
:102DC00080F87C30DEF8000040F48070CEF800001F
:102DD000DEF8080040F08050CEF8080094E700BF0D
:102DE000C1430008B9440008654300085D44000879
:102DF000B0B504460068074DA84202D101F0B8FF03
:102E0000206805F50061884218BFB0BDBDE8B0403C
:102E100001F0B8BF004800402DE9F8430446D0F85F
:102E2000800020280AD10E4600294FF0010706D065
:102E3000154622B194F87C00012804D102273846B7
:102E400001B0BDE8F083012084F87C000027212038
:102E5000C4F888709946C4F88000FDF747FDA4F8CF
:102E600054508046A4F85650A168B1F5805F20D137
:102E70002069002814BF30463746064619E08021F5
:102E8000CDF8009000222046434601F0D5FEF0B96F
:102E90001EB116F8010B216805E037F8020B002679
:102EA00021686FF35F208862B4F856000138A4F8F7
:102EB0005600B4F856000028E1D14021CDF800902A
:102EC000002220464346002701F0B6FE08B1032742
:102ED000B5E72020C4F8800084F87C70AFE7704725
:102EE000FEE7000070B5654C0F21654E00222046BC
:102EF0000025B047072101222046B04708210022C3
:102F00002046B047206900F0F000F02808D00A20E1
:102F1000FDF712FC206900F0F000F0284DD15CE0D4
:102F20000F2100222046B0470B2101222046B04746
:102F3000042100222046B047206900F0F000F0286C
:102F400007D00A20FDF7F8FB206900F0F000F02818
:102F500047D10F2100222046B0470D2101222046F3
:102F6000B047022100222046B047206900F0F0005F
:102F7000F02807D00A20FDF7DFFB206900F0F00001
:102F8000F02840D10F2100222046B0470E21012217
:102F90002046B047012100222046B047206900F0BA
:102FA000F000F02807D00A20FDF7C6FB206900F0EA
:102FB000F000F02839D1284670BD206900F0F700F4
:102FC00077384FEA3010072807D80125DFE800F0EE
:102FD000070505053F054104A2E70025A0E70425F4
:102FE0009EE7206900F0FB007B384FEA301007288D
:102FF0003DD80525DFE800F0053B3B3B2F3B310486
:10300000A7E70825A5E7206900F0FD007D384FEA15
:10301000301007282DD80925DFE800F0052B2B2BD1
:10302000212B2304AEE70C25ACE7206900F0FE005D
:103030007E384FEA301007281DD80D25DFE800F054
:10304000051B1B1B131B1504B5E71025B3E7032550
:1030500066E7022564E707257BE7062579E70B2568
:1030600090E70A258EE70F25A5E70E25A3E70025A3
:103070006FE7002586E700259DE700BF000C02589A
:10308000D5080008E0B5FF204FF480518DF8070007
:103090000122B248FDF71EFC3220FDF74DFB0DF179
:1030A0000701034801220323FEF766FF8CBD00BF22
:1030B0002800002070B504460020002140F23F1295
:1030C000EF23002500F0DAF808E0F02603E02046C0
:1030D00000F020F9013E002EF9D10135B5F5A07FB1
:1030E000F3D170BDB0B5FFF7CDFF00F0B1F87B4D67
:1030F000CB20A847554C3920A0472C20A0470020C2
:10310000A0473420A0470220A047CF20A847002096
:10311000A047C120A0473020A047E820A84785202D
:10312000A0470020A0477820A047EA20A847002019
:10313000A0470020A047ED20A8476420A047032017
:10314000A0471220A0478120A047F720A8472020B1
:10315000A047C020A8472320A047C120A84710208F
:10316000A047C520A8473E20A0472820A047C72049
:10317000A8478620A0473620A847E820A0473A2045
:10318000A8475520A047B120A8470020A0471820F5
:10319000A047B620A8470820A0478220A0472720A4
:1031A000A047F220A8470020A0472620A8470120DA
:1031B000A047E020A8470F20A0473120A0472B20A0
:1031C000A0470C20A0470E20A0470820A0474E2073
:1031D000A047F120A0473720A0470720A047102094
:1031E000A0470320A0470E20A0470920A0470020A9
:1031F000A047E120A8470020A0470E20A0471420A8
:10320000A0470320A0471120A0470720A047312056
:10321000A047C120A0474820A0470820A0470F2072
:10322000A0470C20A0473120A0473620A0470F2000
:10323000A0471120A8477820FDF77EFA2920A8474B
:103240002C202946BDE8B040084700BFE132000805
:1032500010B54FF48051414C00222046FDF73AFB57
:103260006420FDF769FA4FF4805101222046FDF7F2
:1032700031FB3220BDE81040FDF75EBA2DE9F8437E
:103280000746DFF858902A20984615460E46C8474C
:10329000074C3846A0472846A0472B20C847304651
:1032A000A0474046A0472C204946BDE8F8430847C0
:1032B0001533000870B50546084E2A200C46B04765
:1032C000284600F027F82B20B047204600F022F8CF
:1032D0002C203146BDE87040084700BF2933000864
:1032E00070B50546794E4FF480711C4C0022204683
:1032F000B0474FF4007101222046B047284600F045
:103300005FFC4FF48071012220463346BDE87040D7
:10331000184700BF10B50446000AFFF7E1FFE0B20E
:10332000BDE81040FFF7DCBF70B50546674E4FF4AF
:1033300080710A4C00222046B0474FF400710022F1
:103340002046B047284600F03BFC4FF48071012234
:1033500020463346BDE87040184700BF00080258B9
:103360002DE9F04F87B04FF000085648564D574CA6
:10337000CDE90588016805F5805741F00401016039
:10338000012201684FF0010901F004010191019946
:10339000016841F020010160016801F02001019104
:1033A0000199016841F080010160016801F080012C
:1033B00001910199016841F001010160016801F08A
:1033C000010101910199016841F002010160016868
:1033D00001F0020101910199016841F010010160C1
:1033E000016801F0100101910199016841F00801A3
:1033F00001600221006800F0080001900198384641
:10340000A047042100223846A0474FF48141002202
:103410002846A04705F5006A4FF480510122504626
:10342000A04705F580664FF4985100223046A0472A
:103430000F2100225046A0474FF40050254C029027
:10344000234802ADCDE9030830462946A0470620AF
:10345000CDE902094FF0030BCDF810803846CDF8C6
:1034600014B02946A0474FF481402946CDE902090E
:10347000CDE904881448A04741F20F00CDE90209C4
:1034800050462946CDE90488A0474FF48850CDE93D
:10349000020930462946CDE9048BA0474FF400705D
:1034A000CDE9020930462946CDE90488A047F0203D
:1034B00002A981E8010350462946A04707B0BDE8AC
:1034C000F08F00BFE044025800040258D5080008FD
:1034D000000011115907000810B5144C14484FF49E
:1034E00080012060002061600721A0604FF0007221
:1034F000E1604FF0807122614FF0806261614FF0B6
:103500000051C4E90621C4E90800C4E90A0004F135
:1035100034002821FCF714FF2046FEF739FC18B1CF
:10352000BDE81040FCF7F1BF10BD00BF280000202F
:10353000003C0040B0B59EB0002515A81421CDE98F
:103540001C55CDE91A55FCF7FBFE0BAC14951C215C
:103550002046CDE91255FCF7F3FE68462C21FCF716
:10356000EFFE2F482F490322C0E9001247F22F51E6
:10357000C0E90251C0E904558561FEF7A1FE08B11A
:10358000FCF7C3FF4FF480501A901AA92448FEF7A5
:1035900001FF08B1FCF7B9FF2148FFF715F908B1A1
:1035A000FCF7B3FF00251E4815A9CDE91555FFF717
:1035B0005EF908B1FCF7A9FF194812A9CDE9125527
:1035C0001495FEF74DFE08B1FCF79FFF60200B90AD
:1035D000201D1821FCF7B4FE1148002221460025C9
:1035E000FFF792F808B1FCF790FF6C4614212046D3
:1035F000FCF7A6FE4FF40050CDE905054FF0007032
:103600000795CDE90805064821460A95FEF7D6FD3F
:1036100008B1FCF77AFF0248FFF712F81EB0B0BD00
:10362000B00000200000014010B594B000240BA8A9
:103630001421CDE91244CDE91044FCF781FE01A824
:103640000A941C21CDE90844FCF77AFE23484FF088
:103650008041EF22C0E9001240F2E731C0E90241A7
:1036600004618461FEF72CFE08B1FCF74EFF4FF4B5
:103670008050109010A91948FEF78CFE08B1FCF795
:1036800044FF1648FFF7A0F808B1FCF73EFF0024FE
:1036900012480BA9CDE90B44FFF7E9F808B1FCF794
:1036A00034FF0E4808A908940A94FEF7D9FD08B122
:1036B000FCF72BFF602001900020CDE9020005906F
:1036C00001A906480022FFF71FF808B1FCF71DFF0B
:1036D0000248FEF7B5FF14B010BD00BFF000002097
:1036E00010B594B000240BA81421CDE91244CDE903
:1036F0001044FCF725FE01A80A941C21CDE90844DA
:10370000FCF71EFE23482449EF22C0E9001244F6CC
:103710002061C0E9024104618461FEF7D1FD08B176
:10372000FCF7F3FE4FF48050109010A91948FEF7F3
:1037300031FE08B1FCF7E9FE1648FFF745F808B17D
:10374000FCF7E3FE002413480BA9CDE90B44FFF777
:103750008EF808B1FCF7D9FE0E4808A908940A941F
:10376000FEF77EFD08B1FCF7D0FE602001904FF41B
:10377000E16002900020039001A905900422054811
:10378000FEF7C2FF08B1FCF7C0FE0248FEF758FF83
:1037900014B010BD300100200008004010B5174CD7
:1037A00017484FF4E13120600020C4E901100C21DA
:1037B000E060C4E9040104F118001421FCF7C0FD25
:1037C0002046FFF7CDF908B1FCF79FFE0B4800211A
:1037D000FFF7B3F808B1FCF798FE08480021FFF79F
:1037E00087F808B1FCF791FE0448FFF765F818B1B7
:1037F000BDE81040FCF789BE10BD00BFFC010020F1
:103800000050004010B5174C17484FF4E1312060CC
:103810000020C4E901100C21E060C4E9040104F1B6
:1038200018001421FCF78CFD2046FFF799F908B128
:10383000FCF76BFE0B480021FFF77FF808B1FCF79F
:1038400064FE08480021FFF753F808B1FCF75DFE5D
:103850000448FFF731F818B1BDE81040FCF755BE39
:1038600010BD00BF700100200048004010B5174C8B
:1038700017484FF4E13120600020C4E901100C2109
:10388000E060C4E9040104F118001421FCF758FDBC
:103890002046FFF765F908B1FCF737FE0B48002119
:1038A000FFF74BF808B1FCF730FE08480021FFF79E
:1038B0001FF808B1FCF729FE0448FEF7FDFF18B118
:1038C000BDE81040FCF721BE10BD00BF88020020FB
:1038D00000140140FEE7704770470000F8B57F4FC5
:1038E000BA6A02F00302032A01D1012074E00546FE
:1038F000386820F080600C463860FCF7F7FF064619
:103900003868000105D5FCF7F1FF801B0228F7D9C4
:103910005FE0B86A4FF47E43696820F47C30AA689F
:10392000013903EB42222B686FF35F2192B240EA28
:1039300003301144EA684FF4FE03B86203EB02421D
:1039400002F4FE02881829694FF0FE4202EB016181
:1039500001F0FE410844B863002CF86A20F0C00072
:10396000696940EA0100F862F86A20F02000A9695C
:1039700040EA0100F8624FF6F871F86A20F0100092
:10398000F862F86B20EA0100E96940EAC100F863D7
:10399000F86A40F01000F86205D0012CF86A06D1F0
:1039A00040F4801005E0F86A40F4002001E040F4A3
:1039B0000010F862386840F080603860FCF796FFCD
:1039C00004463868000106D4FCF790FF001B03286A
:1039D000F7D3032000E0002001B0F0BDF8B5CB4FD5
:1039E000BA6A02F00302032A01D1012074E00546FD
:1039F000386820F080500C463860FCF777FF0646A8
:103A00003868800005D5FCF771FF801B0228F7D9C4
:103A10005FE0B86A4FF47E43696820F07C70AA6862
:103A2000013903EB42222B686FF35F2192B240EA27
:103A300003501144EA684FF4FE03B86203EB0242FC
:103A400002F4FE02881829694FF0FE4202EB016180
:103A500001F0FE4108443864002CF86A20F440600C
:103A6000696940EA0100F862F86A20F40070A96907
:103A700040EA0100F8624FF6F871F86A20F48070AD
:103A8000F862786C20EA0100E96940EAC1007864D4
:103A9000F86A40F48070F86205D0012CF86A06D10B
:103AA00040F4000005E0F86A40F4800001E040F0D6
:103AB0008070F862386840F080503860FCF716FF7C
:103AC00004463868800006D4FCF710FF001B03286A
:103AD000F7D3032000E0002001B0F0BD00440258FD
:103AE000016840F26F32D1F814C08B6943F00803CB
:103AF0008B618B6943F010038B610B6823F001032A
:103B00000B600B6923EA02020A618A6822F44042D0
:103B10008A605FEA8C6290F881300BD5042B09D063
:103B2000D0F8842042F08002C0F884208A6942F0F4
:103B300020028A6190F881305FEA4C620BD5032B3A
:103B400009D0D0F8842042F00402C0F884208A69A9
:103B500042F040028A615FEA8C5209D5D0F8842095
:103B600042F00102C0F884208A6942F400728A613E
:103B70005FEACC5209D5D0F8842042F00802C0F8A0
:103B800084208A6942F480728A610021A0F8621060
:103B9000A0F86A107047F8B514460D460646571C43
:103BA00030684069000708D4FCF7A0FE002FF7D06A
:103BB000401BA042F4D3032000E0002001B0F0BD80
:103BC000E0B58DF807000DF107010122024803233B
:103BD000FEF7D2F98CBD00BF280000207047FCF72B
:103BE00089BE000010B5CCB039A82D4C4C21FCF793
:103BF000A7FB31A82021FCF7A3FB02A8BC21FCF7FE
:103C00009FFB0220FCF716FF00200190206840F483
:103C100040402060206800F4404001902148016845
:103C200041F001010160006800F00100019001987D
:103C300020688004FCD501204FF4A02139903A91EE
:103C40000221CDE9421144907820CDE945010420BC
:103C5000CDE947010C204990002439A8CDE94A4418
:103C6000FDF75CFE3F2031900320CDE932040820AF
:103C7000349040204FF48061CDE93500CDE9371014
:103C800031A80421FDF792FC41F20300029002A842
:103C90001994CDE91F44FDF723F84CB010BD00BFC7
:103CA000184802582C04005810B51748D0F8801056
:103CB000174C41F47001C0F8801014490A6842F0B2
:103CC00001020A6000220A610B6823400B608A61CE
:103CD000CA610A628A62CA620A634A638A63CA6301
:103CE0000A644A640B6823F480230B600A6609495E
:103CF0000968B2EB517F02D10121074A11604FF0F0
:103D00000061016010BD00BF08ED00E000440258F2
:103D10007FEDF6EA0010005C088100510148FEF7D3
:103D2000CABB00BFF0000020F0B5B0F1804F0368BF
:103D3000C94A05D0324CA0421CBF324CA04234D1FB
:103D400023F070034C68234302F58044041BB4FA4B
:103D500084F44FEA541C02F58844041BB4FA84F43A
:103D60004FEA541E02F59044041BB4FA84F464092B
:103D700023F44073CD682B4323F080034E690D6814
:103D800033438F68002C0360C762856208BFBEF1B1
:103D9000000F05D190421CBF02F5806290422BD1EA
:103DA0000969016301214161F0BD174CA042C7D0F0
:103DB000C34CA04218BF9042C2D002F58044C14D0E
:103DC000041BB4FA84F44FEA541C02F58844041B23
:103DD000B4FA84F44FEA541E02F59044041BB4FA7A
:103DE00084F4A8424FEA5414C2D0B74DA842BFD0C1
:103DF000B64DA842BCD0BFE7BCF1000FD2D0CFE790
:103E00000004004000080040000C004001F01F01C9
:103E1000012303FA01FC036A23EA0C03036202FA9A
:103E200001F1026A1143016270470000B0B5026AF5
:103E30001B4C22F001020262036AD0F804E082699E
:103E400022400C6842EA040C9C4C23F002028B686E
:103E5000A04243EA02051CBF994A904215D1CB68A3
:103E600025F00C0223F0040343EA02054A692EF40C
:103E700040748B69224342EA030EC0F804E0C0F8A4
:103E800018C0496841630562B0BD8E4A9042E6D0D1
:103E90008D4A9042E3D08D4A9042E0D0EDE700BFDA
:103EA0008CFFFEFFB0B5026A1C4C22F010020262C9
:103EB000036AD0F804E0826922400C6842EA042CCC
:103EC0007E4C23F020028B68A04242EA03150BD0FF
:103ED0007D4A904211D07B4A90420ED07B4A90425C
:103EE0000BD0774A904210D1CB686FF0400425F098
:103EF000C00204EA031343EA02052EF44062D1E94A
:103F0000054342EA840242EA830EC0F804E0C0F8A6
:103F100018C0496881630562B0BD00BFFF8CFFFE19
:103F2000B0B5026A22F480720262046AD0F804E03A
:103F3000C36923F073030A6843EA020C8B6824F414
:103F400000725E4CA04242EA03250BD05E4B9842C1
:103F500011D05C4B98420ED05C4B98420BD0584B22
:103F6000984210D1CB6840F2FF441B0225F4406216
:103F7000A34343EA02052EF44053D1E9054243EA44
:103F8000041343EA021EC0F804E0C0F81CC04968EC
:103F9000C1630562B0BD00BF10B5026A22F4805251
:103FA0000262046AD0F804E0C26922F4E6420B68B7
:103FB00042EA032C8B6824F40052404CA04242EAAF
:103FC00003331CBF3E4A90420CD12EF480424C6910
:103FD00042EA841EC0F804E0C0F81CC049680164CD
:103FE000036210BD374A9042EFD0374A9042ECD07E
:103FF000364A9042E9D0EDE710B5026A22F48032E9
:104000000262046AD0F804E0426D22F070020B688C
:1040100042EA030C8B6824F40032284CA04242EAA6
:1040200003431CBF264A90420CD12EF480324C69C7
:1040300042EA042EC0F804E0C0F854C04968816523
:10404000036210BD1F4A9042EFD01F4A9042ECD04D
:104050001E4A9042E9D0EDE70000014010B5026A27
:1040600022F480120262046AD0F804E0426D22F465
:10407000E0420B6842EA032C8B6824F400120F4CD8
:10408000A04242EA03531CBF0D4A90420CD12EF4C9
:1040900000324C6942EA842EC0F804E0C0F854C0F3
:1040A0004968C165036210BD064A9042EFD0064AD6
:1040B0009042ECD0054A9042E9D0EDE70000014083
:1040C000000401400040014000480140004401401C
:1040D00010B50068204B214C826813404A68144098
:1040E000D1F800C02343403A43EA0C044FEA3213AC
:1040F0008460032B2DD8DFE803F00219070DBCF113
:10410000050F19D1012010BD8B680A69194600F00E
:1041100038F81EE0D1E9022309691A43846842EAAB
:10412000012124F47F442143816012E08B680A69F5
:10413000194600F015F80CE0026A036A23F0010347
:104140000362836923F0F003096943EA0111816185
:104150000262002010BD00BF88FFCEFFF8FFFEFF07
:10416000D0F820C0036A23F001030362836923F0BF
:10417000F00343EA02122CF00A0382611943016240
:104180007047036A23F010030362836923F47043CA
:10419000D0F820C043EA02322CF0A003826143EA47
:1041A00001110162704700000148FEF7EFBB00BF3C
:1041B000FC010020416ED9B180B501688A68C2F364
:1041C00042628968490FDFF838C01CF80130DFF817
:1041D00034E01EF80110DB00B3FBF1F11CF80230F3
:1041E0001EF80220DB00B3FBF2F2BDE8804001E0E4
:1041F00001210122A0F86A10A0F86820704700BFD2
:10420000D44F0008DC4F0008816ACA0708D0026852
:10421000D0F82CC0536823F4003343EA0C035360F6
:104220008A0708D50268D0F830C0536823F4803379
:1042300043EA0C0353604A0708D50268D0F834C03B
:10424000536823F4802343EA0C0353600A0708D51C
:104250000268D0F838C0536823F4004343EA0C03E3
:104260005360CA0608D50268D0F83CC0936823F4AE
:10427000805343EA0C0393608A0608D50268D0F89D
:1042800040C0936823F4005343EA0C0393604A064A
:1042900012D50268D0F844C05368BCF5801F23F4DF
:1042A000801343EA0C03536006D1536823F4C00C17
:1042B000836C43EA0C035360090658BF70470168DA
:1042C000C06C4A6822F40022104348607047BCB5B5
:1042D00000210446C0F88810FCF708FB2168054659
:1042E0000A6812070BD56FF07E404FF40011009062
:1042F000002220462B4600F09FFC70B92168086818
:1043000040070CD56FF07E404FF4800100900022F2
:1043100020462B4600F090FC08B1032007E0202047
:10432000C4F88000C4F88400002084F87C0002B047
:10433000B0BD806B0021A0F85E10A0F85610FEF70B
:1043400023BB00000168834B0A6822F490720A6064
:104350008A681A408A602021C0F884100021C16652
:10436000704700BFB0F860200168D0F88430222B7D
:1043700020D1D1F824C0836D02EA0C0223F8022B6D
:104380008365B0F85E20013AA0F85E20B0F85E20A8
:10439000002A18BF70470A6822F490720A608A687F
:1043A00022F001028A602021C0F884100021C16639
:1043B000FEF71EBD886940F0080088617047000064
:1043C0002DE9F8430446B0F86050D0F88400222864
:1043D0003BD1B4F868604FF020084FF000095D4F02
:1043E0001DE02068A16D426A2A4021F8022BA165D8
:1043F000B4F85E100139A4F85E10B4F85E1069B923
:10440000016821F480710160816839408160204633
:10441000C4F88480C4F86C90FEF7EAFC013E3004D6
:10442000DFD1B4F85E00A8B1B4F86810884211D2A8
:104430002068816821F0805181600749E166016848
:1044400041F020010160BDE8F8832068816941F0F6
:1044500008018161BDE8F88365430008B0F8602079
:104460000168D0F88430222B20D1496A1140826D36
:104470001170816D01318165B0F85E100139A0F8CD
:104480005E10B0F85E10002918BF704701680A6816
:1044900022F490720A608A6822F001028A60202168
:1044A000C0F884100021C166FEF7A2BC886940F004
:1044B00008008861704700002DE9F8430446B0F811
:1044C0006050D0F8840022283DD1B4F868604FF0E5
:1044D00020084FF000091F4F1FE02068A16D406ABF
:1044E00028400870A06D0130A065B4F85E00013866
:1044F000A4F85E00B4F85E0070B92068016821F489
:10450000807101608168394081602046C4F88480F0
:10451000C4F86C90FEF76CFC013E3004DDD1B4F8B9
:104520005E00A8B1B4F86810884211D22068816892
:1045300021F0805181600849E166016841F0200165
:104540000160BDE8F8832068816941F0080181615C
:10455000BDE8F883FEFFFFEF5D4400082DE9F04160
:1045600086B004460068D4E9021322699A4D1143CB
:1045700062691143E2691143676E394307682F404E
:10458000964D39430160416821F440511943944BE1
:1045900041609842A1691CBF276A394387682F4050
:1045A000904D39438160A842C16A21F00F07616ACA
:1045B00047EA01068C4FB846C66227D08B4DA84209
:1045C00030D08B4DA84239D08A4DA84242D08A4D76
:1045D000A84200F04A80894DA84200F051809842DC
:1045E00000F05980864DA84200F06080854DA842B9
:1045F00040F069807E6DC6F3C205052D00F2638030
:104600000126DFE805F0695E626466687F6D07F089
:104610000705052D00F257800026DFE805F05D5202
:1046200056585A5C7F6D07F00705052D00F24B8048
:104630000026DFE805F051464A4C4E507F6D07F0EA
:104640000705052D00F23F800026DFE805F0453A1A
:104650003E4042447F6D07F00705052D33D8002604
:10466000DFE805F03A2F333537397F6D07F007055E
:10467000052D28D80026DFE805F02F24282A2C2E27
:104680007F6D07F00705052D1DD80026DFE805F032
:1046900024191D1F2123BF6D07F00705052D12D812
:1046A0000226DFE805F0190E121416187F6DC7F305
:1046B000C205052D07D80126DFE805F00E0307091E
:1046C0000B0D042608E0802606E0082604E01026EC
:1046D00002E0202600E04026984214D0B2F5004FB8
:1046E0002ED1082E4FF001003CD8DFE816F009006B
:1046F000D10093029302DB00930293029302EA003B
:10470000FDF76EF8C6E0402E00F07E80042E00F02B
:104710008F80082E00F09F80102E00F0A580202EA4
:1047200000F0AF80022E40F07482FCF7BBF9616AA2
:104730000B2980F08580DFF8F02452F8212084E0F6
:10474000082E4FF001002AD8DFE816F00900C30058
:1047500064026402CD00640264026402DC00FDF7BE
:104760003FF8B8E0102E00F0D580202E00F0DC805D
:10477000402E40F04F820A294FF0010000F2E18103
:10478000DFE811F0F5010B00E401E601E801EA01C0
:10479000EC01EE01F001F201F4010220E7E1102E3C
:1047A00000F0C880202E00F0CF80402E40F03282F2
:1047B0000A294FF0010000F2E281DFE811F0F60172
:1047C0000B00E501E701E901EB01ED01EF01F1016A
:1047D000F301F5010220E8E1F369FFCFFFF4FF11D7
:1047E000000C0058004400400044025800480040BB
:1047F000004C00400050004000780040007C004029
:1048000000140140001001400A294FF0010000F29D
:104810000481DFE811F018010B00070109010B0109
:104820000D010F01110113011501170102200AE109
:1048300003A8FCF749F9616A0B290498FFF47BAFE0
:104840004FF0010208BF4FF48072B0FBF2F3002B6F
:1048500040F0FD80B7E16846FCF7BCF9616A0B29BE
:104860000198FFF468AFEBE7D8F8000042468006F5
:1048700070D40B2980F0A480DFF8AC0350F821003D
:10488000A3E00B2972D2DFF8A00350F8210072E0F8
:10489000FCF7B4FF616A0B290BD2DFF88C2352F8C6
:1048A00021100BE003A8FCF70FF9616A0B290498AB
:1048B000F3D34FF0010108BF4FF48071B0FBF1F06A
:1048C00095E06846FCF786F9616A0B290198E4D304
:1048D000EFE7FCF793FF616A0B290BD2DFF848235F
:1048E00052F821100BE003A8FCF7EEF8616A0B29DF
:1048F0000498F3D34FF0010108BF4FF48071B0FB6F
:10490000F1F056E16846FCF765F9616A0B290198F8
:10491000E4D3EFE7D8F8000080062ED40B295ED24E
:10492000C14850F821005FE00B2931D2BE4850F851
:10493000210032E0D8F80000800630D40B2965D27F
:10494000B94850F8210066E00B2932D2B64850F839
:10495000210033E010680B29C0F3C100B44A22FAE9
:1049600000F034D2B04A52F8212035E04FF0010077
:1049700008BF4FF48070AD4A67E0D8F800000B29FB
:10498000C0F3C100AA4A22FA00F0FFF486AF90E714
:104990004FF0010008BF4FF48070A44925E0D8F81B
:1049A00000000B29C0F3C100A14A22FA00F095D300
:1049B000A0E74FF0010008BF4FF480709B49F6E07C
:1049C0004FF0010008BF4FF48070994A3DE04FF06E
:1049D000010208BF4FF48072B0FBF2F337E04FF0F2
:1049E000010008BF4FF480709149B1FBF0F061689D
:1049F00040004A081044B0FBF1F04FF6F07101405E
:104A000000F00781C0F342000843DAE04FF00100F4
:104A100008BF4FF480708649C9E00B2908BF4FF4E6
:104A2000807010E004200EE006200CE008200AE070
:104A30000A2008E00C2006E0102004E0202002E01C
:104A4000402000E080204FF40042B2FBF0F36268A7
:104A500002EB420083424FF00100C0F0DB801703FD
:104A6000BB4200F2D780402E13D0042E20D0082E57
:104A70002ED0102E34D0202E3FD0022E40F0C980F0
:104A8000FCF710F8616A0B2919D2674A52F8211015
:104A90001AE00A294FF0010000F29780DFE801F0E8
:104AA000AB069A9C9EA0A2A4A6A8AA000220A2E0FF
:104AB00003A8FCF709F8616A0B290498E5D34FF0C5
:104AC000010108BF4FF48071B0FBF1F0626827E08C
:104AD0006846FCF77FF8616A0B290198D5D3EEE7A9
:104AE000D8F80000800652480DD40B2913D34FF09C
:104AF000010108BF4FF4807110E00B291AD24A4817
:104B000050F821001BE0D8F800300B29C3F3C10393
:104B100020FA03F0EBD2444B53F82110B0FBF1F034
:104B2000010E000210EB520041F100010023FBF7DF
:104B3000CFFB69E04FF0010008BF4FF480703B49A4
:104B40005BE00B2908BF4FF4807010E004200EE0FA
:104B500006200CE008200AE00A2008E00C2006E00D
:104B6000102004E0202002E0402000E080204FF4EC
:104B70000041B1FBF0F06168420048083AE70B29B8
:104B800008BF4FF4807010E004200EE006200CE017
:104B900008200AE00A2008E00C2006E0102004E0CB
:104BA000202002E0402000E080204FF40041B1FBD3
:104BB000F0F0616800EB5100B0FBF1F080B210281A
:104BC00027D32168C860002024E00B2908BF4FF4D8
:104BD000807010E004200EE006200CE008200AE0BF
:104BE0000A2008E00C2006E0102004E0202002E06B
:104BF000402000E080204FF40041B1FBF0F00002C3
:104C000000EB5200B0FBF2F0A0F54071094A91426E
:104C1000D7D901204FF001110022C4E91A122267EE
:104C200006B0BDE8F08100BF984F000800093D00C4
:104C30000090D003FFFC0F002DE9F843DDF8209031
:104C4000984616460F460168044609F10105C869F1
:104C50003840C01BB0FA80F04009B04225D1002D89
:104C6000F5D0FBF743FE2168B9F1000F0A6820D0A8
:104C7000A0EB080048451CD8500744BFC8695FEA4C
:104C80000050E4D54FF400600862086820F4D0704A
:104C90000860886820F0010088602020C4F8800047
:104CA000C4F8840004F188000FE0002001B0BDE8E2
:104CB000F08322F4D0700860886820F001008860DA
:104CC0002020C4F8800004F184002021016000202D
:104CD00084F87C000320E9E72948FDF757BE00BFB0
:104CE000FEE700005648072200F108015548FDF78D
:104CF000FBBF00BF82B0174C174F2046B847174D77
:104D00002846B847164E3046B847164F0021284669
:104D1000B84704212046B84700213046B847FFF77E
:104D2000E1FF11A000F0E2F8FEF7DCF848B1FEF771
:104D3000D9F8064632200096322105220523FBF7DA
:104D4000E5FB6420FBF7F8FC4FF6FF70FEF7B2F9C5
:104D5000EAE700BF3001002065230008B000002012
:104D6000F0000020012800083132333435360000CD
:104D7000334901220B7802484B70FDF7B5BF00BFE5
:104D8000700100207CB52E4C0020A17B8DF8060020
:104D90000A29ADF804008DF80200ADF8000020D11A
:104DA00034F8080FA178ADF80400B4F803008DF8CA
:104DB00006106179ADF8000001A88DF80210FBF72C
:104DC000CAFA24F8040C6846FBF7C5FA24F8020C6A
:104DD00007221C482146FDF787FF012004F8060C36
:104DE0007CBD0026F0B2062822D82118097A354663
:104DF00001360A29F6D1411C04F10800FBF7A0FA9C
:104E00000120294603E02244127A0131627250FAED
:104E100081F2062AF7D9A81CF2B254FA80F000F108
:104E20000801C2F1060082B20648FDF75DFF7CBDB5
:104E300004F1080103480722FDF756FF7CBD00BFBF
:104E400018000020FC01002000F00F02044B0901B3
:104E50001A44044BB0F1FF3FC8BFC218117070472D
:104E600014ED00E000E400E01CB504468DF80700F6
:104E70000DF10701034801220A23FDF7CDFF20466B
:104E800002B010BD88020020FBF73EFDFEF7AAFE2F
:104E9000FEF766FAFEF7B6FCFEF71EFBFEF720FCF7
:104EA000FEF748FBFEF77AFCFEF7E0FCFEF7BCFBE2
:104EB000FEF718F94FF6FF70FEF7FCF8FFF71AFF40
:104EC000FCE70000004870470400002002E008C82A
:104ED000121F08C1002AFAD170477047002001E074
:104EE00001C1121F002AFBD17047000010B5044613
:104EF00001E0FFF7B9FF14F8010B04490028F8D1CD
:104F0000BDE810400A20FFF7AFBF000000000020FE
:104F100000404040404040404040414141414140CC
:104F20004040404040404040404040404040404081
:104F30004005020202020202020202020202020210
:104F40000220202020202020202020020202020215
:104F5000020290909090909010101010101010106D
:104F60001010101010101010101010100202020279
:104F700002028888888888880808080808080808BD
:104F800008080808080808080808080802020202B9
:104F900040000000114F0008010000000200000066
:104FA0000400000006000000080000000A000000E5
:104FB0000C00000010000000200000004000000075
:104FC000800000000000000001020304010203044D
:104FD0000607080901010103070100000804020493
:104FE0000801010100000000001FE000003FF00088
:104FF000003FF000001FE0000180060003C00F002A
:1050000003C00F0003C00F0003C00F0003C00F0058
:1050100003C00F0003C00F0003C00F000300030014
:10502000000000000000000000000000030003007A
:1050300003C00F0003C00F0003C00F0003C00F0028
:1050400003C00F0003C00F0003C00F0003C00F0018
:1050500001800600001FE000003FF000003FF0006C
:10506000001FE000000000000000000000008000C1
:10507000000180000003800000078000000780001E
:105080000007800000078000000780000007800004
:1050900000078000000780000007800000018000FA
:1050A000000000000000000000000000000180007F
:1050B00000078000000780000007800000078000D4
:1050C00000078000000780000007800000078000C4
:1050D00000078000000380000001800000008000C5
:1050E0000000000000000000001FE000003FF00092
:1050F00000FFF00001FFE0000000060000000F00CC
:1051000000000F0000000F0000000F0000000F0063
:1051100000000F0000000F0000000F00001FE30060
:10512000007FF800007FF800001FE000030000008F
:1051300003C0000003C0000003C0000003C0000063
:1051400003C0000003C0000003C0000003C0000053
:1051500001800000001FF000003FF800003FFC004D
:10516000001FFE000000000003FF800001FFC000E0
:1051700000FFC000007F80000000180000003C001D
:1051800000003C0000003C0000003C0000003C002F
:1051900000003C0000003C0000003C00007F8C0050
:1051A00001FFE00001FFF000007F800000000C0024
:1051B00000003C0000003C0000003C0000003C00FF
:1051C00000003C0000003C0000003C0000003C00EF
:1051D00000001800007F800000FFC00001FFC00039
:1051E00003FF80000000000000000000020001003A
:1051F000030003000380070003C00F0003C00F007B
:1052000003C00F0003C00F0003C00F0003C00F0056
:1052100003C00F0003C00F0003C00F00031FE30013
:10522000007FF800007FFC00001FE000000003008A
:1052300000000F0000000F0000000F0000000F0032
:1052400000000F0000000F0000000F0000000F0022
:1052500000000F0000000700000003000000010034
:105260000000000000000000001FFC00003FF800EC
:10527000003FF000001FE0000180000003C00000BC
:1052800003C0000003C0000003C0000003C0000012
:1052900003C0000003C0000003C00000031FE000C3
:1052A000007FF800007FF800001FE000000003000E
:1052B00000000F0000000F0000000F0000000F00B2
:1052C00000000F0000000F0000000F0000000F00A2
:1052D00000000600003FE000007FF00000FFF0004B
:1052E00001FFE00000000000001FFC00003FF8008C
:1052F000003FF000001FE0000180000003C000003C
:1053000003C0000003C0000003C0000003C0000091
:1053100003C0000003C0000003C00000031FE00042
:10532000007FF800007FFC00001FE0000300030086
:1053300003C00F0003C00F0003C00F0003C00F0025
:1053400003C00F0003C00F0003C00F0003C00F0015
:1053500001800600001FE000003FF000003FF00069
:10536000001FE0000000000007FFE00003FFC00096
:1053700001FF880000FF18000000380000007800DE
:10538000000078000000780000007800000078003D
:10539000000078000000780000007800000018008D
:1053A00000000000000000000000000000001800E5
:1053B000000078000000780000007800000078000D
:1053C00000007800000078000000780000007800FD
:1053D00000007800000038000000180000000800FD
:1053E0000000000000000000001FE000003FF0008F
:1053F000003FF000001FE0000180060003C00F0026
:1054000003C00F0003C00F0003C00F0003C00F0054
:1054100003C00F0003C00F0003C00F00031FE30011
:10542000007FF800007FFC00001FE0000300030085
:1054300003C00F0003C00F0003C00F0003C00F0024
:1054400003C00F0003C00F0003C00F0003C00F0014
:1054500001800600001FE000003FF000003FF00068
:10546000001FE00000000000001FE000003FF0000F
:10547000003FF000001FE0000180060003C00F00A5
:1054800003C00F0003C00F0003C00F0003C00F00D4
:1054900003C00F0003C00F0003C00F00031FE30091
:1054A000007FF800007FFC00001FE0000000030008
:1054B00000000F0000000F0000000F0000000F00B0
:1054C00000000F0000000F0000000F0000000F00A0
:1054D00000000600001FE000003FF000007FF00029
:1054E00000FFE000000000000000000000000000DD
:1054F00000000000000000000000000000000000AC
:10550000000000000000000000000000000000009B
:10551000000000000000000000000000000000008B
:10552000000000000000000000000000000000007B
:10553000000000000000000000780000007800007B
:10554000007800000078000000780000007800007B
:10555000000000000000000000000000000000004B
:10556000000000000000000000000000000000003B
:10557000000000000000000000000000000000002B
:105580000000000000070000000F8000000F8000F6
:10559000000F800000070000000000000000000075
:1055A00000000000000000000000000000000000FB
:1055B00000070000000F8000000F8000000F800037
:1055C00000070000000000000000000000000000D4
:1055D00000000000000000000000000000000000CB
:1055E00000000000000000000000000000000000BB
:1055F0000000000007C006000FE0060000000C00DD
:1056000030181800301818003018300030183000EA
:10561000301860003008C00007C0C0000FE08000F4
:105620000000000000000FE0000607C00006301870
:10563000000C3018000C30180018301800303018EA
:10564000003030180060000000C00FE000C007C04C
:10565000000000000000000000000000000000004A
:10566000000000000000000000000000000000003A
:105670000000000000000000000000000700E00043
:105680000887FC00088E0300089801800718008036
:1056900000300000003000000070000000600000DA
:1056A000006000000060000000600000006000007A
:1056B00000700000003000000030000000380000E2
:1056C00000180100000C03000007FC000001F000BE
:1056D00000000000000000000000000000000000CA
:1056E00000000000000000000000000000000000BA
:1056F00000000000000000000000000000000000AA
:105700000000000000000000000000000000000099
:105710000000000000000000000000000000000089
:10572000003FF000007FF000007FE00000FFC000BD
:105730000000000000000000000000000000000069
:105740000000000000000000000000000000000059
:105750000000000000000000000000000000000049
:105760000000000000000000885700080000002032
:1057700018000000CC4E0008A057000818000020B8
:1057800000070000DC4E00080000000000000000E0
:1057900001000000100000000090D0030090D00332
:040000050800029954
:00000001FF
