:020000040800F2
:10000000B0080020AD02000839740008B16500088E
:1000100031740008A10C0008D9C4000800000000D9
:10002000000000000000000000000000A17B0008AC
:10003000A90C000800000000E1750008097C000818
:10004000C7020008C7020008C7020008C70200086C
:10005000C7020008C7020008C7020008C70200085C
:10006000C7020008C7020008C7020008C70200084C
:10007000C7020008C7020008C7020008C70200083C
:10008000C7020008C7020008C7020008C70200082C
:10009000C7020008C7020008C7020008C70200081C
:1000A000C7020008C7020008C7020008C70200080C
:1000B000317E0008C7020008C7020008C702000816
:1000C000C7020008C7020008C7020008C7020008EC
:1000D000C7020008C7020008C7020008C9C4000818
:1000E000C7020008C702000800000000C70200089D
:1000F000C7020008C7020008C7020008C7020008BC
:10010000C7020008C7020008C7020008C7020008AB
:10011000C7020008218B0008C7020008C7020008B8
:10012000C7020008C7020008C7020008C70200088B
:10013000C7020008C7020008C7020008C70200087B
:1001400000000000000000000000000000000000AF
:10015000C7020008C7020008C7020008C70200085B
:10016000C7020008C7020008C7020008C70200084B
:10017000C7020008C7020008C7020008000000000C
:10018000C7020008C7020008318B0008C702000838
:10019000C7020008C7020008C7020008C70200081B
:1001A000C7020008C7020008C7020008C70200080B
:1001B000C7020008C7020008C7020008C7020008FB
:1001C000C7020008C7020008C7020008C7020008EB
:1001D000C7020008C7020008C7020008C7020008DB
:1001E000C7020008C7020008C7020008C7020008CB
:1001F000C7020008C7020008C7020008C7020008BB
:10020000C7020008C7020008C7020008C7020008AA
:10021000C7020008C7020008C7020008C70200089A
:10022000C7020008C7020008C7020008000000005B
:10023000C7020008C702000800000000C70200084B
:10024000C7020008C7020008C7020008C70200086A
:10025000C7020008C7020008C7020008C70200085A
:10026000C7020008C7020008C7020008C70200084A
:10027000C7020008C7020008C7020008000000000B
:10028000C7020008C7020008C702000800000000FB
:1002900000000000C7020008DFF80CD000F0F6F9FB
:1002A0000048004709CA0008B008002006488047F7
:1002B00006480047FEE7FEE7FEE7FEE7FEE7FEE74B
:1002C000FEE7FEE7FEE7FEE7417D00089902000831
:1002D0002DE9F05F0546002092469B46884606467B
:1002E000814640241BE0284641464746224600F00E
:1002F0004EF853465A46C01A914110D3114618463B
:10030000224600F035F82D1A67EB01084F462246C9
:100310000120002100F02CF817EB00094E41201EAF
:10032000A4F10104DFDC484631462A464346BDE8D5
:10033000F09FD2B201E000F8012B491EFBD27047BA
:100340000022F6E710B513460A4604461946FFF7A1
:10035000F0FF204610BD70B506460CF07FFB046828
:1003600005460A220021304600F076F82C6070BD68
:10037000202A04DB203A00FA02F100207047914065
:10038000C2F1200320FA03F3194390407047202A5A
:1003900004DB203A21FA02F00021704721FA02F32F
:1003A000D040C2F120029140084319467047000036
:1003B0000FB40B0010B58AB00FA900910E994FF041
:1003C0000004234ACC60214CCDE9064200D004232E
:1003D0006FF00042CDE901321E4A089202466B4698
:1003E000002000F007FA0AB010BC5DF814FBF0B56D
:1003F00085B007464FF0FF300091CDE901011E4660
:10040000002015460C4604903B466A46314604A837
:10041000FFF7CEFF04990346601825B109B10246E3
:1004200000E022462A6000290ED0002B02DD009950
:10043000814209D00094001BCDE901043B466A4685
:10044000314604A8FFF7B4FF05B0F0BD2D0A00083F
:100450004B0A0008B90600082DE9F04791460F46FF
:1004600080460446002614F8015B2DB100F020F907
:100470000068405DC007F6D12B2D02D02D2D18D07D
:10048000641E4A463946204600F0F0FA27B1396822
:10049000A14201D1C7F8008071054FF002040BD5CD
:1004A0004042002803DD0CF0D9FA0460A007BDE843
:1004B000F08746F48066E4E70028F8DA0CF0CEFA1C
:1004C00004606FF00040F2E72DE9FE4F81EA03047B
:1004D00004F0004421F0004100944FF0000B23F0A1
:1004E000004350EA01045ED052EA03045BD0C3F338
:1004F0000A54C1F30A552C44A4F2F3340194A0FB2E
:100500000254C1F3130141F48011C3F3130343F404
:10051000801301FB024400FB034E840A970A44EA5D
:10052000815447EA8357A4FB076802958D0A05FBAF
:1005300007854FEA932C04FB0C542705029D4FEAD4
:10054000065847EA1637B5EB08056EEB070C870E21
:10055000920E47EA811742EA8312A7FB0201B6EB2B
:100560000B0164EB00042B0D43EA0C335E1844EBE3
:100570001C50DA465146E7FB0201C5F313044FEA6B
:100580000B3343EA14534FEA0432019C43EA060357
:10059000A4F10C040294009CCDE900B400F0C4FA6C
:1005A00003B0BDE8F08F00200146F9E72DE9F04DDA
:1005B00081EA030404F0004B21F0004514464FF09B
:1005C000000A23F0004150EA050220D054EA01025B
:1005D0001DD0C5F30A570246C5F31303C1F3130038
:1005E000C1F30A5640F4801543F48013A7EB0608C4
:1005F000101BD64608F2FD3873EB050002D308F154
:10060000010801E092185B41B8F1000F03DA002005
:100610000146BDE8F08D00204FF480110646844667
:100620000EE0171B73EB050705D3121B63EB0503E5
:1006300006434CEA010C49084FEA300092185B412E
:1006400050EA0107EDD152EA030012D082EA040019
:1006500083EA0501084305D0101BAB4106D20122F5
:10066000002306E000224FF0004302E06FF0010299
:1006700053101AEB06004CEB085110EB0A0041EB4B
:100680000B01BDE8F04D00F040BA0000064C074DEC
:1006900006E0E06840F0010394E807009847103452
:1006A000AC42F6D3FFF7FCFD84CB0008A4CB0008D6
:1006B0000048704768CB000810B50446FFF7F8FF04
:1006C0000068005D00F0010010BD00002DE9FF4F43
:1006D000087883B09946FF2805D0491C2D2804D0FE
:1006E0000024002008E000200BE00124F9E700EBE3
:1006F000800003EB4000491C0B78FF2BF7D104B1BD
:10070000404200230293147819461D462D2C01D037
:100710002B2C04D1521C2D2C13D000240294AA4659
:100720001478FF2C0FD00A25A3FB057801FB058167
:100730004FF0000C03FB0C11521CE3194AEB0101B2
:10074000EEE70124EAE7814453EA010002D019F5FB
:10075000C87F06DA03980021C0E9001107B0BDE8A0
:10076000F08F0025AE4E2F46DFF8B882184600F015
:1007700037FACDE90001B9F1000002DAC9F100044D
:1007800000E004460023A74A1AEB030B42EB045A8D
:1007900012E0E00707D02A46334638464146FFF7C5
:1007A00093FE074688462A46334610461946FFF709
:1007B0008BFE05460E466410002CEAD1DDE90001EF
:1007C000B9F1000F5A46534606DAFFF7EFFE3A46F4
:1007D0004346FFF7EBFE05E0FFF776FE3A46434659
:1007E000FFF772FE029A0AB181F00041039AC2E952
:1007F0000001B3E72DE9FF4F1F468DB0D7E9014651
:100800004FF0FF382E2045464FF000090B90B96994
:100810006D1C0E988847396A824688470028F6D1B1
:10082000BAF1FF3F0AD024F4D064002E11DDBAF1F2
:100830002B0F08D0BAF12D0F0BD102E0404611B0BA
:100840008DE744F48064B9696D1C0E988847824630
:10085000761E6946600501D52D2000E02B208DF81D
:10086000000001F1010B0DF1200809E0B9696D1CD0
:100870000E98884782460F9844F40074761E0560EF
:10088000002E02DDBAF1300FF0D00B998A453ED12F
:1008900044F0800406E00F99681CA9F1010944F4B2
:1008A00000740860B9696D1C761E0E9888478246F0
:1008B0003028F0D02BE00B998A4505D1200603D4CF
:1008C00044F08004761E18E050460CF005F908B399
:1008D0000DF11302761EAAF1300044F40074934522
:1008E00006D20BF8010B200607D5A9F1010003E0A1
:1008F000200602D409F101008146A00502D50F9916
:10090000681C0860B9696D1C0E9888478246002EE5
:10091000D1DC53E0002E51DDBAF1650F02D0BAF1FF
:10092000450F4BD1A00549D5B9696D1C24F440741D
:10093000761E0E9888478246002E0CDD2B2804D0A8
:10094000BAF12D0F07D144F48074B9696D1C0E986B
:1009500088478246761EE00501D52D2100E02B2137
:1009600008F8011BCDF82C8021E00DF12901761E3D
:1009700044F4007488450CD2AAF1300010F0FF0056
:1009800088F8000002D10B99884509D908F10108BF
:1009900006E0E00501D5244801E042F20F708146EF
:1009A000B9696D1C0E98884782460F980560002E25
:1009B00004DD50460CF090F80028D6D1F9690E9865
:1009C0008847FF208BF8000088F800000020069080
:1009D00007904B466A4608A906A8FFF777FEA005D0
:1009E00002D46FF001002AE714F0240F0AD0E007C8
:1009F00014D1DDE906123868031D3B600068C0E9C8
:100A000000120BE0DDE9060100F0F6F80146E00710
:100A100004D13868021D3A600068016028460EE77C
:100A2000000014400000F03FF1D8FFFF426842B1DF
:100A3000016811F8013B23B1521EC0E900121846AB
:100A400070470121C160881E704742685AB1C3686F
:100A5000016843B983688B4205D0491E521CC0E926
:100A60000012002070474FF0FF3070472DE9F05F13
:100A700082460078002715468B460AF10104B946E4
:100A8000302801D09DB113E014F8010B012778281C
:100A900003D0582801D045B10AE00DB1102D07D17F
:100AA0000027102514F8010B02E0082500E00A25B4
:100AB0000026B0460EE005FB080005FB06F1012705
:100AC00001EB10461FFA80F8B6F5803F00D3B94617
:100AD00014F8010B294600F075F80028EBDABBF199
:100AE000000F05D00FB1641E00E05446CBF8004063
:100AF000B9F1000F06D00BF0B1FF02210160C81E52
:100B0000BDE8F09F48EA0640FAE710B5141E73F1FD
:100B1000000408DA401C41F1000192185B411A43BD
:100B200001D120F0010010BD2DE9F04D92469B4609
:100B300011B1B1FA81F202E0B0FA80F220329046AF
:100B4000FFF716FC04460F4640EA0A0041EA0B0193
:100B500053465A46084313D0114653EA010019D0B0
:100B6000C8F140025046FFF712FC05460E465046BB
:100B700059464246FFF7FCFB084305D0012004E03C
:100B800020463946BDE8F08D0020054346EAE07670
:100B90002C4337430A986305E40AA0EB08000022BF
:100BA000FD0A44EA47540A3002D500200146E9E72D
:100BB000010510196941DDE9084500196941BDE8E1
:100BC000F04DA2E73A2800D2303820F02002412A26
:100BD00001D3A2F13700884201D34FF0FF307047B4
:100BE0000EB540F2334202920022CDE900221346B4
:100BF000FFF79AFF03B000BD01F0004330B421F0CD
:100C0000004150EA010206D00A0DA2F56072C1F35C
:100C10001301002A02DC30BC00207047440F44EA74
:100C2000C104C100E01830BC00EBC250AFF300803B
:100C30000029A8BF7047401C490008BF20F00100F0
:100C4000704710B4B0FA80FC00FA0CF050EA0104CE
:100C500004BF10BC704749B1CCF1200421FA04F460
:100C600011FA0CF118BF012121430843A3EB0C0139
:100C7000CB1D4FEA00614FEA102042BF002010BC9C
:100C8000704700EBC35010440029A4BF10BC70474C
:100C9000401C490008BF20F0010010BC7047000054
:100CA000FFE7FEE7000000007047000000000000C2
:100CB000704700000000000080B500F009F840F225
:100CC000140EC2F2000EBEF800E0A0EB0E0080BDD4
:100CD00040F21A00C2F20000B0F9000070470000B4
:100CE00080B58AB00146089008980028069104D182
:100CF000FFE701208DF827003FE2089890F83500C3
:100D0000022807D0FFE708988021416501208DF86F
:100D1000270032E20898006801211022C4F2020282
:100D20009042059100F0A380FFE708980068012138
:100D30002822C4F202029042059100F09880FFE759
:100D40000898006801214022C4F2020290420591F5
:100D500000F08D80FFE70898006801215822C4F256
:100D600002029042059100F08280FFE70898006837
:100D700001217022C4F202029042059177D0FFE770
:100D80000898006801218822C4F20202904205916D
:100D90006DD0FFE7089800680121A022C4F202028A
:100DA0009042059163D0FFE7089800680121B822BE
:100DB000C4F202029042059159D0FFE708980068FA
:100DC000012140F21042C4F20202904205914ED03D
:100DD000FFE708980068012140F22842C4F20202AD
:100DE0009042059143D0FFE708980068012140F246
:100DF0004042C4F202029042059138D0FFE70898C1
:100E00000068012140F25842C4F20202904205916A
:100E10002DD0FFE708980068012140F27042C4F22B
:100E200002029042059122D0FFE708980068012154
:100E300040F28842C4F202029042059117D0FFE7C7
:100E400008980068012140F2A042C4F202029042D8
:100E500005910CD0FFE7089800684FF64831CBF6B3
:100E6000FD710844B0FA80F040090590FFE705984D
:100E7000C007002800F0A180FFE70898042180F84F
:100E80003510089800681021C4F20201884200F071
:100E90008180FFE7089800682821C4F20201884297
:100EA00078D0FFE7089800684021C4F20201884228
:100EB00070D0FFE7089800685821C4F20201884208
:100EC00068D0FFE7089800687021C4F202018842E8
:100ED00060D0FFE7089800688821C4F202018842C8
:100EE00058D0FFE708980068A021C4F202018842A8
:100EF00050D0FFE708980068B821C4F20201884288
:100F000048D0FFE70898006840F21041C4F202019F
:100F100088423FD0FFE70898006840F22841C4F2B9
:100F20000201884236D0FFE70898006840F240414D
:100F3000C4F2020188422DD0FFE70898006840F211
:100F40005841C4F20201884224D0FFE708980068A3
:100F500040F27041C4F2020188421BD0FFE70898BA
:100F6000006840F28841C4F20201884212D0FFE7D3
:100F70000898006840F2A041C4F20201884209D0FA
:100F8000FFE70898006840F2B841C4F202018842C5
:100F900009D1FFE708980068016821F001010A46BD
:100FA0000160049208E008980068016821F00101DE
:100FB0000A4601600392FFE7DAE0089800680168DA
:100FC00021F00E010160089800681021C4F20201AE
:100FD000884200F08180FFE7089800682821C4F269
:100FE0000201884278D0FFE7089800684021C4F2E7
:100FF0000201884270D0FFE7089800685821C4F2C7
:101000000201884268D0FFE7089800687021C4F2A6
:101010000201884260D0FFE7089800688821C4F286
:101020000201884258D0FFE708980068A021C4F266
:101030000201884250D0FFE708980068B821C4F246
:101040000201884248D0FFE70898006840F210414A
:10105000C4F2020188423FD0FFE70898006840F2DE
:101060002841C4F20201884236D0FFE708980068A0
:1010700040F24041C4F2020188422DD0FFE70898B7
:10108000006840F25841C4F20201884224D0FFE7D0
:101090000898006840F27041C4F2020188421BD0F7
:1010A000FFE70898006840F28841C4F202018842D4
:1010B00012D0FFE70898006840F2A041C4F2020194
:1010C000884209D0FFE70898006840F2B841C4F2AE
:1010D0000201884209D1FFE708980068016821F001
:1010E00001010A460160029208E008980068016860
:1010F00021F001010A4601600192FFE70898006EA5
:10110000016821F4807101600898806D079008984B
:10111000C06D00F01F00012101FA00F0079948603E
:101120000898416E806E48600898C06E00280BD009
:10113000FFE70898C06E016821F48071016008988B
:10114000016F406F4860FFE7FFE70898002180F8D3
:101150003410FFE70898012180F835100898006DD9
:10116000002804D0FFE70898016D8847FFE7FFE7F4
:10117000FFE700208DF82700FFE79DF827000AB061
:1011800080BD00000000000080B584B001460390DF
:10119000009100F03DFA029003980190019801300F
:1011A000002809D0FFE740F20C00C2F200000078EE
:1011B000019908440190FFE7FFE700F029FADDF804
:1011C00008E0A0EB0E00DDF804E0704501D2FFE777
:1011D000F3E704B080BD000093B00A4603461290C6
:1011E0001191002010908020C5F600000D900B9208
:1011F0000A93FFE7119800681099C840002800F092
:10120000D781FFE7119800681099012202FA01F1D5
:1012100008400F900F98002800F0C681FFE7119852
:101220004068022805D0FFE711984068122826D1AF
:10123000FFE7129810996FF0030202EA5101084487
:10124000006A0E90109800F0070080000F2101FA4C
:1012500000F00E9921EA00000E9011980069109993
:1012600001F00701890088400E9908430E900E98FE
:101270001299109B02EA530211440862FFE7129888
:1012800000680E9010984000032101FA00F00E99BA
:1012900021EA00000E901198406800F003001099B8
:1012A000490088400E9908430E900E9812990860E4
:1012B0001198406801280FD0FFE711984068022874
:1012C0000AD0FFE711984068112805D0FFE7119870
:1012D000406812282FD1FFE7129880680E9010986E
:1012E0004000032101FA00F00E9921EA00000E905F
:1012F0001198C0681099490088400E9908430E90D3
:101300000E9812998860129840680E9010980121EA
:1013100001FA00F00E9921EA00000E901198406841
:10132000C0F30010109988400E9908430E900E9853
:1013300012994860FFE71298C0680E90109840001C
:10134000032101FA00F00E9921EA00000E90119895
:1013500080681099490088400E9908430E900E98B5
:101360001299C86011984068C000002840F11B81A4
:10137000FFE7FFE744F2F440C5F60200016841F0E0
:1013800002010160006800F002000C900C980990C6
:10139000FFE7109820F0030040F20841C5F6000175
:1013A00040580E90109800F0030080000F2101FAC1
:1013B00000F00E9921EA00000E9012980021C5F667
:1013C0000201884203D1FFE7002008907AE01298DA
:1013D00040F20041C5F60201884203D1FFE7012037
:1013E00007906CE0129840F60001C5F602018842B1
:1013F00003D1FFE7022006905EE0129840F600411C
:10140000C5F60201884203D1FFE70320059050E0B2
:10141000129841F20001C5F60201884203D1FFE7AC
:101420000420049042E0129841F20041C5F6020106
:10143000884203D1FFE70520039034E0129841F67B
:101440000001C5F60201884203D1FFE706200290A1
:1014500026E0129841F60041C5F60201884203D108
:10146000FFE70720019018E0129842F20001C5F64C
:101470000201884203D1FFE7082000900AE0129899
:1014800042F20041C5F602010A22884208BF092241
:101490000092FFE700980190FFE701980290FFE7B4
:1014A00002980390FFE703980490FFE704980590E3
:1014B000FFE705980690FFE706980790FFE7079873
:1014C0000890FFE70898109901F00301890088400F
:1014D0000E9908430E900E98109921F0030140F2E6
:1014E0000842C5F6000288500D9800680E900F98CB
:1014F0000E9921EA00000E9011984068C003002860
:1015000005D5FFE70F980E9908430E90FFE70E9858
:101510000D9908600D9840680E900F980E9921EA79
:1015200000000E90119840688003002805D5FFE761
:101530000F980E9908430E90FFE70E980D9948609A
:101540004FF0B04000680E900F980E9921EA00000D
:101550000E9011984068C002002805D5FFE70F984B
:101560000E9908430E90FFE70E984FF0B0410860C7
:101570000420C5F6000000680E900F980E9921EA2D
:1015800000000E90119840688002002805D5FFE702
:101590000F980E9908430E90FFE70E980421C5F6A8
:1015A00000010860FFE7FFE710980130109021E686
:1015B00013B070470000000080B585B013468C461C
:1015C00086460490ADF80E108DF80D209DF80D00A4
:1015D00000280293CDF804C0CDF800E005D0FFE765
:1015E000BDF80E000499886105E0BDF80E00000406
:1015F00004998861FFE705B080BD0000000000008D
:1016000041F20000C5F600400068000C7047000081
:1016100040F2AC40C2F200000068704700000000D9
:1016200040F20C00C2F20000007840F2AC41C2F27D
:1016300000010A68104408607047000000000000C4
:1016400080B582B0032000F0C7F801F009FF44F232
:10165000184EC5F6020EDEF80010C1F303214CF659
:101660006C32C0F60002515C01F01F01C84040F22C
:101670000401C2F2000108600868DEF8001001F001
:101680000F01515C01F01F01C84040F20801C2F295
:1016900000010860002000F013F8002804D0FFE7E4
:1016A00001208DF8070006E000F052F84FF0000E20
:1016B0008DF807E0FFE79DF8070002B080BD00004D
:1016C00080B584B00146029040F20C00C2F20000E6
:1016D00000780028019104D1FFE701208DF80F0068
:1016E00031E040F20400C2F20000006840F20C0158
:1016F000C2F2000109784FF47A72B2FBF1F1B0FB4B
:10170000F1F003F001F9002804D0FFE701208DF883
:101710000F0018E002980F280DD8FFE702994FF04C
:10172000FF30002200F034F8029840F21001C2F2BB
:101730000001086003E001208DF80F0003E00020A5
:101740008DF80F00FFE79DF80F0004B080BD00008A
:1017500082B0FFE744F2F440C5F60200016841F0B0
:1017600002010160006800F0020001900198009001
:10177000FFE702B07047000080B582B00146ADF8C7
:101780000600BDF9060000910BF0D2F802B080BD52
:1017900080B58AB013468C468646ADF8260008917F
:1017A00007920593CDF810C0CDF80CE00BF0DCF8F3
:1017B0000690BDF926000699089A079B02900846F4
:1017C00011461A4605F03CFE02990190084601991F
:1017D0000BF0D2F80AB080BD80B582B0014601900E
:1017E000019800910BF0F0F802B080BD00000000FD
:1017F00080B584B0014602900120002800910BD1F1
:10180000FFE744F60400C5F60200006800F010008F
:10181000102800F091807FE0012000280CD1FFE724
:1018200044F60400C5F60200006800F48030B0F50C
:10183000803F00F081806FE0012000280BD1FFE79E
:1018400044F60400C5F60200006800F40050B0F54C
:10185000005F71D060E0012000280BD1FFE744F663
:101860001800C5F60200006800F40050B0F5005FF3
:1018700062D051E0002000280AD1FFE744F60C00B6
:10188000C5F60200006800F00400042854D043E0CC
:10189000012000280BD1FFE744F60800C5F602003E
:1018A000006800F48030B0F5803F45D034E001207E
:1018B00000280AD1FFE744F61000C5F602000068D0
:1018C00000F04000402837D026E0012000280AD14F
:1018D000FFE744F61000C5F60200006800F02000A3
:1018E000202829D018E0012000280AD1FFE744F67B
:1018F0001000C5F60200006800F0800080281BD0B0
:101900000AE044F61000C5F60200006800F480709A
:10191000B0F5807F10D0FFE744F60C00C5F602005A
:10192000006800F007000299884204D0FFE7012018
:101930008DF80F002CE0FFE744F60C00C5F602001E
:10194000016821F00701029A11430160FFF760FE70
:101950000190FFE744F60400C5F60200006800F4B9
:101960000050B0F5005F0FD0FFE7FFF751FEDDF844
:1019700004E0A0EB0E00B0F57A7F04D9FFE7032066
:101980008DF80F0004E0E5E700208DF80F00FFE779
:101990009DF80F0004B080BD80B501F061FD44F2F8
:1019A000184EC5F6020EDEF800E0CEF3032E4CF61C
:1019B0006C31C0F6000111F80E1001F01F01C84093
:1019C00040F20401C2F200010860086880BD000016
:1019D00080B501F0F9FC44F2204EC5F6020EDEF8A7
:1019E00000E0CEF3021E4CF66C31C0F6000111F897
:1019F0000E1001F01F01C84080BD00000000000073
:101A000089B00146089044F22840C5F602000268F9
:101A100002F0030207920068C0F30530069044F21A
:101A20002C40C5F60200006800F0100005900598F3
:101A300044F23C42C5F60202126892B2D208504308
:101A400000EE100AB8EE400A8DED030A0698002851
:101A5000019100F01D81FFE707980028009009D050
:101A6000FFE7009801286AD0FFE70098022800F0FD
:101A70008A80ACE044F20040C5F60200006800F045
:101A800020000021B1EB501F34D0FFE744F20040AA
:101A9000C5F602000068C0F3C10049F20001C0F2BF
:101AA000D03121FA00F004909DED040AB8EE400A0E
:101AB0009DED061AB8EE411A80EE010A44F2384054
:101AC000C5F6020000686FF35F2001EE100AB8EE61
:101AD000411A9DED032A9FED743A82EE032A31EEFE
:101AE000021AB7EE002A31EE021A20EE010A8DED3D
:101AF000020A23E09DED060AB8EE400A9FED6C1A3B
:101B000081EE000A44F23840C5F6020000686FF327
:101B10005F2001EE100AB8EE411A9DED032A9FEDF9
:101B2000623A82EE032A31EE021AB7EE002A31EE53
:101B3000021A20EE010A8DED020AFFE76BE09DED2F
:101B4000060AB8EE400A9FED591A81EE000A44F2E7
:101B50003840C5F6020000686FF35F2001EE100AFE
:101B6000B8EE411A9DED032A9FED4F3A82EE032A0B
:101B700031EE021AB7EE002A31EE021A20EE010A07
:101B80008DED020A47E09DED060AB8EE400A9FED92
:101B9000451A81EE000A44F23840C5F6020000689A
:101BA0006FF35F2001EE100AB8EE411A9DED032A93
:101BB0009FED3D3A82EE032A31EE021AB7EE002A7B
:101BC00031EE021A20EE010A8DED020A23E09DEDAE
:101BD000060AB8EE400A9FED351A81EE000A44F27B
:101BE0003840C5F6020000686FF35F2001EE100A6E
:101BF000B8EE411A9DED032A9FED2B3A82EE032A9F
:101C000031EE021AB7EE002A31EE021A20EE010A76
:101C10008DED020AFFE79DED020A44F23840C5F659
:101C20000200016889B2490A01EE101AB8EE411AA1
:101C3000B7EE002A31EE021A80EE010A0899BCEED6
:101C4000C00A81ED000A9DED020A0168C1F3064158
:101C500001EE101AB8EE411A31EE021A80EE010AB6
:101C60000899BCEEC00A81ED010A9DED020A0068E8
:101C7000C0F3066001EE100AB8EE411A31EE021A06
:101C800080EE010A0898BCEEC00A80ED020A07E067
:101C90000898002101600898416008988160FFE77A
:101CA00009B070470024F44A000000460024744A3A
:101CB0000024744C0000000089B00146089044F2F2
:101CC0002840C5F60200026802F00302079200688D
:101CD000C0F30550069044F22C40C5F6020000689F
:101CE00000F480700590059844F24442C5F6020263
:101CF000126892B2D208504300EE100AB8EE400AC1
:101D00008DED030A06980028019100F01D81FFE780
:101D100007980028009009D0FFE7009801286AD0B2
:101D2000FFE70098022800F08A80ACE044F200400F
:101D3000C5F60200006800F020000021B1EB501F42
:101D400034D0FFE744F20040C5F602000068C0F35B
:101D5000C10049F20001C0F2D03121FA00F0049034
:101D60009DED040AB8EE400A9DED061AB8EE411A40
:101D700080EE010A44F24040C5F6020000686FF3AD
:101D80005F2001EE100AB8EE411A9DED032A9FED87
:101D9000743A82EE032A31EE021AB7EE002A31EECF
:101DA000021A20EE010A8DED020A23E09DED060ADB
:101DB000B8EE400A9FED6C1A81EE000A44F24040F2
:101DC000C5F6020000686FF35F2001EE100AB8EE5E
:101DD000411A9DED032A9FED623A82EE032A31EE0D
:101DE000021AB7EE002A31EE021A20EE010A8DED3A
:101DF000020AFFE76BE09DED060AB8EE400A9FED90
:101E0000591A81EE000A44F24040C5F6020000680B
:101E10006FF35F2001EE100AB8EE411A9DED032A20
:101E20009FED4F3A82EE032A31EE021AB7EE002AF6
:101E300031EE021A20EE010A8DED020A47E09DED17
:101E4000060AB8EE400A9FED451A81EE000A44F2F8
:101E50004040C5F6020000686FF35F2001EE100AF3
:101E6000B8EE411A9DED032A9FED3D3A82EE032A1A
:101E700031EE021AB7EE002A31EE021A20EE010A04
:101E80008DED020A23E09DED060AB8EE400A9FEDB3
:101E9000351A81EE000A44F24040C5F6020000689F
:101EA0006FF35F2001EE100AB8EE411A9DED032A90
:101EB0009FED2B3A82EE032A31EE021AB7EE002A8A
:101EC00031EE021A20EE010A8DED020AFFE79DEDC8
:101ED000020A44F24040C5F60200016889B2490A8C
:101EE00001EE101AB8EE411AB7EE002A31EE021ACE
:101EF00080EE010A0899BCEEC00A81ED000A9DED52
:101F0000020A0168C1F3064101EE101AB8EE411A47
:101F100031EE021A80EE010A0899BCEEC00A81ED8A
:101F2000010A9DED020A0068C0F3066001EE100A86
:101F3000B8EE411A31EE021A80EE010A0898BCEEA2
:101F4000C00A80ED020A07E00898002101600898A5
:101F5000416008988160FFE709B070470024F44AA7
:101F6000000000460024744A0024744C0000000065
:101F700080B59EB001461C9000208DF867008DF85A
:101F800066001C9800680001002818914AD5FFE7F8
:101F90001C98406E002817900FD0FFE71798B0F5F7
:101FA000801F13D0FFE71798B0F5001F16D0FFE78A
:101FB0001798B0F5401F19D019E044F22C40C5F62F
:101FC0000200016841F40031016014E01C98043003
:101FD000022105F009FB8DF867000CE01C98243005
:101FE000022105F0EDFB8DF8670004E003E001201D
:101FF0008DF86700FFE79DF8670000280CD1FFE728
:1020000044F25040C5F60200016821F440111C9AC8
:10201000526E1143016004E09DF867008DF8660080
:10202000FFE7FFE71C980068C005002841D5FFE7DF
:102030001C98406D0428169020D81699DFE801F00E
:10204000030C141C1D0044F22C40C5F6020001686C
:1020500041F40031016015E01C980430002105F0C6
:10206000C3FA8DF867000DE01C982430002105F0BC
:10207000A7FB8DF8670005E004E003E001208DF880
:102080006700FFE79DF8670000280CD1FFE744F2E6
:102090005040C5F60200016821F007011C9A526DFC
:1020A0001143016004E09DF867008DF86600FFE7CA
:1020B000FFE71C980068800500284DD5FFE71C98B5
:1020C000806D0028159011D0FFE71598402816D094
:1020D000FFE7159880281AD0FFE71598C0281ED072
:1020E000FFE71598B0F5807F1AD01AE044F22C4033
:1020F000C5F60200016841F40031016015E01C984A
:102100000430002105F070FA8DF867000DE01C988E
:102110002430002105F054FB8DF8670005E004E051
:1021200003E001208DF86700FFE79DF867000028B5
:102130000CD1FFE744F25040C5F60200016821F4DB
:10214000E0711C9A926D1143016004E09DF86700F4
:102150008DF86600FFE7FFE71C980068400500283F
:1021600052D5FFE71C98D0F8A4000028149014D092
:10217000FFE71498B0F5001F18D0FFE71498B0F5EA
:10218000800F1BD0FFE71498B0F5C00F1ED0FFE7FB
:102190001498B0F5000F1AD01AE044F22C40C5F69E
:1021A0000200016841F40031016015E01C98043020
:1021B000002105F019FA8DF867000DE01C98243015
:1021C000002105F0FDFA8DF8670005E004E003E06A
:1021D00001208DF86700FFE79DF8670000280DD10A
:1021E000FFE744F25840C5F60200016821F460019F
:1021F0001C9AD2F8A4201143016004E09DF8670006
:102200008DF86600FFE7FFE71C98006800050028CE
:1022100052D5FFE71C98D0F8A8000028139014D0DE
:10222000FFE71398B0F1807F18D0FFE71398B0F163
:10223000007F1BD0FFE71398B0F1407F1ED0FFE76F
:102240001398B0F1806F1AD01AE044F22C40C5F612
:102250000200016841F40031016015E01C9804306F
:10226000002105F0C1F98DF867000DE01C982430BD
:10227000002105F0A5FA8DF8670005E004E003E011
:1022800001208DF86700FFE79DF8670000280DD159
:10229000FFE744F25840C5F60200016821F0E06112
:1022A0001C9AD2F8A8201143016004E09DF8670051
:1022B0008DF86600FFE7FFE71C98006880010028A2
:1022C00040D5FFE71C98806C002812901ED0FFE7D5
:1022D0001298102808D0FFE7129820280DD0FFE7A9
:1022E0001298302811D012E044F22C40C5F60200BA
:1022F000016841F4003101600DE01C9804300221B6
:1023000005F072F98DF8670005E004E003E00120B4
:102310008DF86700FFE79DF8670000280CD1FFE704
:1023200044F24C40C5F60200016821F030011C9ACD
:10233000926C1143016004E09DF867008DF866001F
:10234000FFE7FFE71C980068C004002850D5FFE7AE
:102350001C98C06D0028119014D0FFE71198B0F5BB
:10236000805F18D0FFE71198B0F5005F1BD0FFE742
:102370001198B0F5405F1ED0FFE71198B0F5804F7F
:102380001AD01AE044F22C40C5F60200016841F46C
:102390000031016015E01C980430002105F024F99B
:1023A0008DF867000DE01C982430002105F008FA34
:1023B0008DF8670005E004E003E001208DF8670078
:1023C000FFE79DF8670000280CD1FFE744F250407A
:1023D000C5F60200016821F4E0411C9AD26D114358
:1023E000016004E09DF867008DF86600FFE7FFE7F5
:1023F0001C980068800400284ED5FFE71C98006EEA
:102400000028109019D0FFE71098B0F5803F15D044
:10241000FFE71098B0F5003F18D0FFE71098B0F52F
:10242000403F1BD0FFE71098B0F5802F17D0FFE793
:102430001098B0F5A02F13D013E016E01C980430CC
:10244000012105F0D1F88DF867000EE01C982430CA
:10245000012105F0B5F98DF8670006E005E004E01C
:1024600003E001208DF86700FFE79DF86700002872
:102470000CD1FFE744F25040C5F60200016821F498
:10248000E0211C9A126E1143016004E09DF8670080
:102490008DF86600FFE7FFE71C98006840040028FD
:1024A00050D5FFE71C98D0F8AC0000280F9019D049
:1024B000FFE70F98B0F1805F15D0FFE70F98B0F1FC
:1024C000005F18D0FFE70F98B0F1405F1BD0FFE727
:1024D0000F98B0F1804F17D0FFE70F98B0F1A04FE1
:1024E00013D013E016E01C980430012105F07CF8AD
:1024F0008DF867000EE01C982430012105F060F98A
:102500008DF8670006E005E004E003E001208DF8A7
:102510006700FFE79DF8670000280DD1FFE744F250
:102520005840C5F60200016821F0E0411C9AD2F83B
:10253000AC201143016004E09DF867008DF866004F
:10254000FFE7FFE71C980068000400283DD5FFE77F
:102550001C98C06E00280E901BD0FFE70E98B0F1BB
:10256000805F05D0FFE70E98B0F1005F09D011E061
:1025700044F22C40C5F60200016841F400310160CC
:102580000CE01C980430012105F02EF88DF867004E
:1025900004E003E001208DF86700FFE79DF8670085
:1025A00000280CD1FFE744F25040C5F60200016854
:1025B00021F040511C9AD26E1143016004E09DF855
:1025C00067008DF86600FFE7FFE71C980068C00110
:1025D000002838D5FFE71C98406C03280D9017D8C9
:1025E0000D99DFE801F014020B1344F22C40C5F6FC
:1025F0000200016841F4003101600DE01C980430D4
:10260000022104F0F1FF8DF8670005E004E003E02B
:1026100001208DF86700FFE79DF8670000280CD1C6
:10262000FFE744F24C40C5F60200016821F00301C7
:102630001C9A526C1143016004E09DF867008DF80C
:102640006600FFE7FFE71C9800684002002840F1A1
:10265000BD80FFE744F60000C5F60200016841F4C2
:1026600080710160FEF7D4FF1A90FFE744F6000086
:10267000C5F602000068C00500280ED4FFE7FEF78B
:10268000C7FFDDF868E0A0EB0E00652804D3FFE784
:1026900003208DF8670000E0E8E79DF86700002858
:1026A00040F08E80FFE744F27040C5F602000068FB
:1026B00000F440701C99D1F8B01001F440718842C8
:1026C00013D0FFE744F27040C5F60200016821F420
:1026D00040711B91016841F480310160016821F46F
:1026E000803101601B990160FFE71C98D0F8B000B1
:1026F000B0F5807F21D1FFE7FEF78AFF1A90FFE750
:1027000044F27040C5F60200006800F002000021AB
:10271000B1EB500F10D1FFE7FEF77AFFDDF868E06C
:10272000A0EB0E0041F2893E704504D3FFE7032081
:102730008DF8670000E0E3E7FFE79DF867000028F9
:1027400038D1FFE7FFE71C98D0F8B00000F44070E4
:10275000B0F5407F15D1FFE744F21040C5F6020006
:10276000016821F47C511C9AD2F8B0204FF6F04356
:10277000C0F6FF731A4041EA12110A4601600C923A
:102780000AE044F21040C5F60200016821F47C51D1
:102790000A4601600B92FFE71C98D0F8B0006FF377
:1027A0001F3044F27041C5F602010A681043086008
:1027B000FFE704E09DF867008DF86600FFE704E09E
:1027C0009DF867008DF86600FFE7FFE71C9800683A
:1027D000C007002800F04D80FFE71C98806F282874
:1027E0000A902BD80A99DFE801F01529292929290F
:1027F000292916292929292929291E292929292967
:10280000292926292929292929292729292929293D
:102810002929280016E01C980430012104F0E4FE68
:102820008DF867000EE01C982430012104F0C8FFE9
:102830008DF8670006E005E004E003E001208DF874
:102840006700FFE79DF8670000280CD1FFE744F21E
:102850005440C5F60200016821F038011C9A926FBD
:102860001143016004E09DF867008DF86600FFE702
:10287000FFE71C980068800700283AD5FFE71C98FE
:10288000406F0528099019D80999DFE801F0030481
:102890000C14151616E01C980430012104F0A4FE57
:1028A0008DF867000EE01C982430012104F088FFA9
:1028B0008DF8670006E005E004E003E001208DF8F4
:1028C0006700FFE79DF8670000280CD1FFE744F29E
:1028D0005440C5F60200016821F007011C9A526FAE
:1028E0001143016004E09DF867008DF86600FFE782
:1028F000FFE71C980068400700283CD5FFE71C98BC
:10290000D0F890000528089019D80899DFE801F060
:1029100003040C14151616E01C980430012104F071
:1029200063FE8DF867000EE01C982430012104F04E
:1029300047FF8DF8670006E005E004E003E00120B2
:102940008DF86700FFE79DF8670000280DD1FFE7CD
:1029500044F25840C5F60200016821F007011C9AB4
:10296000D2F890201143016004E09DF867008DF8D3
:102970006600FFE7FFE71C9800688006002850D536
:10298000FFE71C98D0F88C000028079019D0FFE7CB
:102990000798B0F1805F15D0FFE70798B0F1005FAE
:1029A00018D0FFE70798B0F1405F1BD0FFE707980A
:1029B000B0F1804F17D0FFE70798B0F1A04F13D0C8
:1029C00013E016E01C980430002104F00DFE8DF891
:1029D00067000EE01C982430022104F0F1FE8DF80F
:1029E000670006E005E004E003E001208DF86700E1
:1029F000FFE79DF8670000280DD1FFE744F254403F
:102A0000C5F60200016821F0E0411C9AD2F88C2042
:102A10001143016004E09DF867008DF86600FFE750
:102A2000FFE71C9800684006002850D5FFE71C9877
:102A3000D0F898000028069019D0FFE70698B0F566
:102A4000806F15D0FFE70698B0F5006F18D0FFE74C
:102A50000698B0F5406F1BD0FFE70698B0F5805F91
:102A600017D0FFE70698B0F5A05F13D013E016E08B
:102A70001C980430002104F0B7FD8DF867000EE0CB
:102A80001C982430022104F09BFE8DF8670006E0BC
:102A900005E004E003E001208DF86700FFE79DF802
:102AA000670000280DD1FFE744F25840C5F6020048
:102AB000016821F4E0511C9AD2F89820114301607A
:102AC00004E09DF867008DF86600FFE7FFE71C98BB
:102AD00000680006002850D5FFE71C98D0F89C003D
:102AE0000028059019D0FFE70598B0F5005F15D0D4
:102AF000FFE70598B0F5804F18D0FFE70598B0F5CF
:102B0000C04F1BD0FFE70598B0F5004F17D0FFE787
:102B10000598B0F5204F13D013E016E01C98043050
:102B2000002104F061FD8DF867000EE01C98243050
:102B3000022104F045FE8DF8670006E005E004E0A0
:102B400003E001208DF86700FFE79DF8670000288B
:102B50000DD1FFE744F25840C5F60200016821F4A8
:102B600060411C9AD2F89C201143016004E09DF85A
:102B700067008DF86600FFE7FFE71C980068000714
:102B8000002822D5FFE71C98D0F88000B0F5805FC0
:102B90000DD1FFE71C982430022104F011FE00281B
:102BA00004D0FFE701208DF86600FFE70CE044F257
:102BB0005440C5F60200016821F440511C9AD2F835
:102BC000802011430160FFE7FFE71C980068C00602
:102BD000002822D5FFE71C98D0F89400B0F5807F3C
:102BE0000DD1FFE71C982430022104F0E9FD0028F4
:102BF00004D0FFE701208DF86600FFE70CE044F207
:102C00005840C5F60200016821F440711C9AD2F8C0
:102C1000942011430160FFE7FFE71C980068000360
:102C200000283ED5FFE71C98D0F8A00000280490AB
:102C30000AD0FFE70498B0F5803F0DD0FFE7049875
:102C4000B0F5003F10D010E01C980430002104F0D3
:102C5000CBFC8DF867000CE01C982430022104F0B6
:102C6000AFFD8DF8670004E003E001208DF86700F8
:102C7000FFE79DF8670000280DD1FFE744F25840B8
:102C8000C5F60200016821F440311C9AD2F8A02058
:102C90001143016004E09DF867008DF86600FFE7CE
:102CA000FFE71C9800684003002840D5FFE71C9808
:102CB000D0F88400B0F5801F03900AD0FFE7039896
:102CC000B0F5001F0ED0FFE70398B0F5401F11D0FC
:102CD00011E044F22C40C5F60200016841F40031D5
:102CE00001600CE01C982430012104F069FD8DF88E
:102CF000670004E003E001208DF86700FFE79DF81E
:102D0000670000280DD1FFE744F25440C5F60200E9
:102D1000016821F440111C9AD2F88420114301600B
:102D200004E09DF867008DF86600FFE7FFE71C9858
:102D30000068C003002837D5FFE71C98C06C002846
:102D4000029005D0FFE70298B0F5803F09D010E06F
:102D500044F22C40C5F60200016841F400310160E4
:102D60000BE01C980430022104F03EFC8DF8670053
:102D700003E001208DF86700FFE79DF86700002859
:102D80000CD1FFE744F24C40C5F60200016821F483
:102D900080311C9AD26C1143016004E09DF86700F9
:102DA0008DF86600FFE7FFE71C98006880000028A8
:102DB0000DD5FFE71C982430022104F001FD002806
:102DC00004D0FFE701208DF86600FFE7FFE71C98BD
:102DD0000068800300283CD5FFE71C98C06F0028DE
:102DE00001901AD0FFE70198B0F5807F0AD0FFE785
:102DF0000198B0F5007F0ED0FFE70198B0F5407F55
:102E00000AD00BE044F22C40C5F60200016841F400
:102E10000031016006E005E004E003E001208DF8E8
:102E20006700FFE79DF8670000280CD1FFE744F238
:102E30005440C5F60200016821F440711C9AD26F1B
:102E40001143016004E09DF867008DF86600FFE71C
:102E5000FFE71C980068C00200280CD5FFE744F289
:102E60005040C5F60200016821F000411C9A126F23
:102E700011430160FFE71C980068C00000280DD5D1
:102E8000FFE744F21040C5F60200016821F48041DA
:102E90001C9AD2F8B42011430160FFE71C98006827
:102EA000800200280CD5FFE744F25040C5F602002E
:102EB000016821F080711C9A926E11430160FFE756
:102EC0001C9800684000002811D5FFE7FFE744F296
:102ED0001040C5F60200016821F4004101601C9910
:102EE000D1F8B810026811430160FFE7FFE71C98B2
:102EF0000068C00F00280CD0FFE744F24C40C5F634
:102F00000200016821F040511C9A126D11430160CA
:102F1000FFE79DF86600002804D1FFE700208DF848
:102F2000770003E001208DF87700FFE79DF8770038
:102F30001EB080BD0000000080B588B00A46034680
:102F400006900591069800280292019304D1FFE7AC
:102F500001208DF81F0031E2059842F20001C5F210
:102F60000021096801F00F01884216D9FFE742F2FB
:102F70000000C5F20020016821F00F01059A1143FD
:102F80000160006800F00F000599884204D0FFE757
:102F900001208DF81F0011E2FFE706980068400746
:102FA000002819D5FFE70698006944F21841C5F6D4
:102FB0000201096801F0700188420CD9FFE744F270
:102FC0001840C5F60200016821F07001069A1269E6
:102FD00011430160FFE7FFE706980068000700283B
:102FE00019D5FFE70698406944F21C41C5F6020175
:102FF000096801F0700188420CD9FFE744F21C40D7
:10300000C5F60200016821F07001069A5269114369
:103010000160FFE7FFE706980068C006002819D5A1
:10302000FFE70698806944F21C41C5F60201096871
:1030300001F4E06188420CD9FFE744F21C40C5F678
:103040000200016821F4E061069A9269114301606F
:10305000FFE7FFE7069800688006002819D5FFE71C
:103060000698C06944F22041C5F60201096801F0E2
:10307000700188420CD9FFE744F22040C5F60200F7
:10308000016821F07001069AD26911430160FFE7DF
:10309000FFE7069800688007002819D5FFE7069823
:1030A000C06844F21841C5F60201096801F00F0139
:1030B00088420CD9FFE744F21840C5F602000168C7
:1030C00021F00F01069AD26811430160FFE7FFE784
:1030D00006980068C007002800F08E80FFE744F2E1
:1030E0001840C5F60200016821F47061069A9268E2
:1030F0001143016006984068022811D1FFE744F2AD
:103100000040C5F60200006800F400300021B1EB79
:10311000504F04D1FFE701208DF81F004EE13EE043
:1031200006984068032811D1FFE744F20040C5F635
:103130000200006800F000700021B1EB506F04D174
:10314000FFE701208DF81F0038E127E0069840686E
:10315000012811D1FFE744F20040C5F602000068E3
:1031600000F480700021B1EB102F04D1FFE70120A3
:103170008DF81F0022E110E044F20040C5F6020085
:10318000006800F004000021B1EB900F04D1FFE7CC
:1031900001208DF81F0011E1FFE7FFE7FFE744F290
:1031A0001040C5F60200016821F00701069A526836
:1031B00011430160FEF72CFA0390FFE744F2104040
:1031C000C5F60200006800F0380006994968B0EBC7
:1031D000C10F10D0FFE7FEF71BFADDF80CE0A0EB03
:1031E0000E0041F2893E704504D3FFE703208DF8BD
:1031F0001F00E3E0E2E7FFE7069800688007002889
:1032000019D5FFE70698C06844F21841C5F60201D7
:10321000096801F00F0188420CD2FFE744F2184020
:10322000C5F60200016821F00F01069AD268114329
:103230000160FFE7FFE7059842F20001C5F20021B7
:10324000096801F00F01884216D2FFE742F2000040
:10325000C5F20020016821F00F01059A11430160B9
:10326000006800F00F000599884204D0FFE70120B4
:103270008DF81F00A2E0FFE70698006840070028CD
:1032800019D5FFE70698006944F21841C5F6020116
:10329000096801F0700188420CD2FFE744F218403F
:1032A000C5F60200016821F07001069A1269114307
:1032B0000160FFE7FFE7069800680007002819D5BE
:1032C000FFE70698406944F21C41C5F6020109680F
:1032D00001F0700188420CD2FFE744F21C40C5F6B1
:1032E0000200016821F07001069A526911430160E1
:1032F000FFE7FFE706980068C006002819D5FFE73A
:103300000698806944F21C41C5F60201096801F47F
:10331000E06188420CD2FFE744F21C40C5F602008F
:10332000016821F4E061069A926911430160FFE7A8
:10333000FFE7069800688006002819D5FFE7069881
:10334000C06944F22041C5F60201096801F070012C
:1033500088420CD2FFE744F22040C5F60200016823
:1033600021F07001069AD26911430160FFE7FFE77F
:1033700000F076F844F2184EC5F6020EDEF800E0D2
:10338000CEF3032E4CF66C31C0F6000111F80E108E
:1033900001F01F01C84040F20401C2F200010860C0
:1033A00040F21000C2F200000068FEF789F98DF8C3
:1033B00013009DF813008DF81F00FFE79DF81F0014
:1033C00008B080BD0000000080B5FEF7E5FA44F2C9
:1033D000184EC5F6020EDEF800E00EF00F0E4CF6A9
:1033E0006C31C0F6000111F80E1001F01F01C84049
:1033F00040F20801C2F200010860086880BD0000C8
:1034000080B5FFF7E1FF44F21C4EC5F6020EDEF870
:1034100000E0CEF3021E4CF66C31C0F6000111F84C
:103420000E1001F01F01C84080BD00000000000028
:1034300080B5FFF7C9FF44F21C4EC5F6020EDEF858
:1034400000E0CEF3022E4CF66C31C0F6000111F80C
:103450000E1001F01F01C84080BD000000000000F8
:103460008AB044F21040C5F60200006800F038004F
:1034700001461828019100F26C810199DFE811F0F2
:10348000190069016901690169016901690169013D
:103490003B0069016901690169016901690169010B
:1034A00041006901690169016901690169016901F5
:1034B000470044F20040C5F60200006800F020001A
:1034C0000021B1EB501F0FD0FFE744F20040C5F6DA
:1034D00002000068C0F3C10049F20001C0F2D0311F
:1034E00021FA00F0029005E049F20000C0F2D0306D
:1034F0000290FFE733E140F60010C0F23D00029079
:103500002DE141F20020C0F27A00029027E144F25E
:103510002840C5F60200016801F003010891006827
:10352000C0F30510079044F22C40C5F60200006875
:1035300000F001000690069844F23441C5F60201FD
:10354000096889B2C908484300EE100AB8EE400A7B
:103550008DED040A0798002800F0F780FFE708982F
:103560000028009009D0FFE7009801286AD0FFE703
:103570000098022800F08A80ACE044F20040C5F6D2
:103580000200006800F020000021B1EB501F34D091
:10359000FFE744F20040C5F602000068C0F3C10036
:1035A00049F20001C0F2D03121FA00F005909DED02
:1035B000050AB8EE400A9DED071AB8EE411A80EEF2
:1035C000010A44F23040C5F6020000686FF35F2044
:1035D00001EE100AB8EE411A9DED042A9FED623A01
:1035E00082EE032A31EE021AB7EE002A31EE021AF9
:1035F00020EE010A8DED030A23E09DED070AB8EEE7
:10360000400A9FED5B1A81EE000A44F23040C5F695
:10361000020000686FF35F2001EE100AB8EE411A55
:103620009DED042A9FED503A82EE032A31EE021AF4
:10363000B7EE002A31EE021A20EE010A8DED030AE0
:10364000FFE76BE09DED070AB8EE400A9FED471AD1
:1036500081EE000A44F23040C5F6020000686FF3C4
:103660005F2001EE100AB8EE411A9DED042A9FED8D
:103670003E3A82EE032A31EE021AB7EE002A31EE0C
:10368000021A20EE010A8DED030A47E09DED070ABC
:10369000B8EE400A9FED331A81EE000A44F2304042
:1036A000C5F6020000686FF35F2001EE100AB8EE65
:1036B000411A9DED042A9FED2C3A82EE032A31EE49
:1036C000021AB7EE002A31EE021A20EE010A8DED41
:1036D000030A23E09DED070AB8EE400A9FED231A86
:1036E00081EE000A44F23040C5F6020000686FF334
:1036F0005F2001EE100AB8EE411A9DED042A9FEDFD
:103700001A3A82EE032A31EE021AB7EE002A31EE9F
:10371000021A20EE010A8DED030AFFE744F2304061
:10372000C5F60200006880B2012101EB502009902B
:103730009DED030A9DED091AB8EE411A80EE010ACB
:10374000BCEEC00A8DED020A02E000200290FFE705
:1037500005E040F60010C0F23D000290FFE702983D
:103760000AB070470024F44A000000460024744A5E
:103770000024744C0000000080B58AB00146089017
:1037800008980028009105D1FFE701208DF8270057
:1037900000F003BD08980068C007002800F0C08052
:1037A000FFE744F21040C5F60200006800F0380060
:1037B000069044F22840C5F602000068059006987D
:1037C00010280AD0FFE7069818281DD1FFE70598B2
:1037D00000F00300022817D1FFE744F20040C5F6CD
:1037E0000200006800F400300021B1EB504F0AD015
:1037F000FFE708984068002805D1FFE701208DF811
:10380000270000F0CABC8AE0FFE708984068B0F5DE
:10381000803F09D1FFE744F20040C5F6020001688D
:1038200041F48031016033E00898406800280DD1F0
:10383000FFE744F20040C5F60200016821F4803140
:103840000160016821F48021016020E0089840684F
:10385000B0F5A02F0DD1FFE744F20040C5F60200FD
:10386000016841F480210160016841F48031016008
:103870000CE044F20040C5F60200016821F48031FA
:103880000160016821F480210160FFE7FFE7FFE7A5
:10389000FFE708984068002820D0FFE7FDF7B8FE52
:1038A0000790FFE744F20040C5F60200006800F40C
:1038B00000300021B1EB504F0FD1FFE7FDF7A8FE1C
:1038C000DDF81CE0A0EB0E00652805D3FFE7032020
:1038D0008DF8270000F061BCE4E71FE0FDF798FEDB
:1038E0000790FFE744F20040C5F60200006800F4CC
:1038F00000300021B1EB504F0FD0FFE7FDF788FEFD
:10390000DDF81CE0A0EB0E00652805D3FFE70320DF
:103910008DF8270000F041BCE4E7FFE7FFE7FFE791
:10392000089800688007002840F1FC80FFE744F217
:103930001040C5F60200006800F03800049044F220
:103940002840C5F6020000680390049800280AD0B9
:10395000FFE7049818286AD1FFE79DF80C0080075C
:10396000002864D1FFE744F20040C5F60200006879
:1039700000F004000021B1EB900F0AD0FFE7089897
:10398000C068002805D1FFE701208DF8270000F06E
:1039900004BC44F20040C5F60200016821F01901A0
:1039A000089AD26811430160FDF732FE0790FFE7E5
:1039B00044F20040C5F60200006800F00400002157
:1039C000B1EB900F0ED1FFE7FDF722FEDDF81CE012
:1039D000A0EB0E00032804D3FFE703208DF8270097
:1039E000DBE3E5E7FFE7FDF70BFE41F2030E704571
:1039F0000DD8FFE744F20440C5F60200016821F447
:103A00007C31089A126941EA023101600CE044F20B
:103A10000440C5F60200016821F0FE41089A1269CF
:103A200041EA02610160FFE7FFE7FFE779E00898FC
:103A3000C06800284DD0FFE744F20040C5F6020000
:103A4000016821F01901089AD26811430160FDF75D
:103A5000DFFD0790FFE744F20040C5F60200006872
:103A600000F004000021B1EB900F0ED1FFE7FDF74D
:103A7000CFFDDDF81CE0A0EB0E00032804D3FFE728
:103A800003208DF8270088E3E5E7FFE7FDF7B8FDA1
:103A900041F2030E70450DD8FFE744F20440C5F62D
:103AA0000200016821F47C31089A126941EA02316E
:103AB00001600CE044F20440C5F60200016821F008
:103AC000FE41089A126941EA02610160FFE7FFE7DF
:103AD00026E044F20040C5F60200016821F0010131
:103AE0000160FDF795FD0790FFE744F20040C5F641
:103AF0000200006800F004000021B1EB900F0ED02E
:103B0000FFE7FDF785FDDDF81CE0A0EB0E000328C4
:103B100004D3FFE703208DF827003EE3E5E7FFE746
:103B2000FFE7FFE708980068C006002840F1CF8053
:103B3000FFE744F21040C5F60200006800F03800CC
:103B4000029044F22840C5F60200006801900298F5
:103B500008280AD0FFE70298182840D1FFE701980B
:103B600000F0030001283AD1FFE744F20040C5F617
:103B70000200006800F480700021B1EB102F09D022
:103B8000FFE70898C069802804D0FFE701208DF87E
:103B9000270002E3FFE7FDF733FD41F2030E704516
:103BA0000DD8FFE744F20440C5F60200016821F099
:103BB000F841089A126A41EA826101600CE044F21D
:103BC0000C40C5F60200016821F07C51089A126A87
:103BD00041EA02610160FFE7FFE7FFE776E008984E
:103BE000C06900284AD0FFE744F20040C5F6020051
:103BF000016841F080010160FDF70AFD0790FFE7D1
:103C000044F20040C5F60200006800F48070002114
:103C1000B1EB102F0ED1FFE7FDF7FAFCDDF81CE049
:103C2000A0EB0E00032804D3FFE703208DF8270044
:103C3000B3E2E5E7FFE7FDF7E3FC41F2030E704571
:103C40000DD8FFE744F20440C5F60200016821F0F8
:103C5000F841089A126A41EA826101600CE044F27C
:103C60000C40C5F60200016821F07C51089A126AE6
:103C700041EA02610160FFE7FFE726E044F200400D
:103C8000C5F60200016821F080010160FDF7C0FC6B
:103C90000790FFE744F20040C5F60200006800F418
:103CA00080700021B1EB102F0ED0FFE7FDF7B0FCC4
:103CB000DDF81CE0A0EB0E00032804D3FFE703208F
:103CC0008DF8270069E2E5E7FFE7FFE7FFE70898DF
:103CD00000680007002854D5FFE7089840690028CD
:103CE00027D0FFE744F27440C5F60200016841F0B6
:103CF00001010160FDF78CFC0790FFE744F274407E
:103D0000C5F60200006800F002000021B1EB500F80
:103D10000ED1FFE7FDF77CFCDDF81CE0A0EB0E0008
:103D2000032804D3FFE703208DF8270035E2E5E7F9
:103D300026E044F27440C5F60200016821F001015A
:103D40000160FDF765FC0790FFE744F27440C5F69B
:103D50000200006800F002000021B1EB500F0ED00D
:103D6000FFE7FDF755FCDDF81CE0A0EB0E00032893
:103D700004D3FFE703208DF827000EE2E5E7FFE715
:103D8000FFE7089800688006002854D5FFE70898E8
:103D90008069002827D0FFE744F20040C5F6020002
:103DA000016841F480510160FDF732FC0790FFE7A4
:103DB00044F20040C5F60200006800F40050002103
:103DC000B1EB503F0ED1FFE7FDF722FCDDF81CE020
:103DD000A0EB0E00032804D3FFE703208DF8270093
:103DE000DBE1E5E726E044F20040C5F602000168A9
:103DF00021F480510160FDF70BFC0790FFE744F2CE
:103E00000040C5F60200006800F400500021B1EB4C
:103E1000503F0ED0FFE7FDF7FBFBDDF81CE0A0EB09
:103E20000E00032804D3FFE703208DF82700B4E138
:103E3000E5E7FFE7FFE7089800684007002840F142
:103E4000AF80FFE744F60000C5F60200016841F4C8
:103E500080710160FDF7DCFB0790FFE744F600008E
:103E6000C5F602000068C00500280ED4FFE7FDF784
:103E7000CFFBDDF81CE0A0EB0E00652804D3FFE7C4
:103E800003208DF8270088E1E8E7FFE708988068BD
:103E9000012809D1FFE744F27040C5F6020001682D
:103EA00041F00101016032E00898806800280DD1DE
:103EB000FFE744F27040C5F60200016821F00101FD
:103EC0000160016821F0040101601FE0089880682A
:103ED00005280DD1FFE744F27040C5F602000168E5
:103EE00041F004010160016841F0010101600CE052
:103EF00044F27040C5F60200016821F00101016042
:103F0000016821F004010160FFE7FFE7FFE7FFE739
:103F100008988068002821D0FFE7FDF779FB07901B
:103F2000FFE744F27040C5F60200006800F00200AE
:103F30000021B1EB500F10D1FFE7FDF769FBDDF871
:103F40001CE0A0EB0E0041F2893E704504D3FFE770
:103F500003208DF8270020E1E3E720E0FDF758FB80
:103F60000790FFE744F27040C5F60200006800F0D9
:103F700002000021B1EB500F10D0FFE7FDF748FB26
:103F8000DDF81CE0A0EB0E0041F2893E704504D341
:103F9000FFE703208DF82700FFE0E3E7FFE7FFE7F7
:103FA0000898406A002800F0F480FFE744F21040CF
:103FB000C5F60200006800F03800182800F0E48020
:103FC000FFE70898406A022840F0B680FFE744F215
:103FD0000040C5F60200016821F080710160FDF724
:103FE00017FB0790FFE744F20040C5F602000068A7
:103FF00000F000700021B1EB506F0ED0FFE7FDF72D
:1040000007FBDDF81CE0A0EB0E00032804D3FFE75C
:1040100003208DF82700C0E0E5E7FFE744F22840E1
:10402000C5F60200016840F2F3329143089A936AA0
:10403000D26A43EA0212114301600898016B426B95
:10404000836BC06B01396FF35F214FF6006CCFF6C5
:10405000FF7C0CEB422292B211440022CFF6FF7299
:1040600002EB034202F4FE0211444FF07F4202EBE6
:10407000006000F0FE40084444F23041C5F6020101
:104080000860FFE744F22C40C5F60200016821F009
:104090000101016044F23441C5F602010A684FF69D
:1040A000F8739A43089B9B6C42EAC3020A6001685A
:1040B00021F00C01089A126C11430160016821F093
:1040C0000201089A526C11430160016841F4803189
:1040D0000160016841F400310160016841F4802110
:1040E0000160016841F00101016044F20040C5F641
:1040F0000200016841F080710160FDF789FA0790C4
:10410000FFE744F20040C5F60200006800F00070CE
:104110000021B1EB506F0ED1FFE7FDF779FADDF822
:104120001CE0A0EB0E00032804D3FFE703208DF86A
:10413000270032E0E5E726E044F20040C5F6020041
:10414000016821F080710160FDF762FA0790FFE7D6
:1041500044F20040C5F60200006800F00070002143
:10416000B1EB506F0ED0FFE7FDF752FADDF81CE01F
:10417000A0EB0E00032804D3FFE703208DF82700EF
:104180000BE0E5E7FFE703E001208DF8270004E0FE
:10419000FFE700208DF82700FFE79DF827000AB011
:1041A00080BD00000000000080B586B0014604908C
:1041B0000020039004980028019104D1FFE701201A
:1041C0008DF817000EE10498406A002801D1FFE73E
:1041D000FFE70498002181620498006843F200011F
:1041E000C4F2010188421BD0FFE70498006843F63F
:1041F0000001C4F20001884212D0FFE70498006871
:1042000043F60041C4F20001884209D0FFE7049858
:10421000C068102804D3FFE701208DF81700E1E003
:10422000049803F049FC02900498006843F2000EE1
:10423000C4F2010E704516D0FFE70498006843F6FB
:104240000001C4F2000188420DD0FFE70498006825
:1042500043F60041C4F20001884204D0FFE702980F
:1042600008281FD8FFE70498006843F20001C4F251
:104270000101884212D0FFE70498006843F600016C
:10428000C4F20001884209D0FFE70498006843F6B1
:104290000041C4F20001884208D1FFE702981128CA
:1042A00004D3FFE701208DF817009BE0049890F8F5
:1042B0008100002808D1FFE70498002180F88010D1
:1042C000049800F095F8FFE70498022180F8811027
:1042D00004980068016821F0010101600498806978
:1042E000B0F1806F12D1FFE704984068B0F5800FFD
:1042F0000CD1FFE70498806B002807D1FFE70498F2
:104300000068016841F480510160FFE7049801688A
:10431000C268C369D0F828C043EA0C03DDF80CC0BA
:1043200043EA0C03C06B1843104388600498416B48
:10433000426A1143826B11438269114302684368E8
:10434000D0F808C0D0F810E041EA0E01D0F814E02F
:1043500041EA0E01D0F820E041EA0E011943C36C96
:10436000194341EA0C01836C1943806D0843D06006
:1043700004984068002813D1FFE70498006880681B
:10438000012161F3CC2004990968886004980068D1
:104390008068022161F34A20049909688860FFE778
:1043A00004980068016D21F00101016504984068DE
:1043B000400200280BD5FFE704980068C06820F091
:1043C000004004990A68496D0843D060FFE70498EB
:1043D0000021C0F884100498012280F881208DF813
:1043E0001710FFE79DF8170006B080BD0000000021
:1043F00080B592B001461190002010900F900E9061
:104400000D900C901198006843F60042C4F200022F
:10441000904208915CD1FFE7FFE744F2E840C5F61F
:104420000200016841F400410160006800F40040AE
:104430000B900B980790FFE7FFE744F2E040C5F6CA
:104440000200016841F002010160006800F0020012
:104450000A900A980690FFE7FFE744F2E040C5F6AD
:104460000200016841F004010160006800F00400EE
:10447000099009980590FFE704200C9002200D9008
:1044800000210E9103220F920723109340F2004364
:10449000C5F602030DF1300C0490184603916146F5
:1044A0000292CDF804C0FCF797FE4FF440600C90E8
:1044B00004980D9003990E91029A0F92062310937F
:1044C00040F60000C5F602000199FCF785FEFFE703
:1044D00012B080BD00000000B0B58CB09C4696467E
:1044E0000C4605460A900991ADF82220079300205A
:1044F0008DF81700CDF810C0CDF80CE002940195AE
:10450000FFE70A9890F88000012804D1FFE7022015
:104510008DF82F00F4E10A98012180F88010FFE760
:10452000FFE7FDF775F806900A9890F881000128DA
:104530000ED0FFE702208DF81700FFE70A98002150
:1045400080F88010FFE79DF817008DF82F00D7E165
:104550000998002805D0FFE7BDF8220000280ED1F9
:10456000FFE701208DF81700FFE70A98002180F887
:104570008010FFE79DF817008DF82F00C0E10A9822
:10458000032180F881100A980021C0F8841009984E
:104590000A9AD065BDF822000A9AA2F86000BDF818
:1045A00022000A9AA2F862000A9841660A98A0F8C6
:1045B00068100A98A0F86A100A9841670A9801677B
:1045C0000A988068B0F5C02F07D1FFE70A98006805
:1045D000016841F400610160FFE70A9800684068E3
:1045E0004FF6FF718843BDF8221008440A99096804
:1045F00048600A980068016841F0010101600A986A
:104600004068B0F5800F07D1FFE70A98006801689D
:1046100041F400710160FFE70A98C06810284CD38C
:10462000FFE7FFE70A98B0F86200002844D0FFE7F0
:104630000A98006840698007002810D5FFE70A98AB
:104640000168C06D006808620A98C16D0431C165D7
:104650000A98B0F862100139A0F862102BE0FCF75C
:10466000D7FFDDF818E0A0EB0E00DDF81CE0704588
:1046700005D3FFE707980130002804D1FFE707982A
:10468000002817D1FFE70A9803F086F9FFE70A9898
:10469000002180F88010FFE70A98D0F8841041F4D8
:1046A0008071C0F884100A98012180F881108DF87B
:1046B0002F1025E1FFE7B5E7F2E00A98C068082867
:1046C00068D3FFE7FFE70A98B0F86200002860D0DF
:1046D000FFE70A9800684069800700282CD5FFE7AB
:1046E0000A98B0F86200022815D3FFE70A98C06B59
:1046F000002810D0FFE70A980168C06D00680862C2
:104700000A98C16D0431C1650A98B0F86210023987
:10471000A0F862100FE00A980168C06D0088088454
:104720000A98C16D0231C1650A98B0F8621001396A
:10473000A0F86210FFE72BE0FCF76AFFDDF818E055
:10474000A0EB0E00DDF81CE0704505D3FFE70798ED
:104750000130002804D1FFE70798002817D1FFE7B0
:104760000A9803F019F9FFE70A98002180F88010F1
:10477000FFE70A98D0F8841041F48071C0F88410E3
:104780000A98012180F881108DF82F10B8E0FFE71A
:1047900099E784E0FFE70A98B0F8620000287DD02E
:1047A000FFE70A98006840698007002849D5FFE7BD
:1047B0000A98B0F86200042815D3FFE70A98C06B86
:1047C000412810D3FFE70A980168C06D00680862AD
:1047D0000A98C16D0431C1650A98B0F862100439B5
:1047E000A0F862102CE00A98B0F86200022815D3F5
:1047F000FFE70A98C06B002810D0FFE70A9801680D
:10480000C06D008808840A98C16D0231C1650A989C
:10481000B0F862100239A0F8621010E00A9801683E
:10482000C06D007881F820000A98C16D0131C16522
:104830000A98B0F862100139A0F86210FFE7FFE7AC
:104840002BE0FCF7E5FEDDF818E0A0EB0E00DDF84C
:104850001CE0704505D3FFE707980130002804D11C
:10486000FFE70798002817D1FFE70A9803F094F8AC
:10487000FFE70A98002180F88010FFE70A98D0F837
:10488000841041F48071C0F884100A98012180F8E6
:1048900081108DF82F1033E0FFE77CE7FFE7FFE79B
:1048A0000A98069B07996A4611600821002203F0C6
:1048B0001BF9002808D0FFE70A98D0F8841041F0CF
:1048C0002001C0F88410FFE70A9803F065F8FFE7BD
:1048D0000A98002180F88010FFE70A98012180F8EB
:1048E00081100A98D0F88400002804D0FFE7012046
:1048F0008DF82F0004E09DF817008DF82F00FFE7DA
:104900009DF82F000CB0B0BD80B582B0014601907B
:104910000198009103F048F902B080BD000000004A
:1049200082B001460190009102B070470000000083
:1049300082B001460190009102B070470000000073
:1049400082B001460190009102B070470000000063
:1049500086B00A460346049003910020029001921B
:104960000093FFE7049890F83C00012804D1FFE78A
:1049700002208DF8170074E00498012180F83C10A3
:10498000FFE7FFE7029820F0FF000399C96808439A
:104990000290029820F440700399896808430290BD
:1049A000029820F4806003994968084302900298B5
:1049B00020F400600399096808430290029820F4EB
:1049C00080500399096908430290029820F400502E
:1049D0000399496908430290029820F480400399A2
:1049E000896A08430290029820F47020039989692B
:1049F00040EA01400290049800680021C4F20101DD
:104A0000884209D0FFE70498006840F20041C4F2F0
:104A10000101884217D1FFE7029820F47000039942
:104A2000496A40EA01500290029820F08070039990
:104A3000C96908430290029820F000700399096A3E
:104A400008430290FFE70298049909684864FFE769
:104A50000498002180F83C10FFE700208DF8170033
:104A6000FFE79DF8170006B0704700000000000047
:104A700087B00A4603460590049101920093FFE730
:104A8000059890F83C00012804D1FFE702208DF83A
:104A90001B0054E00598012180F83C10FFE7FFE778
:104AA0000598022180F83D10059800684068039041
:104AB0000598006880680290059800680021C4F29B
:104AC0000101884209D0FFE70598006840F20041E3
:104AD000C4F2010188420AD1FFE7039820F4700074
:104AE000039004984068039908430390FFE70398F4
:104AF00020F0700003900498006803990843039025
:104B0000029820F08000029004988068029908437F
:104B10000290039805990968486002980599096808
:104B200088600598012180F83D10FFE70598002175
:104B300080F83C10FFE700208DF81B00FFE79DF890
:104B40001B0007B07047000080B584B0014602909A
:104B500002980028019104D1FFE701208DF80F0091
:104B600021E0029890F83D00002808D1FFE7029864
:104B7000002180F83C10029800F01AF8FFE7029834
:104B8000022180F83D10029850F8041B009008465E
:104B9000009903F0E9F90298012180F83D10002006
:104BA0008DF80F00FFE79DF80F0004B080BD0000F6
:104BB00080B58CB001460B900B9800680022C4F2BF
:104BC00001029042069111D1FFE7FFE744F2F04065
:104BD000C5F60200016841F001010160006800F0C3
:104BE00001000A900A980590FFE757E00B980068CB
:104BF000B0F1804F1BD1FFE7FFE744F2E840C5F674
:104C00000200016841F001010160006800F001004C
:104C1000099009980490FFE71C200021039002915D
:104C2000029AFCF7B5FD0398FCF7A6FD35E00B985A
:104C3000006840F60001C4F20001884211D1FFE78C
:104C4000FFE744F2E840C5F60200016841F00401C4
:104C50000160006800F00400089008980190FFE7E8
:104C60001AE00B98006840F60041C4F20001884247
:104C700011D1FFE7FFE744F2E840C5F60200016802
:104C800041F008010160006800F0080007900798F3
:104C90000090FFE7FFE7FFE7FFE7FFE70CB080BD0D
:104CA00083B0014602900298022280F83D200298CB
:104CB000006880680722C0F201021040019001984C
:104CC000062800910CD0FFE70198B0F5803F07D08F
:104CD000FFE702980068016841F001010160FFE709
:104CE0000298012180F83D10002003B070470000B9
:104CF00083B00146029002980068C26842F0010247
:104D0000C2600298006880680722C0F20102104069
:104D100001900198062800910CD0FFE70198B0F5AA
:104D2000803F07D0FFE702980068016841F0010169
:104D30000160FFE7002003B07047000000000000A2
:104D400082B00146019001980068C26822F0010219
:104D5000C2600091FFE701980068006A41F21111FA
:104D6000084210D1FFE701980068006A40F2444110
:104D7000084207D1FFE701980068016821F00101AE
:104D80000160FFE7FFE7FFE7002002B07047000087
:104D900080B58CB00A4603460A90099107920693A3
:104DA000FFE70A9890F83C00012804D1FFE70220B1
:104DB0008DF82F00DDE00A98012180F83C10FFE714
:104DC000FFE70A98022180F83D100A980068806881
:104DD000089008984FF68871CFF6CE710840089079
:104DE000089820F47F40089008980A99096888601C
:104DF000099800680028059000F0A580FFE7059855
:104E0000102800F0A080FFE70598202800F09B8084
:104E1000FFE70598302800F09680FFE705984028C6
:104E200000F08180FFE7059850285CD0FFE70598E7
:104E3000602868D0FFE7059870282AD0FFE705981A
:104E4000B0F5805F24D0FFE70598B0F5005F38D05B
:104E5000FFE70598B0F5801F75D0FFE70598B0F122
:104E6000101F70D0FFE72020C0F21000059981428A
:104E700069D0FFE73020C0F210000599814262D06E
:104E8000FFE74020C0F21000059981425BD061E04D
:104E900061E00A98006809994A688B68C9680491BA
:104EA0001946049B03F05CF90A9800688068089032
:104EB000089840F07700089008980A990968886077
:104EC00049E00A98006809994A688B68C9680391A3
:104ED0001946039B03F044F90A980068816841F47D
:104EE0008041816037E00A98006809994A68C9687A
:104EF00002911146029A03F0ABFD0A980068502116
:104F000003F056F927E00A98006809994A68C968C9
:104F100001911146019A03F0CFFD0A9800686021C3
:104F200003F046F917E00A98006809994A68C968C9
:104F300000911146009A03F08BFD0A980068402109
:104F400003F036F907E00A9800680999096803F048
:104F50002FF900E0FFE70A98012180F83D10FFE7F4
:104F60000A98002180F83C10FFE700208DF82F0000
:104F7000FFE79DF82F000CB080BD0000000000008E
:104F800082B001460190009102B07047000000001D
:104F900080B582B00146019001980068006900F078
:104FA00002000022B2EB500F009129D0FFE70198D8
:104FB0000068C06800F002000021B1EB500F1ED065
:104FC000FFE7019800686FF002010161019801217B
:104FD00001770198006880698007002804D0FFE706
:104FE0000198FFF7CDFF06E0019800F0B9F90198AC
:104FF00000F0E6FAFFE7019800210177FFE7FFE7FD
:1050000001980068006900F004000021B1EB900FE6
:1050100029D0FFE701980068C06800F00400002173
:10502000B1EB900F1ED0FFE7019800686FF004010C
:10503000016101980221017701980068806910F4EC
:10504000407F04D0FFE70198FFF79AFF06E0019840
:1050500000F086F9019800F0B3FAFFE7019800210B
:105060000177FFE7FFE701980068006900F008009A
:105070000021B1EBD00F29D0FFE701980068C0688C
:1050800000F008000021B1EBD00F1ED0FFE701981F
:1050900000686FF00801016101980421017701980F
:1050A0000068C0698007002804D0FFE70198FFF777
:1050B00067FF06E0019800F053F9019800F080FACC
:1050C000FFE7019800210177FFE7FFE701980068FB
:1050D000006900F010000021B1EB101F29D0FFE79C
:1050E00001980068C06800F010000021B1EB101FAB
:1050F0001ED0FFE7019800686FF010010161019870
:105100000821017701980068C06910F4407F04D03D
:10511000FFE70198FFF734FF06E0019800F020F95F
:10512000019800F04DFAFFE7019800210177FFE7B1
:10513000FFE7019800680069C007002811D0FFE769
:1051400001980068C068C007002809D0FFE70198EF
:1051500000686FF001010161019800F031FBFFE789
:10516000FFE7019800680069C0B20021B1EBD01FD1
:1051700013D0FFE701980068C068C0B20021B1EB0E
:10518000D01F09D0FFE7019800686FF0800101612E
:105190000198FFF7CDFBFFE7FFE701980068006982
:1051A00000F480700021B1EB102F13D0FFE70198BD
:1051B0000068C068C0B20021B1EBD01F09D0FFE782
:1051C000019800686FF4807101610198FFF7A8FBF6
:1051D000FFE7FFE701980068006900F04000002148
:1051E000B1EB901F14D0FFE701980068C06800F091
:1051F00040000021B1EB901F09D0FFE70198006843
:105200006FF040010161019800F07EFBFFE7FFE7CE
:1052100001980068006900F020000021B1EB501FE8
:1052200014D0FFE701980068C06800F0200000215A
:10523000B1EB501F09D0FFE7019800686FF0200123
:1052400001610198FFF77CFBFFE7FFE702B080BD3B
:1052500080B58EB001460D9000200C900B900A9006
:10526000099008900D9800680022C4F20102904253
:10527000049122D1FFE7FFE744F2E040C5F60200C7
:10528000016841F010010160006800F01000079013
:1052900007980390FFE74FF40070089002200990F0
:1052A00000200A900B9001200C9041F20000C5F6FE
:1052B000020008A9FBF790FF50E00D980068B0F1DC
:1052C000804F1FD1FFE7FFE744F2E040C5F6020040
:1052D000016841F001010160006800F001000690E2
:1052E00006980290FFE70120089002210991002111
:1052F0000A910B910C900020C5F6020008A9FBF75B
:105300006BFF2AE00D98006840F60001C4F200012E
:10531000884221D1FFE7FFE744F2E040C5F60200F2
:10532000016841F008010160006800F00800059084
:1053300005980190FFE74FF4005008900220099073
:1053400000210A910B910C9040F60040C5F6020036
:1053500008A9FBF741FFFFE7FFE7FFE70EB080BDBD
:1053600082B001460190009102B070470000000039
:1053700080B588B013468C46864606900591049207
:105380000393CDF808C0CDF804E0FFE7069890F845
:105390003C00012804D1FFE702208DF81F00CDE07A
:1053A0000698012180F83C10FFE7FFE706980221EC
:1053B00080F83D1004981428009000F2B080009905
:1053C000DFE801F00BADADAD26ADADAD41ADADAD9E
:1053D0005CADADAD77ADADAD9200069800680599B6
:1053E00002F002FF06980068816941F008018161BE
:1053F00006980068816921F00401816105980069BF
:1054000006990968D1F818E040EA0E00886187E043
:1054100006980068059902F093FF06980068816974
:1054200041F40061816106980068816921F480611E
:1054300081610598006906990968D1F818E04EEA7B
:10544000002088616CE006980068059903F038F840
:1054500006980068C16941F00801C16106980068BA
:10546000C16921F00401C1610598006906990968C4
:10547000D1F81CE040EA0E00C86151E006980068CF
:10548000059903F0D9F806980068C16941F40061F4
:10549000C16106980068C16921F48061C161059805
:1054A000006906990968D1F81CE04EEA0020C8613D
:1054B00036E006980068059903F02EF90698006812
:1054C000416D41F00801416506980068416D21F089
:1054D000040141650598006906990968D1F854E00E
:1054E00040EA0E0048651BE006980068059903F045
:1054F0007FF906980068416D41F4006141650698A6
:105500000068416D21F48061416505980069069944
:105510000968D1F854E04EEA0020486500E0FFE752
:105520000698012180F83D10FFE70698002180F8D9
:105530003C10FFE700208DF81F00FFE79DF81F00DB
:1055400008B080BD0000000080B584B00146029024
:1055500002980028019104D1FFE701208DF80F0087
:1055600021E0029890F83D00002808D1FFE702985A
:10557000002180F83C10029800F01AF8FFE702982A
:10558000022180F83D10029850F8041B0090084654
:10559000009902F0E9FC0298012180F83D100020FA
:1055A0008DF80F00FFE79DF80F0004B080BD0000EC
:1055B00082B001460190009102B0704700000000E7
:1055C00082B001460190009102B0704700000000D7
:1055D00080B588B00A460346079006910798006890
:1055E00006994FF0010C049262460393CDF808C06F
:1055F00002F08EFD0798006802990022C4F20102B1
:10560000904201912DD0FFE707980068012140F2F8
:105610000042C4F201029042019122D0FFE70798B4
:105620000068012144F20002C4F20102904201919B
:1056300017D0FFE707980068012144F20042C4F246
:105640000102904201910CD0FFE7079800684BF6E9
:105650000001CBF6FE710844B0FA80F040090190D9
:10566000FFE70198C007002807D0FFE70798006808
:10567000416C41F400414164FFE70798006880688D
:105680000721C0F2010108400590059806280CD0BA
:10569000FFE70598B0F5803F07D0FFE7079800685F
:1056A000016841F001010160FFE7002008B080BD02
:1056B00080B586B00A4603460590049105980068B7
:1056C00004994FF0000C03926246029302F020FD11
:1056D0000598006801210022C4F201029042019164
:1056E0002DD0FFE705980068012140F20042C4F286
:1056F00001029042019122D0FFE705980068012144
:1057000044F20002C4F201029042019117D0FFE777
:1057100005980068012144F20042C4F2010290425F
:1057200001910CD0FFE7059800684BF60001CBF61D
:10573000FE710844B0FA80F040090190FFE701983B
:10574000C00700281BD0FFE7FFE705980068006A44
:1057500041F21111084210D1FFE705980068006A74
:1057600040F24441084207D1FFE705980068416CC8
:1057700021F400414164FFE7FFE7FFE7FFE7FFE7B0
:1057800005980068006A41F21111084210D1FFE744
:1057900005980068006A40F24441084207D1FFE7DB
:1057A00005980068016821F001010160FFE7FFE74B
:1057B000FFE70598012180F83D10002006B080BD6C
:1057C00080B586B001460590059840F22412C2F2D9
:1057D00000029042049145D1FFE740F22C00C2F252
:1057E0000000016801310160006840F23001C2F23E
:1057F00000010968884234D1FFE740F22C00C2F270
:105800000000006800282CD0FFE740F23000C2F210
:1058100000000068002824D0FFE740F22410C2F204
:105820000000002103900291FFF742FF40F258016F
:10583000C2F20001DDF808E0C1F800E040F2A84142
:10584000C2F2000101220A6040F22C01C2F2000102
:10585000C1F800E0039901900846FFF771FA009043
:10586000FFE7FFE706B080BD80B586B00A46034675
:105870000490039102920193FFE7049890F83C0092
:10588000012804D1FFE702208DF8170038E00498C2
:10589000012180F83C10FFE7FFE70498022180F81F
:1058A0003D100498039903F00FF800280ED0FFE78D
:1058B0000498012180F83D10FFE70498002180F84A
:1058C0003C10FFE701208DF8170019E004980068EC
:1058D000C16821F04001C16004980068C16821F4EA
:1058E0008041C1600498012180F83D10FFE70498D1
:1058F000002180F83C10FFE700208DF81700FFE73B
:105900009DF8170006B080BD82B00146019000915D
:1059100002B070470000000084B001460290009180
:10592000FFE7029890F87C00012804D1FFE70220ED
:105930008DF80F002CE00298012180F87C10FFE721
:10594000FFE702982421C0F88010029800680068E0
:10595000019002980068016821F00101016001983E
:1059600020F00050019002980021416601980299B0
:105970000968086002982021C0F88010FFE70298AB
:10598000002180F87C10FFE700208DF80F00FFE772
:105990009DF80F0004B0704782B00146019000915D
:1059A00002B070470000000080B586B00A4603468A
:1059B0000490039101920093FFE7049890F87C0013
:1059C000012804D1FFE702208DF8170032E0049887
:1059D000012180F87C10FFE7FFE704982421C0F83C
:1059E00080100498006800680290049800680168BC
:1059F00021F00101016004980068806820F0606077
:105A000003990843049909688860049803F098F89A
:105A1000029804990968086004982021C0F8801051
:105A2000FFE70498002180F87C10FFE700208DF844
:105A30001700FFE79DF8170006B080BD00000000CA
:105A400080B586B00A460346049003910192009304
:105A5000FFE7049890F87C00012804D1FFE70220BA
:105A60008DF8170032E00498012180F87C10FFE7E0
:105A7000FFE704982421C0F88010049800680068AB
:105A8000029004980068016821F001010160049807
:105A90000068806820F06040039908430499096811
:105AA0008860049803F04CF802980499096808602B
:105AB00004982021C0F88010FFE70498002180F8A6
:105AC0007C10FFE700208DF81700FFE79DF8170016
:105AD00006B080BD0000000082B001460190009138
