:020000040800F2
:10000000F0050020AD020008273400088331000805
:1000100025340008B9030008B54B000800000000B3
:100020000000000000000000000000006D36000825
:100030000507000800000000293400086F3600089A
:10004000C7020008C7020008C7020008C70200086C
:10005000C7020008C7020008C7020008C70200085C
:10006000C7020008C7020008C7020008BD03000855
:10007000C7020008C7020008C7020008C70200083C
:10008000C7020008C7020008C7020008C70200082C
:10009000C7020008C7020008C7020008C70200081C
:1000A000C7020008C7020008C7020008C70200080C
:1000B000C7020008C7020008C7020008C7020008FC
:1000C000C7020008C7020008C7020008C7020008EC
:1000D000C7020008C7020008C7020008C7020008DC
:1000E000C7020008C702000800000000C70200089D
:1000F000C7020008C7020008C7020008C7020008BC
:10010000C7020008C7020008C7020008C7020008AB
:10011000C7020008C7020008C7020008C70200089B
:10012000C7020008C7020008C7020008C70200088B
:10013000C7020008C7020008C7020008C70200087B
:1001400000000000000000000000000000000000AF
:10015000C7020008C7020008C7020008C70200085B
:10016000C7020008C7020008C7020008C70200084B
:10017000C7020008C7020008C7020008000000000C
:10018000C7020008C7020008C7020008C70200082B
:10019000C7020008C7020008C7020008C70200081B
:1001A000C7020008C7020008C7020008C70200080B
:1001B000C7020008C7020008C7020008C7020008FB
:1001C000C7020008C7020008C7020008C7020008EB
:1001D000C7020008C7020008C7020008C7020008DB
:1001E000C7020008C7020008C7020008C7020008CB
:1001F000C7020008C7020008C7020008C7020008BB
:10020000C7020008C7020008C7020008C7020008AA
:10021000C7020008C7020008C7020008C70200089A
:10022000C7020008C7020008C7020008000000005B
:10023000C7020008C702000800000000C70200084B
:10024000C7020008C7020008C7020008C70200086A
:10025000C7020008C7020008C7020008C70200085A
:10026000C7020008C7020008C7020008C70200084A
:10027000C7020008C7020008C7020008000000000B
:10028000C7020008C7020008C702000800000000FB
:1002900000000000C7020008DFF80CD000F07AF878
:1002A00000480047F94B0008F00500200648804749
:1002B00006480047FEE7FEE7FEE7FEE7FEE7FEE74B
:1002C000FEE7FEE7FEE7FEE7213700089902000897
:1002D0002DE9F05F0546002092469B46884606467B
:1002E000814640241BE0284641464746224600F00E
:1002F00041F853465A46C01A914110D31146184648
:10030000224600F028F82D1A67EB01084F462246D6
:100310000120002100F01FF817EB00094E41201EBC
:10032000A4F10104DFDC484631462A464346BDE8D5
:10033000F09FD2B201E000F8012B491EFBD27047BA
:100340000022F6E710B513460A4604461946FFF7A1
:10035000F0FF204610BD202A04DB203A00FA02F10B
:10036000002070479140C2F1200320FA03F31943A3
:1003700090407047202A04DB203A21FA02F0002145
:10038000704721FA02F3D040C2F1200291400843A5
:1003900019467047064C074D06E0E06840F001033F
:1003A00094E8070098471034AC42F6D3FFF778FF83
:1003B000404C0008604C0008FEE70000014800F0D7
:1003C000A3B9000074010020294A016891423AD083
:1003D000274A1832914236D0254A3032914232D0E3
:1003E000234A483291422ED0214A603291422AD08B
:1003F0001F4A7832914226D01D4A9032914222D033
:100400001B4AA83291421ED01A4A91421BD0194A67
:100410001832914217D0174A3032914213D0154A00
:10042000483291420FD0134A603291420BD0114AA8
:100430007832914207D00F4A9032914203D00D4A50
:10044000A832914211D1CAB21823103AB2FBF3F28A
:100450006FF30901032A02F00703074AD25CC26561
:1004600000D9091D81650846704721F0FF01F9E7B1
:100470001000024010040240284C000830B5224A07
:10048000012301689142CAB21BD01F4C1434A1420F
:1004900017D01D4C2834A14213D01B4C3C34A14230
:1004A0000FD0194C5034A1420BD0174C6434A142E8
:1004B00007D0154C7834A14203D0134C8C34A142A0
:1004C0000CD11421114C083AB2FBF1F10F4A8032E1
:1004D00001F01F0504EB8101AB4010E00C4D182426
:1004E000103A0D44B2FBF4F1A82D00D80831094AA6
:1004F00001F01F0402EB8101064AA3408032603004
:1005000080E80E0030BD0000085402580058025820
:10051000F0FBFDBF0008024010B50279531E072B07
:100520002DD8174C0168A1421BD0154C1434A142A0
:1005300017D0134C2834A14213D0114C3C34A142A3
:100540000FD00F4C5034A1420BD00D4C6434A1425B
:1005500007D00B4C7834A14203D0094C8C34A14213
:1005600003D10849074C443102E00749064C4431A5
:1005700004EB8202C0E91B2101219940416710BDB3
:1005800008540258FC580258FC08024010B5836910
:100590004FF0C074826A0146002053B1B3F5005F8A
:1005A00015D072B1012A0CD0022A0AD0032A09D12F
:1005B00004E01AB1012A06D0022A03D1C96AC9018E
:1005C00000D5012010BDC96AA142FAD010BD002A91
:1005D000F7D0012AF2D0022AF3D0032AF3D010BDBB
:1005E00070B5D0E91964856D7460C46E14B1D0E93A
:1005F0001C466660404E0468B4423AD03E4E1836FF
:10060000B44236D03C4E3036B44232D03A4E483600
:10061000B4422ED0384E6036B4422AD0364E7836A8
:10062000B44226D0344E9036B44222D0324EA83650
:10063000B4421ED0314EB4421BD0304E1836B442B4
:1006400017D02E4E3036B44213D02C4E4836B4421A
:100650000FD02A4E6036B4420BD0284E7836B442C2
:1006600007D0264E9036B44203D0244EA836B4426A
:1006700014D190F85C603F2406F01F06B440AC60D3
:100680000468256825F4802525602DE09A600068BF
:10069000C16070BD99600068C26070BD184EB44200
:1006A0001BD0174E1436B44217D0154E2836B4421C
:1006B00013D0134E3C36B4420FD0114E5036B442D4
:1006C0000BD00F4E6436B44207D00D4E7836B4428C
:1006D00003D00B4E8C36B442DFD190F85C6001241D
:1006E00006F01F06B4406C60046863608368402BAA
:1006F0000368CFD1CAE70000100002401004024096
:1007000008540258704770472DE9FC5F0446FA4EC2
:100710000020DFF8E48300904FF41652F74808F108
:100720001808A56DDFF8D0A3DFF8CCB301680AF193
:10073000300A20680BF1480BB1FBF2F1B042019195
:100740002F68D5F800C0DFF8B89336D0414688420C
:1007500033D0504531D058452FD0E74960318842D9
:100760002BD0E5497831884227D0E349903188423F
:1007700023D0E149A83188421FD048451DD0E04927
:100780001831884219D0DE493031884215D0DC4A10
:100790004832904211D0DA49603188420DD0DFF8FA
:1007A00060E30EF1780E704507D0D54B9033984238
:1007B00003D0D349A83188427ED194F85C20082127
:1007C00002F01F0201FA02F23A424BD0B04233D09B
:1007D000404531D050452FD058452DD0C64A6032C3
:1007E000904229D0C44A7832904225D0C24A9032F1
:1007F000904221D0C04AA83290421DD048451BD01B
:10080000BF4A1832904217D0BD4A3032904213D0BE
:10081000BB4A483290420FD0B94A603290420BD066
:10082000B74A7832904207D0B54A9032904203D00E
:10083000B34AA832904203D1026802F0040202E0F7
:10084000026802F008026AB1026822F00402026043
:1008500094F85C0000F01F008140A960606D40F0DA
:100860000100606594F85C00012100F01F008140E8
:10087000394241D02068B04235D0404533D0504550
:1008800031D058452FD09C4A603290422BD09A4AA2
:100890007832904227D0984A9032904223D0964A9C
:1008A000A83290421FD048451DD0954A1832904238
:1008B00019D0934A303200E0B2E1904213D0904A0E
:1008C000483290420FD08E4A603290420BD08C4A10
:1008D0007832904207D08A4A9032904203D0884AB8
:1008E000A83290427ED1406910F0800F04D0A960F8
:1008F000606D40F00200606594F85C00042100F037
:100900001F00814039423FD02068B04233D040457B
:1009100031D050452FD058452DD0774A6032904283
:1009200029D0754A7832904225D0734A903290424D
:1009300021D0714AA83290421DD048451BD0704A40
:100940001832904217D06E4A3032904213D06C4A1F
:10095000483290420FD06A4A603290420BD0684AC7
:100960007832904207D0664A9032904203D0644A6F
:10097000A83290424FD1006810F0020F04D0A96055
:10098000606D40F00400606594F85C00102100F098
:100990001F008140394259D02068B04235D04045CF
:1009A00033D0504531D058452FD0534A6032904211
:1009B0002BD0514A7832904227D04F4A9032904201
:1009C00023D04D4AA83290421FD048451DD04C4AF2
:1009D0001832904219D04A4A3032904215D0484AD3
:1009E000483200E015E090420FD0454A6032904214
:1009F0000BD0434A7832904207D0414A903290421D
:100A000003D03F4AA832904207D1006800F00800A6
:100A100006E0006870E70068B6E7006800F00400D0
:100A2000A0B1A96020680168490304D500680003EB
:100A300008D5A16C07E00168C90503D4016821F05D
:100A400008010160216C09B12046884794F85C00D8
:100A5000202100F01F008140394278D02068B04248
:100A600033D0404531D050452FD058452DD0224A63
:100A70006032904229D0204A7832904225D01E4AD6
:100A80009032904221D01C4AA83290421DD0484555
:100A90001BD01B4A1832904217D0194A303290426C
:100AA00013D0174A483290420FD0154A6032904214
:100AB0000BD0134A7832904207D0114A90329042BC
:100AC00003D00F4AA832904203D1006800F0100012
:100AD00002E0006800F00200A0B3A96094F83500BD
:100AE0000428206801680DD049037DD50068000303
:100AF00029D4616C28E0000010000240140000209E
:100B00001004024021F0160101602068416921F0C3
:100B100080014161206C08B9A06C20B12068016897
:100B200021F00801016094F85C303F21002203F0BD
:100B30001F0301209940A96084F8342084F835000F
:100B4000216D66E003E0E16B09B120468847606DE6
:100B500000287DD0606DC0075AD02068042184F839
:100B60003510B0422BD0404529D0504527D05845AC
:100B700025D09E49884222D09C49183188421ED0F7
:100B80009A49303188421AD098494831884216D063
:100B9000484514D09649884211D095491831884269
:100BA0000DD093493031884209D09149483188426B
:100BB00005D08F496031884201D08D497831016874
:100BC00021F00101016020680099019A491C0091FF
:100BD000914202D80168C907F6D1002184F8341087
:100BE0000068C00711D000E001E003200EE00168BA
:100BF000C905A8D403680022012123F01003036073
:100C000084F8342084F835109DE7012084F83500FD
:100C1000E16C00291CD002B02046BDE8F05F084717
:100C2000744988421DD073491431884219D07149E2
:100C30002831884215D06F493C31884211D06D4926
:100C4000503188420DD06B496431884209D000E0B0
:100C500086E068497831884203D066498C31884201
:100C60007ED194F85C800427016808F01F0807FA19
:100C700008F717EA0C0F009746D04F0744D50098A5
:100C80000F04686003D5C8033CD4A16CC1E7880693
:100C900038D42068B0422DD054494839884229D0F0
:100CA000504527D0584525D05049884222D04F4939
:100CB000183188421ED04D49303188421AD04B49F4
:100CC0004831884216D0484514D04949884211D04D
:100CD0004749183188420DD090420BD044494831E1
:100CE000884207D0704505D0984203D040499031E2
:100CF000884203D1016821F0080102E0016821F077
:100D000004010160216C84E7022707FA08F717EA5B
:100D10000C0F00974ED08F074CD500980F046860D9
:100D200003D5C80344D4616C73E7880640D42068B7
:100D3000B0422FD02D49483988422BD0504529D078
:100D4000584527D02949884224D02849183188425B
:100D500020D02649303188421CD02449483100E057
:100D600041E0884216D0484514D02149884211D02C
:100D70001F49183188420DD090420BD01C49483190
:100D8000884207D0704505D0984203D01849903169
:100D9000884203D1016821F0140102E0016821F0CA
:100DA0000A010160002184F83410012084F8350024
:100DB000E16B2EE7082202FA08F212EA0C0F12D0B9
:100DC000090710D5016821F00E01016094F85C104C
:100DD0000120002201F01F0100FA01F16960606545
:100DE00084F8342012E7BDE8FC9F00007000024048
:100DF00028040240085402582DE9F05F044600F030
:100E00006BFB002C074676D0A5494FF00106A44A9B
:100E10004FF0000520681831DFF88C82DFF88C92E3
:100E20009042A04ADFF888A2DFF888B2DFF888E2B3
:100E30002CD088422AD0904228D0404526D0484520
:100E400024D0504522D0584520D070451ED09B4B11
:100E500098421BD0994B1833984217D0974B303398
:100E6000984213D0954B483398420FD0934B603340
:100E700098420BD0914B7833984207D08F4B9033E8
:100E8000984203D08D4BA833984275D1DFF810C239
:100E9000022384F8345084F83530604526D08842E7
:100EA00024D0904222D0404520D048451ED0504505
:100EB0001CD058451AD0704518D08049884215D0AA
:100EC0007E491831884211D07C49303188420DD09A
:100ED0007A494831884209D078496031884205D042
:100EE00076497831884201D074499031016821F007
:100EF0000101016007E0B4E000F0EEFAC01B052834
:100F000001D92021A9E020680068C007F4D104F1CC
:100F100008002168D4E9053C894685C80968104362
:100F2000D4E907281F43636A3843654F40EA0C0041
:100F30001043394040EA0800042B40EA010003D185
:100F4000D4E90B1211430843C9F800002068676A0E
:100F50004069042F20F0070047EA00070DD1D4E9CB
:100F60000A01074349B12046FFF710FB28B1402092
:100F7000606584F8356074E00CE0206847612046C5
:100F8000FFF722FA94F85C203F2102F01F02914003
:100F9000816055E04B4988421BD04A491431884250
:100FA00017D048492831884213D046493C318842FD
:100FB0000FD04449503188420BD0424964318842B5
:100FC00007D040497831884203D03E498C3188426D
:100FD00042D13D4B022184F8345084F83510016829
:100FE000A26801EA0309402A31D0802A31D00022C8
:100FF000D4E90378D4E9053142EAD70242EAD808B5
:10100000304AD4E9077C48EAD30848EAD10141EAEA
:10101000D701524241EA1C11142341EA090101603F
:1010200020681044B0FBF3F08000E0652046FFF735
:10103000CBF994F85C1001F01F0106FA01F1416050
:101040002046FFF71BFAA06880280DD00DE0102283
:10105000CEE74FF48042CBE740216165032084F85E
:1010600035000120BDE8F09F6560216E20790860A1
:10107000D4E9190141606068401E072808D820465D
:10108000FFF74AFAE06E0560D4E91C01416002E016
:10109000E56625676567656584F835600020E1E7EA
:1010A0001000024040000240580002407000024020
:1010B00088000240A0000240B80002401004024034
:1010C0003F8010FE085402580F00FEFF2DE9F84F34
:1010D00004008C464FF00000009013D094F83400C8
:1010E000012811D094F835500120002184F83400F3
:1010F000012D0BD084F83410C20200906265009874
:10110000BDE8F88F0120FBE70220F9E7644D0226D5
:10111000206884F83560A842624D6165624E634F75
:10112000DFF88C81DFF88C91DFF88CA1DFF88CB1CF
:1011300026D0A84224D0B04222D0B84220D0404588
:101140001ED048451CD050451AD0584518D05C498F
:10115000884215D05A491831884211D05849303147
:1011600088420DD056494831884209D054496031EF
:10117000884205D052497831884201D05049903197
:10118000016821F00101016061462046FFF728FA5D
:101190004349206888422CD0A8422AD0B04228D0A7
:1011A000B84226D0404524D0484522D0504520D0D2
:1011B00058451ED0424A90421BD0414A18329042B4
:1011C00017D03F4A3032904213D03D4A48329042C5
:1011D0000FD03B4A603290420BD0394A783290426D
:1011E00007D0374A9032904203D0354AA832904215
:1011F0000CD1026822F01E0242F016020260206C3E
:1012000088B12068026842F008020BE0026822F010
:101210000E0242F00A020260206C20B120680268CF
:1012200042F004020260206E0268D20303D5026815
:1012300042F480720260E06E18B1026842F480727B
:1012400002602068884226D0A84224D0B04222D032
:10125000B84220D040451ED048451CD050451AD039
:10126000584518D01649884215D01549183188427A
:1012700011D01349303188420DD01149483188428C
:1012800009D00F496031884205D00D497831884234
:1012900001D00B499031016841F0010101602EE756
:1012A0001000024028000240400002405800024066
:1012B0007000024088000240A0000240B8000240D6
:1012C000100402402DE9F84F714C00234FF0B04E4E
:1012D0004FF001094FF0030B4FF00F0AD0E000BFB1
:1012E00009FA03F812EA080274D04D68022D01D001
:1012F000122D0FD1DD085F0700EB850500950E6903
:101300002D6AFF0E0AFA07FCBE4025EA0C052E43A3
:10131000009D2E625D000F7906680BFA05FC07F050
:10132000030726EA0C06AF40374307604E68012EDC
:1013300005D0022E03D0112E01D0122E0FD18668B7
:10134000CF6826EA0C06AF403743876046680F79BE
:1013500026EA0806C7F300179F4037434760C66870
:101360008F6826EA0C06AF403743C7604D68ED0032
:1013700030D5484D2E6846F002062E602D6823F0C9
:10138000030606F1B04605F0020500959D072F0FF4
:10139000D6F80854DFF800810AFA07FC404525EA30
:1013A0000C0502D14FF0000C41E0DFF8F0C06045C1
:1013B00002D14FF0010C3AE0DFF8E4C0604502D101
:1013C0004FF0020C33E0DFF8DCC0604503D14FF092
:1013D000030C2CE053E0DFF8D0C0604502D14FF0A1
:1013E000040C24E0DFF8C4C0604502D14FF0050CC6
:1013F0001DE0DFF8BCC0604502D14FF0060C16E0DE
:10140000DFF8B0C0604502D14FF0070C0FE0DFF805
:10141000A8C0604502D14FF0080C08E0DFF89CC07E
:10142000604502D14FF0090C01E04FF00A0C0CFAB4
:1014300007FC4CEA050CC6F808C425684E6825EA86
:101440000205F60300D51543256065684E6825EA58
:101450000205B60300D5154365604F687546DEF892
:101460000060FF0226EA020600D516432E604F6890
:101470006E68BF0226EA020600D516436E605B1C4A
:101480000A6832FA03F57FF42BAFBDE8F88F00004D
:1014900080000058F444025800000258000402582A
:1014A00000080258000C025800100258001402589C
:1014B00000180258001C025800200258002402584C
:1014C0000AB1816170470904FBE700000148006828
:1014D000000C70470010005C0148806870470000F5
:1014E000080000200248816802781144816070473A
:1014F00008000020032010B500F084F800F0E0FFA1
:101500000E490F4A0F4B0C68C4F30324145D04F01A
:101510001F04E0401860096801F00F01515C01F000
:101520001F01C84008490860002000F00FF808B10A
:10153000012010BD00F02AF8002010BD1844025808
:10154000304C0008140000201800002070B50D4D2C
:1015500004462878A0B14FF47A71B1FBF0F00A4943
:101560000968B1FBF0F001F0A2FA48B9102C07D2DB
:1015700000222146501E00F025F800206C6070BD4E
:10158000012070BD0800002014000020054808B5A7
:10159000016841F002010160006800F00200009063
:1015A00008BD0000F4440258002809DB410900F09E
:1015B0001F028900012001F1E0219040C1F80001E3
:1015C000704700000E4BF0B41B680D46C3F30223B6
:1015D000C3F10706042E00D90426191D072901D2DC
:1015E000002300E0DB1E012404FA06F19C40491EA2
:1015F0002940641E994014402143F0BC03F0DBBA3B
:101600000CED00E0064900F0070210B54FF6FF04AC
:101610000868044B204040EA02201843086010BDCF
:101620000CED00E00000FA05124970B50A68520797
:1016300006D40A6802F00702824201D0012070BD80
:101640000A6822F0070202430A60FFF745FF094DCE
:101650004FF47A760446083D07E000BFFFF73CFFF1
:10166000001BB04201D9032070BD28688004F5D565
:10167000002070BD0C48025810B500F021FF064A4A
:1016800006491268064BC2F303229A5C02F01F025D
:10169000D040086010BD000018440258140000201B
:1016A000304C000810B500F0D1FE05490968054A24
:1016B000C1F30211515C01F01F01C84010BD0000D0
:1016C00020440258304C0008494930B5484C0B1DA5
:1016D0000A68143409681D68246802F0030305F0E1
:1016E0001002C1F30531C4F3CC04002914FB02F24B
:1016F00000EE102AF8EE400A75D03F4A9FED3D1AE1
:10170000B7EE000A6BB1DFED3D1A012B01D0022BC1
:1017100064D002EE101A1168F8EE422A81EEA22A75
:1017200021E0334C283C23689B0612D5344B2468B7
:1017300001EE901A1168C4F3C104F8EE612AE34087
:1017400001EE903AC1F30801F8EE611A81EEA22A87
:101750000BE001EE901ADFED2B2A00BFF8EE611AC4
:10176000116882EEA12AC1F3080101EE901A1168F6
:10177000F8EE611A40EE811A71EE800A62EE200ADC
:10178000C1F3462101EE101AB8EE411A31EE001AEB
:10179000C0EE811ABCEEE11A80ED001A1168C1F3A7
:1017A000064101EE101AB8EE411A31EE001AC0EEF1
:1017B000811ABCEEE11A80ED011A1168C1F30661CD
:1017C00001EE101AB8EE411A31EE000A80EE801ACE
:1017D000BCEEC10A80ED020A30BD04E001EE901AB1
:1017E000DFED092ABAE70021016041608160F3E77B
:1017F0002844025800000039384402580024744A32
:101800000090D0030024744C0024F44A494930B5B8
:10181000484C0B1D0A681C3409681D68246802F0D6
:10182000030305F48072C1F30551C4F3CC0400290D
:1018300014FB02F200EE102AF8EE400A75D03F4A7F
:101840009FED3D1AB7EE000A6BB1DFED3D1A012B9B
:1018500001D0022B64D002EE101A1168F8EE422A71
:1018600081EEA22A21E0334C283C23689B0612D546
:10187000344B246801EE901A1168C4F3C104F8EEE9
:10188000612AE34001EE903AC1F30801F8EE611AD3
:1018900081EEA22A0BE001EE901ADFED2B2A00BFA9
:1018A000F8EE611A116882EEA12AC1F3080101EE77
:1018B000901A1168F8EE611A40EE811A71EE800AF2
:1018C00062EE200AC1F3462101EE101AB8EE411A69
:1018D00031EE001AC0EE811ABCEEE11A80ED001A5A
:1018E0001168C1F3064101EE101AB8EE411A31EE4B
:1018F000001AC0EE811ABCEEE11A80ED011A1168DF
:10190000C1F3066101EE101AB8EE411A31EE000A79
:1019100080EE801ABCEEC10A80ED020A30BD04E000
:1019200001EE901ADFED092ABAE70021016041605B
:101930008160F3E72844025800000039404402580F
:101940000024744A0090D0030024744C0024F44A0C
:101950002DE9FC5F044650F8241B002500902E461C
:101960000801FE4FDFF8F8931DD5606E50B1B0F559
:10197000801F0CD0B0F5001F0ED0B0F5401F1DD059
:1019800001250FE0386840F40030386016E002218D
:10199000201D01F04BFD03E00098022101F0D6FD6F
:1019A00005000BD02E462088C00523D5606D052884
:1019B0001ED2DFE800F00C11161B1B00626ED9F876
:1019C000001021F440111143C9F80010EBE738680A
:1019D00040F40030386009E00021201D01F026FDB0
:1019E00003E00098002101F0B1FD05466DB100E073
:1019F00001252E462088800528D5A06D80281ED080
:101A00000CDC90B140280ED114E0626DD9F80010C2
:101A100021F007011143C9F80010EBE7C02813D0EB
:101A2000B0F5807F10D001250FE0386840F4003019
:101A3000386009E00021201D01F0F8FC03E0009867
:101A4000002101F083FD054695B12E462088DFF880
:101A50001083400508F108082CD5D4F8A400B0F58F
:101A6000800F20D00DDCA0B1B0F5001F0FD115E024
:101A7000A26DD9F8001021F4E0711143C9F80010EB
:101A8000E4E7B0F5C00F13D0B0F5000F10D001257A
:101A90000FE0386840F40030386009E00021201D74
:101AA00001F0C4FC03E00098002101F04FFD054661
:101AB00075B12E46208800052DD5D4F8A800B0F1C8
:101AC000007F21D00EDCA8B1B0F1807F10D116E0EC
:101AD000D4F8A420D8F8001021F460011143C8F80C
:101AE0000010E7E7B0F1407F13D0B0F1806F10D065
:101AF00001250FE0386840F40030386009E000212B
:101B0000201D01F093FC03E00098002101F01EFD70
:101B100005466DB12E46206880011FD5A06CD8B156
:101B200010280FD0202812D0302815D0012514E01D
:101B3000D4F8A820D8F8001021F0E0611143C8F8CB
:101B40000010E8E7386840F40030386004E0022113
:101B5000201D01F06BFC05466DB12E462088C004A7
:101B60002BD5E06DB0F5005F20D00DDCA0B1B0F555
:101B7000805F0FD115E07A48A26C001F016821F048
:101B8000300111430160E9E7B0F5405F13D0B0F5D3
:101B9000804F10D001250FE0386840F400303860E5
:101BA00009E00021201D01F041FC03E00098002124
:101BB00001F0CCFC054685B12E462088800429D54D
:101BC000206EB0F5403F23D010DC08B3B0F5803F65
:101BD00014D0B0F5003F0FD115E0E26DD9F8001038
:101BE00021F4E0411143C9F80010E6E7B0F5802F79
:101BF0000ED0B0F5A02F0BD001250AE00121201D49
:101C000001F014FC03E00098012101F09FFC05465F
:101C10008DB12E46208840042AD5D4F8AC00B0F10E
:101C2000405F23D010DC08B3B0F1805F14D0B0F176
:101C3000005F0FD115E0226ED9F8001021F4E021E9
:101C40001143C9F80010E5E7B0F1804F0ED0B0F1B4
:101C5000A04F0BD001250AE00121201D01F0E6FB79
:101C600003E00098012101F071FC05466DB12E469C
:101C7000208800041FD5E06ED8B1B0F1805F0ED08F
:101C8000B0F1005F10D0012514E0D4F8AC20D8F8F2
:101C9000001021F0E0411143C8F80010E8E738686F
:101CA00040F40030386004E00121201D01F0BEFB4B
:101CB00005466DB12E462068C0011ED5606CD0B1BE
:101CC00001280ED0022811D0032814D0012513E0DA
:101CD000E26ED9F8001021F040511143C9F800100C
:101CE000E9E7386840F40030386004E00221201D44
:101CF00001F09CFB054685B12E462068DFF85CB0FC
:101D00004002ABF11C0B57D51648016841F48071B5
:101D10000160FFF7E1FB82460EE01148626C001F94
:101D2000016821F0030111430160E6E7FFF7D4FBEE
:101D3000A0EB0A0064283DD80A480068C005F5D524
:101D40007DBBDFF81CA0B4F8B0100AF1200ADAF865
:101D5000000001F4407100F4407005E02C4402588A
:101D60005044025800480258884211D0DAF8001056
:101D7000DAF8002021F4407142F48032CAF80020E1
:101D8000DAF8002022F48032CAF80020CAF80010E5
:101D9000D4F8B000B0F5807F21D1FFF79DFB019012
:101DA00019E008E0FFF798FB0199411A41F28830E9
:101DB000814210D903252E462078DFF82CA4C007D5
:101DC0003DD0A06F182838D026DC80B3082829D051
:101DD000102825D12CE0DAF800008007E2D5D4F8ED
:101DE000B010C1F30120032858460DD0016821F43A
:101DF0007C510160B4F8B020DAF80010C2F30B0295
:101E00001143CAF80010D7E7F84A036802EA111232
:101E100023F47C511143ECE720280ED028280CD065
:101E200001250BE00121201D01F000FB04E004E08E
:101E30000098012101F08AFB05465DB12E4620780D
:101E400080071ED5606F062819D2DFE800F0160C57
:101E500011161616A26FDAF8001021F0380111439E
:101E6000CAF80010EBE70121201D01F0DFFA03E0C2
:101E70000098012101F06AFB054675B100E00125DB
:101E80002E46207840071FD5D4F89000062819D296
:101E9000DFE800F0160C11161616626FDAF8001063
:101EA00021F007011143CAF80010EAE70121201DC3
:101EB00001F0BCFA03E00098012101F047FB054660
:101EC0009DB100E001252E46207880062BD5D4F860
:101ED0008C00B0F1405F24D011DC10B3B0F1805F12
:101EE00015D0B0F1005F10D116E0D4F89020D8F8EA
:101EF000001021F007011143C8F80010E4E7B0F129
:101F0000804F0ED0B0F1A04F0BD001250AE0002188
:101F1000201D01F08BFA03E00098022101F016FB6E
:101F200005468DB12E46207840062BD5D4F8980072
:101F3000B0F5406F24D011DC10B3B0F5806F15D030
:101F4000B0F5006F10D116E0D4F88C20DAF800104C
:101F500021F0E0411143CAF80010E4E7B0F5805FDA
:101F60000ED0B0F5A05F0BD001250AE00021201DA6
:101F700001F05CFA03E00098022101F0E7FA05465F
:101F80008DB12E46207800062BD5D4F89C00B0F5F4
:101F9000C04F24D011DC10B3B0F5005F15D0B0F500
:101FA000804F10D116E0D4F89820D8F8001021F412
:101FB000E0511143C8F80010E4E7B0F5004F0ED02F
:101FC000B0F5204F0BD001250AE00021201D01F0C3
:101FD0002DFA03E00098022101F0B8FA054665B336
:101FE0002E46207800070BD5D4F88010B1F5805F1D
:101FF0002DD0DAF8002022F440520A43CAF800201B
:102000002078C0060BD5D4F89410B1F5807F26D087
:10201000D8F8002022F440720A43C8F80020206853
:10202000000330D5D4F8A00008B3B0F5803F23D02A
:10203000B0F5003F25D0012524E0D4F89C20D8F845
:10204000001021F460411143C8F80010C9E700985E
:10205000022101F07BFA0028D2D00126D0E70098B7
:10206000022101F073FA0028D9D00126D7E7002118
:10207000201D01F0DBF903E00098022101F066FA6F
:10208000054685B12E462068400322D5D4F8840049
:10209000B0F5801F11D0B0F5001F13D0B0F5401F70
:1020A00015D0012514E0D4F8A020D8F8001021F4B0
:1020B00040311143C8F80010E5E7386840F40030BB
:1020C000386004E00098012101F040FA054655B15E
:1020D0002E462068C0031CD5E06C70B1B0F5803F7F
:1020E00010D0012514E0D4F88420DAF8001021F48F
:1020F00040111143CAF80010EBE7386840F4003093
:10210000386004E00221201D01F090F90546CDB1B0
:102110002E462068800005D50098022101F016FAAD
:1021200000B10126206880031BD5E06FB8B1B0F57F
:10213000807F10D0B0F5007F11D0B0F5407F0ED079
:1021400001250DE02848E26C0838016821F480314F
:1021500011430160DDE7386840F400303860EDB3CA
:102160002E462068C00207D5226FD9F8001021F052
:1021700000411143C9F800102068C00008D5D4F808
:10218000B420DBF8001021F480411143CBF800109B
:102190002068800207D5A26ED9F8001021F0807166
:1021A0001143C9F80010206840000CD5DBF800107E
:1021B00021F40041CBF80010DBF80010D4F8B8206F
:1021C0001143CBF800102068002809DA0648226D78
:1021D0000838016821F04051114300E008E0016037
:1021E0007EB10120BDE8FC9F54440258CFFFFF00A0
:1021F000E26FDAF8001021F440711143CAF80010C0
:10220000AFE70020EEE700002DE9F05F04000F4685
:102210007ED0DFF82482D8F8000000F00F00B8422A
:102220000CD2D8F8001021F00F013943C8F8001083
:10223000D8F8000000F00F00B84269D120787F4D37
:1022400040070AD52069296801F07001884204D945
:10225000296821F07001014329602078774E361DEE
:1022600000070AD56069316801F07001884204D91D
:10227000316821F07001014331602078C0060AD531
:10228000A069316801F4E061884204D9316821F421
:10229000E061014331602078DFF8A0B180060BF1E6
:1022A000080B0CD5E1695846DBF8002002F07002FB
:1022B000914204D9026822F070020A430260207839
:1022C00080070AD5E068296801F00F01884204D927
:1022D000296821F00F01014329602078C0073ED012
:1022E0005649A2682868183920F4706010432860A5
:1022F0006068022818D0032819D00968012819D06D
:10230000490700294ADADFF834A1AAF1080A00E0F7
:1023100044E0DAF8002022F007020243CAF8002065
:10232000FFF7DAF8814612E009688903E9E70968EE
:102330008901E6E7C905E4E7FFF7CEF8A0EB09015C
:1023400041F28830814202D90320BDE8F09F6168E4
:10235000DAF8000000F03800B0EBC10FECD12078C3
:1023600080070AD5E068296801F00F01884204D28D
:10237000296821F00F0101432960D8F80010404678
:1023800001F00F01B9420BD9016821F00F01394367
:102390000160006800F00F00B84201D00120D4E7CE
:1023A000207840070AD52069296801F07001884229
:1023B00004D2296821F070010143296020780007C8
:1023C0000AD56069316801F07001884204D2316831
:1023D00021F07001014331602078C0060AD5A06960
:1023E000316801F4E061884204D2316821F4E0618F
:1023F00001433160207880060CD5E1695846DBF84E
:10240000002002F07002914204D2026822F07002B1
:102410000A43026000F054F82968094AC1F3032115
:10242000515C01F01F01C840064908600648006879
:10243000BDE8F05FFFF78AB8002000521844025848
:10244000304C0008140000200C00002010B5FFF7ED
:1024500013F9064A06491268064B02F00F029A5C0D
:1024600002F01F02D040086010BD0000184402585E
:1024700018000020304C000810B5FFF7E7FF0549B1
:102480000968054AC1F30211515C01F01F01C840FF
:1024900010BD00001C440258304C000810B5FFF776
:1024A000D5FF05490968054AC1F30221515C01F0D5
:1024B0001F01C84010BD00001C440258304C0008E9
:1024C000454970B545480968434B103B11F0380247
:1024D00008D00111082A03D0102A0BD0182A0BD0DB
:1024E000084670BD19688906FBD51968C1F3C1019A
:1024F000C84070BD3A4870BD3749374D18310C1D82
:1025000024350A68096826682D6802F0030406F07D
:102510000102C1F30511C5F3CC0515FB02F200EE73
:10252000102AB8EE400AE9B32F4ADFED2E0AB7EEC3
:10253000001A6CB1DFED2D1A012C01D0022C43D012
:1025400002EE101A1068F8EE422A81EEA22A1EE06E
:102550001C68A40611D51B6801EE901A1168C3F31C
:10256000C103F8EE612AD84001EE900AC1F30800D9
:10257000F8EE611A81EEA22A0BE001EE901ADFED6F
:102580001C2A00BFF8EE611A106882EEA12AC0F37F
:10259000080001EE900AF8EE611A40EE201A31EEC2
:1025A000810A00E015E022EE000A1068C0F3462020
:1025B000401C00EE900AF8EE600A80EE201ABCEE95
:1025C000C10A10EE100A70BD01EE901ADFED092A63
:1025D000D8E7002070BD0000104402580090D003DE
:1025E00000127A0000000039304402580024744A76
:1025F0000024744C0024F44A2DE9F05F04007DD0DF
:10260000FF4F2078FE4D1837DFF8F493103DC007D8
:1026100048D0D9F80000396800F03800102815D0EB
:10262000182803D101F0030002280FD06068B0F52C
:10263000803F12D010B1B0F5A02F18D0286820F438
:1026400080302860286820F4802009E02868800312
:1026500028D560680028D2D024E0286840F4803073
:102660002860606888B1FEF737FF064609E02868F1
:1026700040F480202860F0E7FEF72EFF801B6428DE
:102680006FD828688003F7D50CE0FEF725FF0646D3
:1026900005E000BFFEF720FF801B6428F0D8286803
:1026A0008003F7D4207841F20308D54E0C3E800712
:1026B00061D5D9F80000396810F038000ED018281C
:1026C00001D188070AD0E06880B3296821F0190198
:1026D00001432960FEF700FF82462FE0286840078B
:1026E00002D5E06800288AD0E168286820F0190047
:1026F00008432860FEF7F0FE824607E0D1E000BF05
:10270000FEF7EAFEA0EB0A000228B9D828684007C5
:10271000F6D500BFFEF7DAFE404513D820693168D0
:1027200021F47C3141EA0030306024E011E000BF48
:10273000FEF7D2FEA0EB0A000228A1D828684007C5
:10274000F6D5E7E7207C316821F0FE4141EA0060E0
:10275000EAE7286820F001002860FEF7BDFE824607
:1027600006E0FFE0FEF7B8FEA0EB0A00022887D8DB
:1027700028684007F6D42078C00657D5D9F800005D
:10278000DFF87CB2396800F03800ABF1040B0828A0
:1027900010D0182803D101F0030001280AD0E06905
:1027A0000028286832D040F080002860FEF794FEB0
:1027B000824623E02868C00523D5E069802870D1CF
:1027C0001FE000BF94F82000316821F0F84141EA91
:1027D000806030602AE000BF94F82010DBF8002011
:1027E00022F07C5242EA0161CBF800101EE000BFEB
:1027F000FEF772FEA0EB0A00022886D82868C00502
:10280000F6D5FEF763FE4045E6D8DBE720F0800012
:102810002860FEF761FE064605E000BFFEF75CFE9D
:10282000801B022889D82868C005F7D420780007C3
:1028300029D573486169643000298046016811D048
:1028400041F001010160FEF747FE064605E000BFCA
:10285000FEF742FE801B022889D8D8F800008007C6
:10286000F6D510E021F001010160FEF735FE0646C5
:1028700005E000BFFEF730FE801B022872D8D8F8B2
:1028800000008007F6D42078800623D5A0690028B0
:10289000286810D040F480502860FEF71DFE0646E0
:1028A00005E0E6E0FEF718FE801B02285AD82868EB
:1028B0008004F7D50EE020F480502860FEF70CFE6F
:1028C000064604E0FEF708FE801B02284AD8286866
:1028D0008004F7D4207840074FD5DFF82881D8F856
:1028E000001041F48071C8F80010FEF7F5FD0646AF
:1028F00005E000BFFEF7F0FD801B642832D8D8F851
:102900000000C005F6D53E4EA068603601280AD00A
:1029100008B1052813D0306820F00100306030681D
:1029200020F0040002E0306840F001003060A06850
:1029300041F2883A90B1FEF7CFFD80460AE0306858
:1029400040F004003060EEE7FEF7C6FDA0EB0801A2
:10295000514507D830688007F6D50EE0FEF7BCFD7C
:10296000804607E084E000BFFEF7B6FDA0EB08015B
:1029700051457DD830688007F6D4606AF0B3D9F845
:102980000010C1F3C201032973D00228286820F087
:102990008070286003D0FEF79FFD044680E0FEF7BC
:1029A0009BFD064605E000BFFEF796FD801B022852
:1029B00073D828688001F7D4E26A40F2F3313868AE
:1029C00054F8283F884340EA021018433860217BBE
:1029D0004FF4FE0C22894FF0FE47208A4902084B33
:1029E000521E267DA1F5007189B2401EC2F3080275
:1029F00020331143761E0CEA004005E053E000004E
:102A00001044025800480258014307EA0662181FA2
:102A1000114319601A1D016821F00101016011685C
:102A20004FF6F876236AB14341EAC30111600168A9
:102A3000A26921F00C01114301600168E26921F0F3
:102A4000020111430160016841F4803101600168B5
:102A500041F400310160016841F4802101600168A6
:102A600041F001010160286840F08070286001E0B9
:102A700013E01AE0FEF730FD044604E0FEF72CFDFB
:102A8000001B022809D828688001F7D50BE000BF99
:102A9000FEF722FD001B022802D90320BDE8F09FAB
:102AA00028688001F4D40020F8E70120F6E7401EF2
:102AB000B0F1807F10B501D3012010BD4FF0E024AC
:102AC00060610F21601702F076F80020A0610721F5
:102AD000216110BD70B590F83C20012A24D0134C20
:102AE000012580F83C50022280F83D20026853689E
:102AF000A242966802D00E4CA24203D14C6823F445
:102B0000700323430C6823F0700389681C435460EE
:102B1000002326F0800602683143916080F83D5022
:102B200080F83C30184670BD022070BD00000140A6
:102B30000004014010B5040003D094F83D0010B12A
:102B400007E0012010BD002084F83C00204600F082
:102B50000DF8022084F83D002068211D00F02EFEB3
:102B6000012084F83D00002010BD000008B5006879
:102B70000649884208D10648016841F00401016015
:102B8000006800F00400009008BD0000000800404C
:102B9000E844025870B5044690F83C00012814D06F
:102BA000394B012584F83C50022084F83D0022680E
:102BB0009068184020F47F4090600868702828D002
:102BC00010DC10F00F0F03D04BE04FF0020070BD8F
:102BD0004FEA2012072A44D2DFE802F05151515146
:102BE00049323A00B0F1101F49D009DCB0F5805FDE
:102BF00037D0B0F5005F17D0B0F5801F31D13EE07F
:102C0000A0F5801120393AD0102938D0202928D1B8
:102C100035E04A682068D1E9021300F031FE2068EF
:102C2000816841F0770109E04A682068D1E9021320
:102C300000F026FE2068816841F48041816010E048
:102C4000CA684968206801F005F82068502106E04C
:102C5000CA684968206801F00EF82068602100F019
:102C600019FE002084F83D5084F83C0070BDCA680D
:102C70004968206800F0EEFF20684021EFE72268F5
:102C800001461046EBE7000088FFCEFF10B586B086
:102C9000044614216846FDF753FB0D49206888421D
:102CA00014D10C48016841F008010160006800215E
:102CB00000F0080005900220C2020092CDE9010157
:102CC000CDE9031004486946FEF7FCFA06B010BDD2
:102CD00000080040E0440258000C025870B5044659
:102CE00090F83C000D4601280ED0012684F83C6087
:102CF000022084F83D000C2A45D007DC5AB1042A92
:102D00001BD0082A78D12CE0022070BD102A4ED0AA
:102D1000142A71D15DE0206800F0C6FD2068816949
:102D200041F0080181612068816921F0040181611D
:102D300020682A698169114311E0206800F008FECB
:102D40002068816941F4006181612068816921F412
:102D50008061816120682969826942EA012181617B
:102D60004AE0206800F040FE2068C16941F0080197
:102D7000C1612068C16921F00401C16120682A692C
:102D8000C169114311E0206800F074FE2068C16938
:102D900041F40061C1612068C16921F48061C161B1
:102DA00020682969C26942EA0121C16124E02068E2
:102DB00000F096FE2068416D41F0080141652068F1
:102DC000416D21F00401416520682A69416D11437C
:102DD00011E0206800F0BAFE2068416D41F4006106
:102DE00041652068416D21F4806141652068296951
:102DF000426D42EA01214165002084F83D6084F87B
:102E00003C0070BD10B5040003D094F83D0010B133
:102E100007E0012010BD002084F83C00204600F0AF
:102E20000CF8022084F83D002068211D00F0C6FC4B
:102E3000012084F83D00002010BD704770B50446A5
:102E400090F83C00012812D0012584F83C50022063
:102E500084F83D00204600F0AFFE00284FF000004F
:102E600007D084F83D5084F83C00012070BD02205A
:102E700070BD2168CA6822F04002CA602168CA6831
:102E800022F48042CA6084F83D5084F83C0000205F
:102E900070BD30B590F87C10012918D0012280F85F
:102EA0007C202421C0F880100022202450F8601BD0
:102EB0000B680D6823F0005325F001050D6042609A
:102EC00050F8601C0B6004620277104630BD02208F
:102ED00030BD70B5044690F87C0001281DD0012259
:102EE00084F87C202420C4F88000206805680268EB
:102EF00022F0010202602068826822F060620A43C8
:102F00008260204600F0CAFE226820210020156061
:102F1000C4F8801084F87C0070BD022070BD70B5CC
:102F2000044690F87C0001281DD0012284F87C2002
:102F30002420C4F8800020680568026822F001029D
:102F400002602068826822F060420A438260204664
:102F500000F0A4FE2268202100201560C4F8801033
:102F600084F87C0070BD022070BD704710B504006D
:102F700003D0D4F8800010B107E0012010BD00207C
:102F800084F87C00204600F027F82420C4F8800054
:102F90002068016821F001010160204600F0B0FFC7
:102FA0000128EBD0A06A10B1204600F0A9FE2068ED
:102FB000416821F4904141602068816821F02A0134
:102FC00081602068016841F0010101602046BDE890
:102FD000104000F0F9BE000070B586B0064614211E
:102FE0006846FDF7ADF92E4900252E4C02223368C4
:102FF00008392B48A34233D1036843F4002303600C
:10300000006800F400200590086840F001000860A6
:103010000868082100F00100059003208DE82500D4
:10302000CDE9035120486946FEF74CF91F4C3F217A
:103030001F4802152060C4E901154FF44030C4E96F
:1030400003526561A561C4E9075020466562FDF73A
:10305000D3FE08B1FDF757FBB467A66306B070BD99
:10306000144CA342FAD1036843F480230360006840
:1030700000F480200590086840F0080008600868A7
:10308000072100F0080005904FF440708DE82500FE
:10309000CDE9035108486946FEF714F9DEE7000060
:1030A000E8440258004C004000000258740100201F
:1030B0001000024000480040000C025870B5044661
:1030C000D0F88400202843D169B362B394F87C001F
:1030D00001283DD0A06F012684F87C600025A16501
:1030E0002223A4F85C20C4F88850C4F88430E0B1EE
:1030F00018491346C163A16F17480864A16F1748A8
:10310000C864A06F0565A66D2168A06F32462431A2
:10311000FDF7DCFF48B11021C4F88810202084F8A6
:103120007C50C4F88000012070BD84F87C50206879
:10313000016841F4807101602068816841F00101FB
:1031400081602068816841F040018160002070BD8D
:10315000022070BD753E0008B13E0008273E000801
:1031600000680449884204D1034906220348FFF756
:10317000A5BF7047004C0040000000205C0000200C
:103180007047FEE7094808B5016841F00101016098
:1031900000680022114600F0010000900B20FEF7AD
:1031A00011FABDE808400B20FEF7FEB9D8440258DA
:1031B0002DE9F04186B014216846FDF7C1F8334887
:1031C000016841F004010160016801F0040105910A
:1031D000016841F080010160016801F08001059102
:1031E000016841F001010160016801F001010591F0
:1031F000016841F002010160016801F002010591DE
:10320000016841F008010160016801F008010591C1
:10321000016841F04001016000684FF481461C4F95
:10322000002200F04000314605903846FEF748F98C
:10323000DFF86080002240214046FEF741F9164940
:1032400000244FF400508DE8130014486946FEF73F
:1032500039F801250096CDE90154694638460394B2
:10326000FEF730F840200090CDE901546946404611
:103270000394FEF727F880206946CDE90004404614
:103280000294FEF71FF806B0BDE8F081E044025852
:1032900000040258001802580000111100080258DA
:1032A00010B594B00024142107A80C940D940E942A
:1032B0000F94FDF745F81C21684610941194129460
:1032C000FDF73EF8224844F62061EF221F4BC0E98B
:1032D000024104618461C0E90032FFF72BFC08B1B0
:1032E000FDF711FA4FF480500C9019480CA9FFF724
:1032F00051FC08B1FDF707FA1548FFF783FD08B147
:10330000FDF701FA124807A907940894FFF796FD04
:1033100008B1FDF7F8F90E4810A910941294FFF7C0
:10332000D9FB08B1FDF7EFF960206946CDE900044B
:103330000748002202940494FFF7D0FC08B1FDF77F
:10334000E2F90348FFF7A2FC14B010BD00080040EA
:103350001C0000201848002110B5164C0C224FF418
:10336000E1330460C0E90131C160C0E90412816148
:10337000C161016241628162FFF7F8FD08B1FDF7AA
:10338000C2F90D480021FFF7CAFD08B1FDF7BBF9EE
:1033900009480021FFF79DFD08B1FDF7B4F9064883
:1033A000FFF777FD002803D0BDE81040FDF7ABB96B
:1033B00010BD0000004C00405C00002018480021B7
:1033C00010B5164C0C224FF4E1330460C0E9013112
:1033D000C160C0E904128161C16101624162816220
:1033E000FFF7C4FD08B1FDF78EF90D480021FFF786
:1033F00096FD08B1FDF787F909480021FFF769FD3F
:1034000008B1FDF780F90648FFF743FD002803D017
:10341000BDE81040FDF777B910BD0000004800403E
:10342000E8000020FEE77047704700002DE9F047F4
:10343000454D044689464FF0000A2868C04380077E
:103440000AD0414E283E306820F080603060FEF7A0
:1034500043F80746B04608E00120BDE8F08700BF0A
:10346000FEF73AF8C01B022867D8D8F80000000120
:10347000F6D4206829684FF4FE0721F47C313E021F
:1034800041EA00302860207AA389B4F804C04002E1
:103490002D4D2D495B1E227CACF1010C1035091D10
:1034A000A0F5007080B2521ECCF3080C07EA03436B
:1034B00040EA0C00184306EA0262104328600868DC
:1034C000626920F0C000104308600A68A06922F019
:1034D000200202430A60281D0A6822F010020A60D6
:1034E00002684FF6F873E4699A4342EAC402026044
:1034F0000868B9F1000F40F010020A6011D00868A6
:10350000B9F1010F11D040F400100860D8F80000A4
:10351000444640F08060C8F80000FDF7DDFF054636
:103520000DE0086840F40020EFE740F48010ECE77D
:10353000FDF7D2FF401B022801D903208DE7206848
:103540000001F5D5504688E7284402582DE9F04798
:10355000454D044689464FF0000A2868C04380075D
:103560000AD0414E283E306820F080503060FDF790
:10357000B3FF0746B04608E00120BDE8F08700BF72
:10358000FDF7AAFFC01B022867D8D8F8000080000A
:10359000F6D4208829684FF4FE0721F07C713E02A2
:1035A00041EA00502860207AA389B4F804C04002A0
:1035B0002D4D2D495B1E227CACF1010C1835091DE7
:1035C000A0F5007080B2521ECCF3080C07EA03434A
:1035D00040EA0C00184306EA0262104328600868BB
:1035E000626920F44060104308600A68A06922F410
:1035F000007202430A60281D0A6822F480720A6081
:1036000002684FF6F873E4699A4342EAC402026022
:103610000868B9F1000F40F480720A6011D00868A0
:10362000B9F1010F11D040F080700860D8F80000A7
:10363000444640F08050C8F80000FDF74DFF0546B5
:103640000DE0086840F48000EFE740F40000ECE78C
:10365000FDF742FF401B022801D903208DE72068B7
:103660008000F5D5504688E7284402587047FDF79A
:1036700039BF000070B5CCB04C212FA8FCF760FE1C
:10368000202142A8FCF75CFEBC216846FCF758FEEE
:103690000220FDF7C9FF204800242049026842F4B7
:1036A0004042026002680A6842F001020A6009684A
:1036B00001F001014A9101688904FCD54FF4A02171
:1036C00001200225CDE92F0138957822CDE9395026
:1036D0000C21CDE93B25CDE93F1404234194CDE9EC
:1036E0003D352FA8FEF788FF402008230601CDE9CD
:1036F000453042ABCDE9470649903F21032283E89C
:103700001600042142A8FEF77FFD684600951D942F
:10371000FEF71EF94CB070BD184802582C04005832
:10372000214A30B5214914680020204B44F470042C
:10373000146010330A681E4D42F001020A601860DE
:103740000A681A4B2A400A6018331C1D251D174AA7
:10375000186028322060131D28601C1D251D106074
:103760002A1D1860131D20601C1D2860251D106077
:103770001860206028600A680C4B0E4C22F48022EE
:1037800060330A60186020686FF30F00B0F1005FCB
:1037900003D209490120C1F808014FF00060024935
:1037A0008039086030BD000088ED00E00044025818
:1037B0007FEDF6EA0010005C008000512DE9F04733
:1037C000274B4FF0804A274D02689842264E274FDC
:1037D000274C09D0504507D0A84205D0B04203D0AD
:1037E000B84201D0A04205D1D1F804C022F0700245
:1037F0004CEA0202DFF87CC0DFF87C809842DFF8F8
:103800007C900FD050450DD0A8420BD0B04209D0CB
:10381000B84207D0A04205D0604503D0404501D052
:10382000484503D1CD6822F440722A434D6922F005
:1038300080022A43026098428A68C2620A688262F1
:1038400007D0A04205D0604503D0404501D048458F
:1038500001D10969016301214161BDE8F0870000E0
:10386000000001400004004000080040000C00403F
:103870000004014000400140004401400048014074
:1038800042EA032283680A4323F47F410A438260A9
:1038900070470000034B82681A400A4342F0070158
:1038A000816070478FFFCFFF2DE9F04F026ADFF88C
:1038B0008880DFF8889022F00102DFF884A0DFF82A
:1038C00084B0214F0262DFF884C0066A42688369CF
:1038D00026F002060D68B8428C6803EA0C0323F058
:1038E000030344EA060445EA030507D0404505D032
:1038F000484503D0504501D0584505D1CB6824F048
:103900000804234323F00404B84207D0404505D0FF
:10391000484503D0504501D0584505D122F44076A2
:10392000D1E9053233431A434260856149684163F6
:103930000462BDE8F08F0000000401400040014037
:103940000044014000480140000001408FFFFEFF9D
:10395000F0B5026A1E4E1F4C22F01002DFF878E02C
:103960000262056A4368826925F02005D1F808C023
:10397000A0420F6802EA060222F4407245EA0C15E2
:1039800042EA072201D0704506D1CE6825F08005B5
:1039900045EA061525F04005A0420AD0704508D03A
:1039A0000E4CA04205D00E4CA04202D00D4CA042BD
:1039B00007D1D1E9054623F4406343EA840343EA8F
:1039C000860343608261496881630562F0BD00003F
:1039D000FF8FFFFE00000140000401400040014055
:1039E0000044014000480140F0B5026A1C4D1D4EE4
:1039F00022F48072A8420262026A4368C76922F414
:103A00000072D1F808C00C6827F0730742EA0C2254
:103A100044EA070401D0B04206D1CF6822F4006224
:103A200042EA072222F48062A8420AD0B04208D0BB
:103A30000D4DA84205D00D4DA84202D00C4DA84214
:103A400007D1D1E9055623F4405343EA051343EA6D
:103A500006134360C4614968C1630262F0BD00009F
:103A600000000140000401400040014000440140CA
:103A70000048014070B5026A144B22F48052026281
:103A80009842036A4268C46923F400538E680D6843
:103A900024F4E64443EA063344EA05240BD00C4DF3
:103AA000A84208D00B4DA84205D00B4DA84202D029
:103AB0000A4DA84204D14D6922F4804242EA85129F
:103AC0004260C46149680164036270BD0000014046
:103AD0000004014000400140004401400048014012
:103AE000F0B5026A22F480320262134F056A42681E
:103AF000446D25F400350E89B8420B6824F070043B
:103B000045EA064543EA04030BD00C4CA04208D01A
:103B10000B4CA04205D00B4CA04202D00A4CA04254
:103B200004D14C6922F4803242EA042242604365A7
:103B3000496881650562F0BD000001400004014054
:103B4000004001400044014000480140F0B5026AD5
:103B500022F480120262134F046A4268436D24F417
:103B600000140E89B8420D6823F4E04344EA065479
:103B700043EA05230BD00C4DA84208D00B4DA842B8
:103B800005D00B4DA84202D00A4DA84204D14D6980
:103B900022F4003242EA8522426043654968C165E9
:103BA0000462F0BD000001400004014000400140FB
:103BB00000440140004801402DE9F0410568D1E989
:103BC0000032214F214EAC683C4022433240134327
:103BD000AB604A68602A30D006DC302A32DD402AE9
:103BE0000ED0502A2ED122E0194B9A422ADA702A9E
:103BF00028D18A680068D1E90313FFF741FE21E06C
:103C00000A68052A10D00268136A146A24F00104B5
:103C1000146202680C69916921F0F00141EA041113
:103C20009161006803620DE00120BDE8F0810A693E
:103C30000068896800F00EF804E00A690068896885
:103C400000F019F80020F0E78FFFCFFFF8FFFEFF2C
:103C50002000100010B5036A046A23F00A0324F060
:103C60000104046284690B4324F0F00141EA02116B
:103C70008161036210BD10B5036A23F01003036273
:103C80008369046A23F4704324F0A00443EA0232F7
:103C9000826144EA0111016210BD00003FB514A128
:103CA000D1E9002314A1CDE90023D1E90021CDE918
:103CB0000221416EB9B1016802AC8A688968C2F319
:103CC0004262490F1DF80150615CED00B5FBF1F156
:103CD000A0F86A101DF80210A25CC900B1FBF2F155
:103CE000A0F868103FBD0121A0F86A10F8E70000B5
:103CF0000101010307010000080402040801010199
:103D000090F82810C90706D00168C36A4A6822F4EF
:103D100000321A434A6090F82810890706D50168D6
:103D2000036B4A6822F480321A434A6090F82810E4
:103D3000490706D50168436B4A6822F480221A437A
:103D40004A6090F82810090706D50168836B4A6815
:103D500022F400421A434A6090F82810C90606D59A
:103D60000168C36B8A6822F480521A438A6090F813
:103D70002810890606D50168036C8A6822F400526F
:103D80001A438A6090F82810490611D50168436CDF
:103D90004A6822F480121A434A60416CB1F5801FD0
:103DA00006D10168836C4A6822F4C0021A434A6053
:103DB00090F82810090606D50168C26C486820F4FE
:103DC0000020104348607047F8B500260446C0F84C
:103DD0008860FDF781FB054620686FF07E4700682C
:103DE000000708D500222B464FF40011204600970B
:103DF00000F08EFE60B92068006840070AD50022F6
:103E00002B464FF480012046009700F081FE08B158
:103E10000320F8BD2020C4F8800084F87C60C4F83A
:103E200084000020F8BD70B5846B00252168D4F8AB
:103E30008000D4F884608968090606D5212804D159
:103E4000A4F85650204600F04DF8206880684006DF
:103E500006D5222E04D1A4F85E50204600F02EF89C
:103E6000D4F8880040F01000C4F888002046FFF71E
:103E70007CF870BD10B5C169806BB1F5807F14D03E
:103E80000021A0F85E10202201680B6823F48073E3
:103E90000B6001688B6823F001038B6001688B68FD
:103EA00023F040038B60C0F88420FFF759F910BD60
:103EB00010B5806BFFF764F910BD000030B50168E4
:103EC0002023074D00240A6822F490720A600168DA
:103ED0008A682A408A60C0F88430C46630BD000019
:103EE000FEFFFFEF016820220B6823F0C0030B6088
:103EF00001688B6823F400038B60C0F88020704752
:103F00002DE9F04F04468068F94E87B02168D4E966
:103F10000457E269636E28430D6817433843F54A36
:103F200003434FF0000835401D430D602068E368EF
:103F3000416821F44051194341602368A0699342CC
:103F400001D0216A08439D68EB4FEC4EEC493D409F
:103F500005439D602068656AC36A23F00F032B4305
:103F6000C3622068B0420ED1096801F038011829F7
:103F700073D047DCB9B3082979D010296FD178E024
:103F800028297ED17BE0DF4B984209D1096801F0F6
:103F90000701062975D2DFE801F0546A6C6E707271
:103FA000D94B984209D1096801F00701062968D266
:103FB000DFE801F0475D5F616365D44B984209D14A
:103FC000096801F0070106295BD2DFE801F03A50E9
:103FD00052545658CE4B98420BD1096801F0070154
:103FE00006294ED200E010E0DFE801F02B41434506
:103FF0004749C84B98420AD1096801F0380118298D
:1040000039D0B7DD2029BBD137E001273AE0C24BD8
:10401000984209D1096801F00701062931D2DFE889
:1040200001F01026282A2C2EBC4B98420BD109688F
:1040300001F00701062924D2DFE801F003191B1D56
:104040001F2100271EE090421BD1AD49091D0968C0
:1040500001F00701062914D202E00CE007E010E0AD
:10406000DFE801F0030507090B0D02270AE004272A
:1040700008E0082706E0102704E0202702E0402798
:1040800000E08027DFF898A2DFF898B290424FF462
:1040900080754FF000097AD1102F51D006DC022F25
:1040A00009D0042F27D0082F72D12DE0202F70D0F7
:1040B000402F6DD1F0E0FDF7F5FA0146606A1FE090
:1040C000012827D0022827D0032827D0042827D06A
:1040D000052827D0062827D0072827D0082827D04A
:1040E000092827D00A2827D00B2827D00AE000BFAC
:1040F000B1FBF0F07EE06846FDF7E6FA606A0199F0
:104100000028DDD10120F3E703A8FDF77FFB606AFB
:104110000499F5E70220EBE70420E9E70620E7E74A
:104120000820E5E70A20E3E70C20E1E71020DFE7BD
:104130002020DDE74020DBE78020D9E72846D7E7CD
:10414000DBF8000059468006606A39D50968C1F37A
:10415000C1012AFA01F2A8B101281BD002281BD004
:1041600003281BD004281BD005281BD006281BD0F1
:1041700007281BD008281BD009281BD00A281BD0D1
:104180000B281BD05FF00100B2FBF0F032E033E20D
:10419000A2E050E00220F7E70420F5E70620F3E76D
:1041A0000820F1E70A20EFE70C20EDE71020EBE70D
:1041B0002020E9E74020E7E78020E5E72846E3E71D
:1041C000A8B1012821D0022821D0032821D0042819
:1041D00021D0052821D0062821D0072821D0082861
:1041E00021D0092821D00A2821D00B2821D0012054
:1041F000BAFBF0F000286ED0666806EB46018142FB
:104200006AD8B0EB063F67D89DE00220F0E70420B3
:10421000EEE70620ECE70820EAE70A20E8E70C20B2
:10422000E6E71020E4E72020E2E74020E0E78020F6
:10423000DEE72846DCE7606AA8B1012816D002282C
:1042400016D0032816D0042816D0052816D0062824
:1042500016D0072816D0082816D0092816D00A2804
:1042600016D00B2816D001202F4941E70220FBE78A
:104270000420F9E70620F7E70820F5E70A20F3E72E
:104280000C20F1E71020EFE72020EDE74020EBE7DE
:104290008020E9E72846E7E7606AA8B1012818D03E
:1042A00002281AD003281AD004281AD005281AD0B8
:1042B00006281AD0072839D0082839D0092839D03B
:1042C0000A2839D00B2839D05FF001004FF40041A3
:1042D0000EE70220FAE77CE232E00420F6E706204F
:1042E000F4E70820F2E70A20F0E70C20EEE70000F0
:1042F000F369FFCF000C0058FFF4FF1100100140DC
:10430000544402580044004000480040004C004023
:10431000005000400014014000780040007C004044
:104320000090D0030044025800093D001020CDE762
:104330002020CBE74020C9E78020C7E72846C5E713
:104340004FF0010845E2102F7FD023DC022F4ED022
:10435000042F75D0082FF3D103A8FDF757FA04995D
:10436000606AA8B1012846D0022846D0032846D06A
:10437000042846D0052846D0062846D0072846D02F
:10438000082846D0092846D00A2846D00B2845D010
:10439000012543E0202F7DD0402FD1D1606AA8B104
:1043A000012878D0022877D0032876D0042875D049
:1043B000052874D0062873D0072872D0082871D039
:1043C000092870D00A286FD00B2800D001254F464D
:1043D00000232A464FF400400021FBF779FF0246F4
:1043E0007008130E1202101843EA01216AE0FDF76B
:1043F00059F90146B4E7022510E004250EE0062530
:104400000CE008250AE00A2508E00C2506E0102546
:1044100004E0202502E0402500E080254E460023F0
:104420002A4608461946FBF753FF62680902030251
:1044300041EA106150081818714145E005E0FFE7B6
:104440006846FDF741F901998AE7DBF80010584604
:10445000890656D50068C0F3C1002AFA00F1606AE7
:10446000A8B1012839D0022839D0032839D004282E
:1044700039D0052839D0062839D0072839D008285E
:1044800039D0092839D00A2839D00B2800D0012585
:104490002A460AE067E099E09AE09BE09CE09DE014
:1044A0009EE09FE0A0E0A1E0A2E000234F46084686
:1044B0001946FBF70DFF0902034672080002801837
:1044C00041EA1361324679410023FBF701FFFA49C3
:1044D000A0F540728A426ED932E70225D8E704255A
:1044E000D6E70625D4E70825D2E70A25D0E70C252C
:1044F000CEE71025CCE72025CAE74025C8E7802570
:10450000C6E7606AA8B1012819D0022819D003288B
:1045100019D0042819D0052819D0062819D0072841
:1045200019D0082819D0092819D00A2819D00B2821
:1045300000D001254F4600232A4650464CE702256D
:10454000F8E70425F6E70625F4E70825F2E70A254B
:10455000F0E70C25EEE71025ECE72025EAE74025FB
:10456000E8E78025E6E7606AA8B1012819D00228AB
:1045700019D0032819D0042819D0052819D00628E5
:104580001AD007281AD008281AD009281AD00A28C1
:104590001AD00B2800D00125C84800234F462A46D0
:1045A0001AE70225F8E70425F6E70625F4E70825CB
:1045B000F2E70A25F0E71DE00C25EDE71025EBE713
:1045C0002025E9E74025E7E78025E5E70225FEE627
:1045D0000425FCE60625FAE60825F8E60A25F6E6AF
:1045E0000C25F4E61025F2E62025F0E64025EEE65F
:1045F0008025ECE62168EBE0E0694FF400414FF6DE
:10460000EF7688426FD1082F65D00BDC6FB3012F96
:104610005CD0042F7FF460AF6846FDF755F8606A00
:1046200001995DE0102F5FD0202F7DD0402FF1D178
:10463000606AA8B1012878D0022877D0032876D004
:10464000042875D0052874D0062873D0072872D0A6
:10465000082871D0092870D00A286FD00B2800D004
:1046600001256068B1FBF5F1A0E0FDF705FF2FE043
:10467000012815D0022815D0032815D0042815D0FC
:10468000052815D0062815D0072815D0082815D0DC
:10469000092815D00A2815D00B2814D0012512E0BE
:1046A000022510E004250EE006250CE008250AE0AE
:1046B0000A2508E00C2506E0102504E0202502E08C
:1046C000402500E08025B1FBF5F13EE0FDF7E6FE78
:1046D0000146606A04E003A8FDF798F8606A04994F
:1046E0000028DBD0C4E7D8E0DBF80000594680069C
:1046F000606A40D50968C1F3C1012AFA01F208B322
:10470000012824D0022824D0032824D0042824D02F
:10471000052824D0062824D0072824D0082824D00F
:10472000092824D00A280AE074E0A2E0A3E0A4E06B
:10473000A5E0A6E0A7E0A8E0A9E0AAE0ABE018D0D9
:104740000B2800D00125B2FBF5F160682EE00225B0
:10475000F9E70425F7E70625F5E70825F3E70A2535
:10476000F1E70C25EFE71025EDE72025EBE74025E5
:10477000E9E78025E7E7A8B1012837D0022837D03C
:10478000032837D0042837D0052837D0062837D05B
:10479000072837D0082837D0092837D00A2837D03B
:1047A0000B2800D001256068BAFBF5F1490001EB48
:1047B0005001B1FBF0F080B2A0F11001B1423FF620
:1047C0008BAE4FF6F0732168C0F3420218401043DD
:1047D000C8600121A4F86A104046A4F86810C4F823
:1047E0006C90C4F8709007B0BDE8F08F0225DAE74E
:1047F0000425D8E70625D6E70825D4E70A25D2E719
:104800000C25D0E71025CEE72025CCE74025CAE7C8
:104810008025C8E7606AA8B1012816D0022816D002
:10482000032816D0042816D0052816D0062816D03E
:10483000072816D0082816D0092816D00A2816D01E
:104840000B2800D001251D490BE70225FBE70425B5
:10485000F9E70625F7E70825F5E70A25F3E70C252C
:10486000F1E71025EFE72025EDE74025EBE7802570
:10487000E9E70225F5E60425F3E60625F1E6082535
:10488000EFE60A25EDE60C25EBE61025E9E6202506
:10489000E7E64025E5E68025E3E6082F6AD00FDC51
:1048A0008FB3012F61D0042F7FF416AE6846FCF75A
:1048B0000BFF606A019962E0FFFC0F0000093D00F8
:1048C000102F5FD0202F7DD0402FEDD1606AA8B18E
:1048D000012878D0022877D0032876D0042875D014
:1048E000052874D0062873D0072872D0082871D004
:1048F000092870D00A286FD00B2800D001256068E5
:10490000B1FBF5F1A0E0FFE7FDF7B6FD2FE00128D0
:1049100015D0022815D0032815D0042815D0052855
:1049200015D0062815D0072815D0082815D0092835
:1049300015D00A2815D00B2814D0012512E0022525
:1049400010E004250EE006250CE008250AE00A2503
:1049500008E00C2506E0102504E0202502E04025B3
:1049600000E08025B1FBF5F13DE0FDF797FD014644
:10497000606A04E003A8FCF749FF606A0499002814
:10498000DBD0C4E7DBF8000059468006606A40D5FA
:104990000968C1F3C1012AFA01F208B3012824D041
:1049A000022824D0032824D0042824D0052824D089
:1049B000062824D0072824D0082824D0092824D069
:1049C0000A280AE05FE08DE08EE08FE090E091E061
:1049D00092E093E094E095E096E018D00B2800D0A8
:1049E0000125B2FBF5F160682EE00225F9E7042508
:1049F000F7E70625F5E70825F3E70A25F1E70C2593
:104A0000EFE71025EDE72025EBE74025E9E78025D6
:104A1000E7E7A8B1012822D0022822D0032822D01B
:104A2000042822D0052822D0062822D0072822D008
:104A3000082822D0092822D00A2822D00B2800D00A
:104A400001256068BAFBF5F101EB5001B1FBF0F014
:104A500080B2A0F11001B1427FF6CCAD70E4022526
:104A6000EFE70425EDE70625EBE70825E9E70A254A
:104A7000E7E70C25E5E71025E3E72025E1E74025FA
:104A8000DFE78025DDE7606AA8B1012816D002289B
:104A900016D0032816D0042816D0052816D00628CC
:104AA00016D0072816D0082816D0092816D00A28AC
:104AB00016D00B2800D00125144920E70225FBE77A
:104AC0000425F9E70625F7E70825F5E70A25F3E7C2
:104AD0000C25F1E71025EFE72025EDE74025EBE772
:104AE0008025E9E702250AE7042508E7062506E709
:104AF000082504E70A2502E70C2500E71025FEE655
:104B00002025FCE64025FAE68025F8E600093D0070
:104B10002DE9F0479A4617460E460446089D4FF089
:104B200000094FF0200839E0681C37D0FCF7D4FCAE
:104B3000A0EB0A00A84222D80DB3206801684907FB
:104B40002CD5C069C043000528D423684FF4006108
:104B5000196221680B6823F4D0730B6021688B689D
:104B600023F001038B60C4F88080C4F88480C4F80B
:104B7000888000BF032084F87C90BDE8F08721681E
:104B80000B6823F4D0730B6021688B6823F001035A
:104B90008B60C4F88080C4F88480EBE72068C0692B
:104BA00036EA000004D00020B842BDD00020E4E77F
:104BB0000120F9E7FEE7090700284FEA116104DB4D
:104BC00000F1E02080F80014704700F00F0000F1C1
:104BD000E02080F8141D704702E008C8121F08C1C9
:104BE000002AFAD170477047002001E001C1121F6E
:104BF000002AFBD170470000FCF77CFCFEF73AFD71
:104C0000FEF7D6FAFEF7BEFAFEF74AFBFEF7D6FB32
:104C1000FEF7A0FB024906220248FEF74FFAFEE724
:104C2000000000205C000020000610160006101690
:104C30000000000001020304010203040607080942
:104C4000604C0008000000201C000000D84B000849
:104C50007C4C00081C000020D4050000E84B000834
:104C60000000000000000000010000001000000033
:0C4C7000000000000090D0030090D00372
:040000050800029954
:00000001FF
